:020000040800F2
:100000007807002029020008E11B0008C913000836
:10001000DD1B000839040008A91C000800000000CE
:10002000000000000000000000000000E91B0008C4
:100030003D04000800000000E51B0008ED1B00085F
:10004000430200084302000843020008430200087C
:10005000430200084302000843020008430200086C
:10006000430200084302000843020008430200085C
:10007000430200084302000843020008430200084C
:10008000430200084302000843020008430200083C
:10009000430200084302000843020008430200082C
:1000A000430200084302000843020008430200081C
:1000B000430200084302000843020008430200080C
:1000C00043020008430200084302000843020008FC
:1000D00043020008430200084302000843020008EC
:1000E00043020008430200084302000843020008DC
:1000F00043020008430200084302000843020008CC
:1001000043020008430200084302000843020008BB
:1001100043020008430200084302000843020008AB
:10012000430200084302000843020008430200089B
:10013000430200084302000843020008430200088B
:10014000430200084302000843020008430200087B
:10015000430200084302000843020008430200086B
:10016000430200084302000843020008430200085B
:100170004302000843020008430200080000000098
:10018000430200084302000800F002F800F03CF8C7
:100190000AA090E8000C82448344AAF10107DA45E2
:1001A00001D100F031F8AFF2090EBAE80F0013F0F8
:1001B000010F18BFFB1A43F001031847C01C0000D1
:1001C000E01C0000103A24BF78C878C1FAD8520762
:1001D00024BF30C830C144BF04680C6070470000C1
:1001E0000023002400250026103A28BF78C1FBD840
:1001F000520728BF30C148BF0B6070471FB501F0E0
:1002000023FE1FBD10B510BD00F0DBF81146FFF74F
:10021000F5FF01F065FD00F0F9F803B4FFF7F2FF18
:1002200003BC00F001F90000094880470948004775
:10023000FEE7FEE7FEE7FEE7FEE7FEE7FEE7FEE796
:10024000FEE7FEE704480549054A064B70470000F3
:10025000951C00088901000878010020780700201B
:10026000780300207803002053EA020C00F0698034
:100270002DE9F04B4FF00006002B1FBFB3FA83F5BA
:1002800003FA05F424FA05F65E4012BF1643B2FAEB
:1002900082F502FA05F4C5F120051EBF22FA05FC1D
:1002A00044EA0C04203556EA044C4FEA144418BFC3
:1002B000641C4FF000084FF00009904271EB030CF2
:1002C00039D3002919BFB1FA81F701FA07F6B0FA5C
:1002D00080F700FA07F6C7F120071EBF20FA07FCD7
:1002E00046EA0C062037B6FBF4FCA7EB0507103FE7
:1002F00007F01F0BCBF120062CFA06F60CFA0BFBCD
:1003000044BFB3460026202FA4BF5E464FF0000B2B
:100310005BEA060C08BF4FF0010B19EB0B0948EB29
:100320000608ABFB027C06FB02CC0BFB03CCC01B1C
:1003300071EB0C01C1E70B46024641464846BDE859
:10034000F08B13B5084318BF4FF0FF300146AFF3F1
:100350000080BDE81C40704710B5203AC0F00B800B
:10036000B1E81850A0E81850B1E81850A0E81850AB
:10037000203ABFF4F5AF5FEA027C24BFB1E8185021
:10038000A0E8185044BF18C918C0BDE810405FEA83
:10039000827C24BF51F8043B40F8043B08BF7047FF
:1003A000D20728BF31F8023B48BF11F8012B28BF04
:1003B00020F8023B48BF00F8012B70477047704798
:1003C0007047754600F02CF8AE4605006946534666
:1003D00020F00700854618B020B5FFF733FFBDE8D1
:1003E00020404FF000064FF000074FF000084FF09C
:1003F000000BAC46ACE8C009ACE8C009ACE8C009E9
:10040000ACE8C00921F007018D46704710B50446DD
:10041000AFF300802046BDE81040FFF7FEBE0000AD
:10042000004870471000002001491820ABBEFEE7CD
:100430002600020070470000FEE700007047000041
:10044000B0B5044600F0E4F8054640F20000C2F200
:1004500000000078611C18BF044400BF00F0D8F809
:10046000401BA042FAD3B0BD2DE9F04F82B000F19D
:100470003E4241F6004502F1FF77C4F20205082230
:1004800043F6004E4FEAB726A84208BF0722C4F23F
:10049000010E072E38BF4FEAB7220125002600279C
:1004A0004FF00008009208E008F101080437B8F1A5
:1004B000100F06F1020600F0A7800C6805FA08F993
:1004C00014EA090FF0D0D1F804B003220BF0030CAA
:1004D000ACF10104B240012C6FEA020A10D8826824
:1004E000CC6802EA0A02B440224382604268CBF33D
:1004F000001422EA090204FA08F42243426005E0EB
:10050000BCF1030F02D14FF0030C20E0C2688C68ED
:1005100002EA0A02B4402243BCF1020FC26016D1C3
:100520006FF0030202EA58020244D2F820C007F03A
:100530001C050F230C69AB402CEA030304FA05F5F4
:100540002B431362D1F804B001250BF0030C0268B1
:100550000CFA06F302EA0A021A431BF4403F026057
:10056000A2D0002243F644030192C4F202031A68A7
:100570004FF6084C42F480421A601A68CFF6FF7CAE
:1005800002F480420192019A28F00302724452F868
:100590000C3007F00C050F24AC40A343009C04FA78
:1005A00005F52B4342F80C30DEF808204B6842EA90
:1005B000090543F60C4CDC0258BF22EA0905CEF8C7
:1005C0000850C4F2010CDCF800209C0242EA090544
:1005D00058BF22EA0905CCF80050DEF804209C033D
:1005E00042EA090558BF22EA0905CEF80450DEF8B0
:1005F0000020DB0342EA090558BF22EA0905CEF8CC
:100600000050012550E700BF02B0BDE8F08F0000A8
:1006100040F27010C2F200000068704770B5B8B3C5
:10062000044690F83D0028B9002084F83C0020469C
:1006300000F024FB242084F83D002068016821F0AC
:1006400001010160016841F400410160016821F489
:100650000041016000F09EFC48F28041C0F21E01A2
:1006600040F60013D4F804E088424FF00001C0F2D5
:100670003D0348F2A16C4FF0000238BF01219842BF
:10068000C0F2010C38BF0122E64538BF0A460AB164
:10069000012070BD4DF68361C4F21B31A0FB011235
:1006A0002168950C4B684FF4967623F03F0343EA9C
:1006B0009243754344F6D3564B60C1F262060B6A0F
:1006C000A5FB0656B50923F03F03E64538BF950C58
:1006D0006A1C1A430A62CA6948F2A0664CF6FF73A4
:1006E000C0F20106B64522EA03020BD801384FEAF0
:1006F0004E03B0FBF3F001306FF31F30042898BFB6
:1007000004201EE0A368013863B119230EFB03F334
:10071000B0FBF3F001306FF31F3078B100F580408B
:1007200008E000BF0EEB4E03B0FBF3F001306FF3B7
:100730001F3028B100F5004003E000BF012000E0B9
:1007400001201043C8610868D4E9072320F0C000E5
:10075000104318430860886848F2FF3204F10C0621
:1007600090434CCE18431043A5698860C86820F0B8
:10077000FF0030432843C860086840F0010008606B
:1007800000202021206484F83D10206384F83E007E
:1007900070BD00002DE9F04383B01F461646894620
:1007A0000446FFF735FF94F83D10202920D1054677
:1007B000206800BF8169890716D5FFF729FF411B13
:1007C00020681A29F6D381698907F3D500202021F2
:1007D000206384F83D1084F83E00216C41F0200134
:1007E000216484F83C0003E094F83C10012903D113
:1007F000022003B0BDE8F083012184F83C100168B9
:10080000C90703D1016841F001010160016840F2AC
:10081000040821F400610160222184F83D101021B8
:1008200084F83E100021216466626785618DC0F204
:1008300001082185A8F500310439E162E16A026806
:100840000A9F42F4806211F5803F026018BF0129BF
:1008500042D1016841F48071016020464FF00111DE
:1008600000223B46009500F011FE58B12068006858
:10087000C00544BF4FF400702064012003B0BDE800
:10088000F08300BF2069B0F5804F2BD149F0010003
:10089000C0B221683A460861A8F1020120462B4601
:1008A00000F0DEFE0028E8D1208D002850D002287C
:1008B00066D001286ED121680A6822F480620A603D
:1008C000002202924A6902928A690292029A0A6896
:1008D00042F400720A6078E00829BAD0216B11292D
:1008E000B7D0BAE7062000EAD916206806F1F00171
:1008F000016108F1040120463A462B4600F0B0FEA3
:100900000028BAD120685FFA89F10161A8F10201DB
:1009100020463A462B4600F0A3FE0028ADD1002029
:1009200002902068002241693B4602918169029150
:100930000299016841F48071016020464FF0011175
:10094000009500F0A3FD002890D146F0F100A0E74B
:100950000020029020684169029181690291029908
:10096000016841F400710160202084F83D000020FE
:1009700084F83E0084F83C0003B0BDE8F08300BF7B
:1009800021680A6822F480620A600A6842F4006200
:1009900004E000BF21680A6842F480620A60002215
:1009A00002924A6902928969029102990DE000BFA0
:1009B00010690870606A218D01306062481E2085D0
:1009C000618D013961850104CED080B203280FD832
:1009D00002284AD001282DD1204639462A4600F067
:1009E000AFFE00287FF449AF2068616A0069E0E744
:1009F000204639462A4600F0A3FE00287FF43DAF8A
:100A00002068616A00690870606A2268411C208D54
:100A1000616201382085638D013B638553695B0703
:100A2000D1D580B20328C3D1106820F48060106053
:100A3000BEE700BF2046414600223B46009500F03D
:100A400025FD00287FF419AF2068616A026822F44E
:100A50008062026000690870606A218D0130606206
:100A6000481E2085608D0138608520464146002261
:100A70003B46009500F00AFD00287FF4FEAE20689A
:100A8000616A026842F40072026000690870606A7C
:100A90002268411C6162218D01392185618D0139F6
:100AA00061851169417085E72DE9F04383B01E46E9
:100AB000174689460446FFF7ABFD94F83D10202900
:100AC00020D10546206800BF8169890716D5FFF748
:100AD0009FFD411B20681A29F6D381698907F3D548
:100AE00000202021206384F83D1084F83E00216C12
:100AF00041F02001216484F83C0003E094F83C10AC
:100B0000012903D1022003B0BDE8F083012184F85C
:100B10003C100168C90703D1016841F0010101607F
:100B2000016840F2020821F400610160212184F88B
:100B30003D10102184F83E10002121646762668513
:100B4000618DC0F201082185A8F10211E162E16A1C
:100B50000A9E11F5803F18BF01291DD1016841F49B
:100B60008071016020464FF001110022334600954C
:100B700000F08CFC50B120680068C00544BF4FF401
:100B800000702064012003B0BDE8F0832069B0F557
:100B9000804F07D1FE2015E00829DFD0216B1229F4
:100BA000DCD0DFE7062000EAD9102168F0300861C8
:100BB00008F10601204632462B4600F051FD002880
:100BC000E0D1FF20216800EA090008612046414683
:100BD00032462B4600F044FD0028D3D1002002907D
:100BE00020684169029180690290029806E000BF86
:100BF000204631462A4600F0E9FB18BB208D68B339
:100C0000204631462A4600F0E3FDD8B9606A2168E3
:100C1000024612F8013B0B616262628D013A628505
:100C2000228D531E23854F697F07E1D51B04DFD03A
:100C3000437802300B616062608D01386085901EE0
:100C40002085D5E7206C04289CD12068016841F4F8
:100C500000710160012003B0BDE8F08320680168E5
:100C600041F400710160202084F83D00002084F8E8
:100C70003E0084F83C0003B0BDE8F083B0B586B018
:100C8000016845F20040C4F20000814202D006B083
:100C9000B0BD00BF002443F630050194C4F2020544
:100CA000296800F5D83041F002012960296801F077
:100CB000020101910199C02101911221CDE9021493
:100CC000032104910421059101A9FFF7CDFB0094B4
:100CD000286940F400102861286900F40010009091
:100CE000009806B0B0BD000040F2000040F2701164
:100CF000C2F20000C2F2000100780A6810440860E5
:100D00007047000080B543F60040C4F2020001685D
:100D100041F400710160016841F480610160016883
:100D200041F480710160032000F074F80F2000F09E
:100D300005F800F027F8002080BD000070B540F2F3
:100D40000006C2F2000640F208013278C2F2000149
:100D50004FF47A730968B3FBF2F20446B1FBF2F187
:100D6000084600F01BFB0F2C4FF0010508D838B9DE
:100D70004FF0FF3021460022002500F01FF874607C
:100D8000284670BD82B0002043F640010190C4F2B5
:100D900002014A6842F480424A604A6802F4804292
:100DA0000192019A0090086840F08050086008683D
:100DB00000F080500090009802B0704710B54EF6D9
:100DC0000C5CCEF2000CDCF80030C3F3022E8EF087
:100DD0000704042C28BF0424BEF103034FF0FF3E98
:100DE0000EFA04F438BF0023A14399400EFA03F32E
:100DF0009A43114300F00F0200F160430901043AE5
:100E000003F564436244002848BF02F10C031970E3
:100E100010BD00004EF60C51CEF200010A684FF6EC
:100E2000FF031A4060F30A2242F0806040F0FD7038
:100E3000086070472DE9F041002800F08B8043F6F0
:100E40000808C4F202080446D8F8F8030D4600F07A
:100E50000700884207D288F8F853D8F8F80300F062
:100E60000700A84276D12068810717D5410705D52C
:100E7000D8F8001041F4E051C8F80010010705D57A
:100E8000D8F8001041F46041C8F80010D8F80010FC
:100E9000A26821F0F0011143C8F80010C0073FD14B
:100EA000D8F8F80300F00700A84207D988F8F853EB
:100EB000D8F8F80300F00700A8424BD1206841079A
:100EC00007D5D8F80010E26821F4E0511143C8F8C2
:100ED0000010000708D5D8F80000216920F4604010
:100EE00040EAC100C8F8000000F068F8D8F8001027
:100EF00041F66262C1F30311C0F60002515C40F298
:100F0000080220FA01F140F20400C2F20000006879
:100F1000C2F200021160FFF711FF0020BDE8F0816E
:100F20006068811E022907D258F8081C89015CBF3D
:100F30000120BDE8F08111E0012807D158F8081C14
:100F400089035CBF0120BDE8F08107E058F8081C68
:100F5000890703D40120BDE8F08100BFD8F8001054
:100F600021F003010843C8F80000FFF751FB0646D3
:100F700041F28837D8F80000616800F00C00B0EB4F
:100F8000810F8DD0FFF744FB801BB842F2D90320BC
:100F9000BDE8F08140F2080043F60801C2F200000B
:100FA000C4F202010068096841F67262C1F382214D
:100FB000C0F60002515CC8407047000010B543F60F
:100FC0000404C4F20204606800F00C0008280BD08E
:100FD000042819BF42F20040C0F2F40047F6400076
:100FE000C0F27D1010BD00BF20682168236849024F
:100FF00047F64001C0F27D1100F03F02C3F38810B4
:101000005CBF42F20041C0F2F401A1FB00010023E9
:10101000FFF72AF921680222C1F3014102EB4101E5
:10102000B0FBF1F010BD00002DE9F04182B00028C6
:1010300068D00446007843F60006C007C4F20206F2
:101040000BD0B06800F00C00042840F09F8030689E
:10105000800302D56068002854D0207880071AD514
:10106000B06810F00C0F09D0B06800F00C00082830
:1010700040F0A6807068400200F1A28030688007CE
:1010800002D5E06801283DD13068216920F0F800E0
:1010900040EAC10030602078000737D4207840074C
:1010A0004CD4A56955B3B06800F00C00082840F096
:1010B000BB80012D26D07068E16900F480028A426D
:1010C00020D1216A00F03F028A421BD147F6C0714D
:1010D000626A0140B1EB821F14D1A16A4FF6FF731F
:1010E000C903994300F44032A1F580318A4209D105
:1010F000E16A00F07060B0EB016F03D1002002B034
:10110000BDE8F081012002B0BDE8F08160690028EF
:1011100040F20000C4F2472076D00121C0F8801EC2
:10112000FFF776FA054600BF706F8007B6D4FFF769
:101130006FFA401B0228F7D9DDE000BF306C10F0D9
:1011400080580AD100200190306C40F0805030640B
:10115000306C00F080500190019847F20007C4F213
:1011600000073868C00541D4386840F480703860A2
:10117000FFF74EFA054600BF3868C00536D4FFF7C2
:1011800047FA401B0228F7D9B5E000BFB06800F06D
:101190000C00082803D1706840023FF558AF606822
:1011A000B0F5803F07D0B0F5A02F40F08D803068BB
:1011B00040F480203060306840F4803030608DE052
:1011C000E068002852D00020C4F2472001210160CD
:1011D000FFF71EFA054600BF306880073FF554AFA1
:1011E000FFF716FA401B0228F6D984E0A068012810
:1011F00005D005284ED1306F40F004003067306FC5
:1012000040F0010030674FE00021C0F8801EFFF77A
:10121000FFF90546706F80077FF540AFFFF7F8F9DB
:10122000401B0228F6D966E00027C4F247270020B9
:101230003866FFF7EDF9022D05460BD130688001C5
:101240005ED5FFF7E5F9401B02284FF00300F5D902
:1012500055E700BF306880017FF550AFFFF7D8F940
:10126000401B02284FF00300F4D948E70020C4F2E5
:10127000472000210160FFF7CBF905463068800761
:101280007FF509AFFFF7C4F9401B02284FF00300B8
:10129000F4D934E7316F002821F001013167316F53
:1012A00021F0040131674DD0FFF7B2F9054641F254
:1012B000883700BF306F800756D4FFF7A9F9401B6D
:1012C000B842F7D917E000BF3168002821F4803117
:1012D0003160316821F4802131604FD0FFF798F9F7
:1012E000054600BF306880033FF5B7AEFFF790F9C1
:1012F000401B6428F6D9032002B0BDE8F08100BF8E
:1013000004F11C052FCD084340EA8210D9034FF6A3
:10131000FF729143A1F5803140EA05600843706097
:1013200001203866FFF774F9044600BF3068800179
:101330003FF5E4AEFFF76CF9001B02284FF0030005
:10134000F4D9DCE6FFF764F9054641F2883700BFBF
:10135000306F800708D5FFF75BF9401BB8424FF0AC
:101360000300F5D9CBE600BFB8F1000F7FF499AECA
:10137000306C20F08050306493E600BFFFF748F9EE
:10138000054600BF306880037FF567AEFFF740F980
:10139000401B64284FF00300F4D9B0E6411E002042
:1013A000B0EB116F1CBF012070474EF21002CEF25D
:1013B000000251604EF62351CEF20001F0230B7073
:1013C0000721906011607047FEE7000070B5036868
:1013D000044653F8140F400711D40E46481C29D078
:1013E00086BB00BF1868400527D4FFF711F92368B2
:1013F00053F8140F400739D518684007F2D500207C
:1014000070BD00BF18684007F9D41868400514D4AF
:1014100018684007F3D4186840050ED418684007D0
:10142000EDD41868400508D4186840074FF0000054
:1014300048BF70BD18684005E4D56FF4806018603F
:10144000042014E0154603E053F8140F4007D6D4E7
:1014500018684005F1D4FFF7DBF8401B2368B04261
:10146000F2D958694007EFD4202000E02020002165
:101470002022216384F83D2084F83E10226C104322
:101480002064012084F83C1070BD00002DE9F0417B
:10149000054600681E46144601F47F0201338FB2F0
:1014A00042D0DDF81880B2F5803F40F08780406977
:1014B0003840C01BB0FA80F04009A04240F0C8801C
:1014C0004EB924E040693840C01BB0FA80F04009B2
:1014D000A04240F0BD80FFF79BF8A0EB0801286810
:1014E000B142EFD941693940C91BB1FA81F14909CB
:1014F000A142E7D19BE000BF40693840C01BB0FA71
:1015000080F04009A0424FF0000040F0A680FFF7B5
:101510007FF8286841693940C91BB1FA81F149094E
:10152000A142E9D183E000BFB2F5803F24D100BFE2
:1015300041693940C91BB1FA81F14909A14240F022
:10154000878041693940C91BB1FA81F14909A1423B
:1015500040F07E8041693940C91BB1FA81F14909E7
:10156000A14275D141693940C91BB1FA81F14909DC
:10157000A142DDD06CE000BF81693940C91BB1FADE
:1015800081F14909A14263D181693940C91BB1FA8E
:1015900081F14909A1425BD181693940C91BB1FA86
:1015A00081F14909A14253D181693940C91BB1FA7E
:1015B00081F14909A142DFD04AE000BF806938408B
:1015C000C01BB0FA80F04009A04241D146B923E0E7
:1015D00080693840C01BB0FA80F04009A0423BD17E
:1015E000FFF716F8A0EB08012868B142F0D981692D
:1015F0003940C91BB1FA81F14909A142E8D116E08D
:1016000080693840C01BB0FA80F04009A0424FF01A
:10161000000018BFBDE8F081FEF7FAFF2868816975
:101620003940C91BB1FA81F14909A142E8D1002032
:101630002021286385F83D1085F83E00296C41F093
:101640002001296485F83C000120BDE8F08100BF3D
:101650000020BDE8F08100BF0020BDE8F08100005F
:10166000F0B581B0044600681D4643698FB203EAB5
:101670000701B94202D1002001B0F0BD4169164610
:10168000013201F4806125D0002940D1CEB100BFE4
:10169000FEF7BEFF411B2068B14203D941693940C2
:1016A000B9424BD141693940B942E4D04169490559
:1016B000EED52CE041693940B942DCD04169490599
:1016C00025D4FEF7A5FF206841693940B942F1D021
:1016D000202024E0D9B941693940B942CBD04169D1
:1016E000490514D441693940B942C4D0416949051A
:1016F0000DD441693940B942BDD04169490506D48C
:1017000041693940B942B6D041694905E3D501681C
:1017100041F4007101606FF4806141610420002197
:101720002022216384F83D2084F83E10226C10436F
:10173000206484F83C10012001B0F0BD2020EEE7C9
:1017400070B504460068154650F8143F5A063DD45B
:101750000E4629B926E000BF50F8141F490635D4BB
:101760000168C90621D4FEF753FF411B2068B1422E
:10177000F2D941694906EFD400202021206384F882
:101780003D1084F83E00206C40F0200018E000BFBF
:10179000FEF73EFF206850F8141F4906ECD501689B
:1017A000490613D40168C906F2D56FF01001016033
:1017B00000202021206384F83D1084F83E00206C36
:1017C0002064002084F83C00012070BD002070BD22
:1017D00070B50368044653F8140F000611D40E4682
:1017E000481C29D086BB00BF1868400527D4FEF7E7
:1017F0000FFF236853F8140F000639D51868000648
:10180000F2D5002070BD00BF18680006F9D4186832
:10181000400514D418680006F3D4186840050ED4A7
:1018200018680006EDD41868400508D4186800064A
:101830004FF0000048BF70BD18684005E4D56FF454
:1018400080601860042014E0154603E053F8140F7C
:101850000006D6D418684005F1D4FEF7D9FE401B27
:101860002368B042F2D958690006EFD4202000E086
:10187000202000212022216384F83D2084F83E109E
:10188000226C10432064012084F83C1070BD0000DD
:101890002DE9F04184B040F2AC08C2F200080446E1
:1018A00048F26B0008F11C05ADF80400642701AA9A
:1018B0002846D02102230097FFF7F6F86420FEF7B0
:1018C000BFFD2078217900F0070040EA81106B21EC
:1018D0008DF806108DF807000DF106022846D0217C
:1018E00002230097FFF7E0F86420FEF7A9FDE078F7
:1018F0001A2100F007008DF808108DF8090002AADF
:101900002846D02102230097FFF7CEF860781826EA
:1019100006EAC0001B218DF80A108DF80B000DF1AE
:101920000A022846D02102230097FFF7BDF8A078CD
:101930001C2106EAC0008DF80C108DF80D0003AADA
:101940002846D02102230097FFF7AEF840F2194055
:10195000ADF80E000DF10E022846D02102230097AB
:10196000FFF7A2F8A078032806D9607803280BD9DE
:1019700004B0BDE8F08100BF07A151F82000C8F80D
:10198000080060780328F3D807A151F82000C8F8B0
:101990000C0004B0BDE8F08100007A3D0000FA3D83
:1019A00000007A3E0000FA3E0000FA3B00007A3C5C
:1019B0000000FA3C00007A3D10B582B0044668464B
:1019C00000F032F8BDF90000BDF9021000EE100A77
:1019D00040F2AC00C2F2000090ED021AB8EEC00A6C
:1019E00090ED042A21EE000A30EE420A03EE101AAE
:1019F00084ED000AB8EEC33A90ED050ABDF9042063
:101A000021EE033A33EE400A04EE102A84ED010A77
:101A1000B8EEC42A90ED060A21EE021A31EE400A11
:101A200084ED020A02B010BD2DE9F04385B040F20A
:101A3000AC08054604A8C2F20008461C3A2008F18A
:101A40001C048DF80A004FF00A090DF10A02204625
:101A5000D0210123CDF80090FFF726F86427204617
:101A6000D021324601230097FEF794FE9DF8110025
:101A7000002846D03B208DF8040001AA2046D02142
:101A80000123CDF80090FFF70FF80DF10A02204670
:101A9000D02106230097FEF77DFEBDF80A00BDF8B1
:101AA0000C1000BA000C288008BABDF80E10000C0B
:101AB000688008BA000CA88043208DF812000DF150
:101AC00012022046D0210123CDF80090FEF7ECFF52
:101AD00001AA2046D02106230097FEF75BFEBDF841
:101AE0000400BDF8061000BA000CA8F8000008BAFF
:101AF000BDF80810000CA8F8020008BA000CA8F8FD
:101B0000040005B0BDE8F08310B582B00446684615
:101B1000FFF78AFFBDF90000BDF90210BDF90420EE
:101B200000EE100A40F2AC00C2F2000090ED021A82
:101B300002EE101A03EE102AB8EEC00AB8EEC22A5E
:101B4000B8EEC33A21EE000A21EE022A21EE031A72
:101B500084ED000A84ED012A84ED021A02B010BD62
:101B600040F2AC01C2F200010A8802804A88428039
:101B7000898881807047000040F2AC01C2F2000108
:101B8000B1F90020B1F90230B1F904C000EE102A19
:101B900091ED031A02EE103A03EE10CAB8EEC00A35
:101BA000B8EEC22AB8EEC33A21EE000A21EE022AAC
:101BB00021EE031A80ED000A80ED012A80ED021A61
:101BC0007047000080B5014640F2AC00C2F2000050
:101BD0001C305422FEF7C0FB80BD0000FEE7000071
:101BE000FEE700007047000070470000FFF77CB878
:101BF000B0B592B0002443F640000B94CDE90944FF
:101C0000CDE907440594CDE90344CDE901440094AE
:101C1000C4F202000168022541F0805101600068B1
:101C200000F080500090009847F200000094C4F249
:101C30000000016841F480410160006800F48040C8
:101C4000009000980120099010200A9008200E9022
:101C50005420CDE90F050420119006A80695CDE982
:101C60000C54FFF7E1F918B172B600BFFEE700BFF0
:101C70000F20CDE901054FF48050CDE9040401A8FF
:101C800002210394FFF7D6F810B172B6FEE700BF49
:101C900012B0B0BD4EF68850CEF20000016841F49B
:101CA0007001016070470000FEE7000030EE200A7E
:101CB000B6EE003A40F2AC0031EE211A32EE222AA2
:101CC00020EE030AC2F2000021EE031A22EE032ADC
:101CD00080ED040A80ED051A80ED062A70470000A9
:101CE00086B0FFF70FF8FFF783FF002443F63000BC
:101CF0000194C4F20200016848F2A06241F00201BE
:101D00000160006845F2004100F002000190019876
:101D100040F21C10C2F20000C4F200014FF48043F4
:101D2000C0F2010280E81600C0E90343C0E905449F
:101D3000C0E90744FEF772FC10B172B6FEE700BFBF
:101D400040F21C10C2F20000FFF73CFF4FF0011000
:101D5000CDF8110004A88DF81040FFF799FD9FED14
:101D6000340ADFED340A9FED341ADFED341A9FEDAB
:101D7000342ADFED342AFFF799FF40F27004C2F2F3
:101D80000004A51D04F1240604F130070DF1040838
:101D90002046FFF749FE2846FFF7E2FE3046FFF7F0
:101DA000B3FE3846FFF7E8FE94ED031A94ED090AF6
:101DB0004046B4EE401AF1EE10FAB8BF84ED030AC3
:101DC00094ED041AB4EE401AF1EE10FAC8BF84ED97
:101DD000040A94ED051A94ED0A0AB4EE401AF1EEE5
:101DE00010FAB8BF84ED050A94ED061AB4EE401A55
:101DF000F1EE10FAC8BF84ED060A94ED071A94EDCF
:101E00000B0AB4EE401AF1EE10FAB8BF84ED070ADF
:101E100094ED081AB4EE401AF1EE10FAC8BF84ED42
:101E2000080AFFF7C9FD0A20FEF70AFBB0E700BF6A
:101E3000E0BD77C45882D444C01FB1C4B85CAE447E
:101E400048A7F1C4107B6C44F1EE100A4FF6FF7105
:101E5000C0F2C03120EA010040F04070E1EE100A0B
:101E600070470000000000000000010203040607A4
:101E7000080900000000010203040000A01E000881
:101E80000000002010000000C4010008B01E00087F
:101E90001000002068070000E001000800000000BA
:101EA00001000000100000000024F4000000000009
:040000050800018965
:00000001FF
