:020000040800F2
:100000008807002029020008AD1A0008A51A000878
:10001000A91A00086D040008691C0008000000000F
:10002000000000000000000000000000B51A0008F9
:100030007D04000800000000B11A0008B91A000889
:10004000430200084302000843020008430200087C
:10005000430200084302000843020008430200086C
:10006000430200084302000843020008430200085C
:10007000430200084302000843020008430200084C
:10008000430200084302000861040008430200081C
:10009000430200084302000843020008430200082C
:1000A000430200084302000843020008430200081C
:1000B000430200084302000843020008430200080C
:1000C00043020008430200084302000843020008FC
:1000D00043020008430200084302000843020008EC
:1000E00043020008430200084302000843020008DC
:1000F00043020008430200084302000843020008CC
:1001000043020008430200084302000843020008BB
:1001100043020008430200084302000843020008AB
:10012000710400084302000843020008430200086B
:10013000430200084302000843020008430200088B
:10014000430200084302000843020008430200087B
:10015000430200084302000843020008430200086B
:10016000430200084302000843020008430200085B
:100170004302000843020008430200080000000098
:10018000430200084302000800F002F800F03CF8C7
:100190000AA090E8000C82448344AAF10107DA45E2
:1001A00001D100F031F8AFF2090EBAE80F0013F0F8
:1001B000010F18BFFB1A43F001031847981C0000F9
:1001C000B81C0000103A24BF78C878C1FAD852078A
:1001D00024BF30C830C144BF04680C6070470000C1
:1001E0000023002400250026103A28BF78C1FBD840
:1001F000520728BF30C148BF0B6070471FB501F0E0
:100200000CFE1FBD10B510BD00F0A9F81146FFF798
:10021000F5FF01F02BFD00F0C7F803B4FFF7F2FF84
:1002200003BC00F0CFF800000948804709480047A8
:10023000FEE7FEE7FEE7FEE7FEE7FEE7FEE7FEE796
:10024000FEE7FEE704480549054A064B70470000F3
:10025000651B00088901000888010020880700202C
:10026000880300208803002053EA020C00F0698014
:100270002DE9F04B4FF00006002B1FBFB3FA83F5BA
:1002800003FA05F424FA05F65E4012BF1643B2FAEB
:1002900082F502FA05F4C5F120051EBF22FA05FC1D
:1002A00044EA0C04203556EA044C4FEA144418BFC3
:1002B000641C4FF000084FF00009904271EB030CF2
:1002C00039D3002919BFB1FA81F701FA07F6B0FA5C
:1002D00080F700FA07F6C7F120071EBF20FA07FCD7
:1002E00046EA0C062037B6FBF4FCA7EB0507103FE7
:1002F00007F01F0BCBF120062CFA06F60CFA0BFBCD
:1003000044BFB3460026202FA4BF5E464FF0000B2B
:100310005BEA060C08BF4FF0010B19EB0B0948EB29
:100320000608ABFB027C06FB02CC0BFB03CCC01B1C
:1003300071EB0C01C1E70B46024641464846BDE859
:10034000F08B13B5084318BF4FF0FF300146AFF3F1
:100350000080BDE81C407047704770477047754685
:1003600000F02CF8AE4605006946534620F0070021
:10037000854618B020B5FFF765FFBDE820404FF077
:1003800000064FF000074FF000084FF0000BAC469E
:10039000ACE8C009ACE8C009ACE8C009ACE8C009E9
:1003A00021F007018D46704710B50446AFF3008079
:1003B0002046BDE81040FFF730BF000000487047FE
:1003C0001000002001491820ABBEFEE72600020005
:1003D000704700000146806B036C026C13F0500FF5
:1003E00008D0D20648BF00F04BB9806BC26C0846FB
:1003F000104700BF42F40071016401688A6812F07E
:10040000405F01D000F0E6B8027E002AFAD1CA6A45
:1004100012F4700F02D08A685205F3D44A6822F0B1
:1004200020024A60016C21F480710164016CC904EE
:1004300048BF00F0CFB8016C41F00101016400F049
:10044000C9B80000806B40210164416C41F0040197
:10045000416400F015B90000806B00F00FB9000096
:1004600040F2D800C2F2000000F00CB9FEE7000034
:1004700040F22010C2F2000000F084BB7047000080
:1004800072B600BFFEE700007047000070B581B093
:100490000022009290F83C20012A03D10221084654
:1004A00001B070BD0E6801220A2E80F83C2009D3ED
:1004B000B2B25200D0F800E012FA86F21E3A0EF103
:1004C0000C0305E0D0F800E006EB46020EF1100345
:1004D0004FF0070C1D680CFA02F4A5431D608D68EF
:1004E0001C6805FA02F222431A60496806290FD8EF
:1004F00001EB81014A1F71461F2351F8345F93407D
:1005000025EA03030B60B3B203FA02F214E000BF62
:1005100001EB81030C29B2B204D8714651F8304F77
:10052000233B03E0714651F82C4F413B1F259D4072
:1005300024EA05059A400D600B6842F2043CC4F2BF
:10054000010C1A43ACF541739E450A603BD1122E53
:1005500006D1DCF8001041F48001CCF8001032E044
:1005600026F0010110292ED1DCF80010102E41F4E4
:100570000001CCF8001026D140F20801C2F20001BF
:1005800009684DF68362C4F21B32A1FB0212910C82
:1005900001EB8101490000910099A1B10099013955
:1005A0000091009979B1009901390091009951B1F8
:1005B000009901390091009929B100990139009100
:1005C00000990029EAD1002180F83C10084601B0CA
:1005D00070BD000047F62A20C1F6FF7000889FED2D
:1005E000231A00EE100A40F27000C2F20000018BE4
:1005F000B8EE400A20EE010A01EE101AB8EE411AD8
:1006000080EE010AC18B9FED1A1A02EE101AB8EEA5
:10061000422A418B9FED185A03EE101A818BB8EED7
:10062000433A04EE101AB8EE444A20EE022A82EE53
:10063000012A20EE033A20EE044A83EE013A84EECA
:10064000011A9FED0C4A80ED000AB3EE090A32EE62
:10065000044A84EE054A80ED032A80ED013A80EDDC
:10066000021A34EE000A80ED040A70473333534017
:1006700000F07F455C8F42BF0AD7233B70470000E4
:100680007047000070B50446006806684568B10709
:1006900017D515F0200114D0216CC90603D4216CA4
:1006A00041F400712164816811F0405F02D1217E24
:1006B000002969D02046FFF78DFF20686FF01201F6
:1006C0000160710714D515F0800111D0216CC906A5
:1006D00003D4216C41F400512164816811F4401F5E
:1006E00022D02046FFF7D0FE20686FF00C01016099
:1006F000F10706D015F040011CBF01685FEAC17127
:1007000034D1B1060FD515F0806108BF70BD616CA2
:100710006FF0200541F00201616405602046FFF79B
:10072000AFFF2068056070BD816B11F4401F02D0DF
:1007300081684905D5D441684905D2D4816811F052
:10074000405FCED1217E0029CBD1416821F08001CC
:100750004160206C20F480502064206CC005C0D41F
:10076000206C40F001002064BBE700BF206C40F427
:1007700080302064204600F0D1F820686FF001013D
:100780000160B106BFD4CEE7C16A11F4700F03D087
:10079000816849053FF58EAF416821F02001416035
:1007A000206C20F480702064206CC0043FF582AF80
:1007B000206C40F0010020647CE70000002804BFAA
:1007C0000120704710B50446006C00283ED0206C14
:1007D000C00645D4206C41F202118843023042F237
:1007E00004312064C4F20101086820F4403008603C
:1007F0000A6894E809101A43D4F810E00A604168C6
:10080000012321F4807141604168C0F6007341EA20
:100810000E214160416821F040714160416841EA28
:100820000C014160816821F400618160E1688268A7
:1008300011438160A16A8268994222F070628260ED
:10084000826813D122F0405119E000BF204600F029
:1008500067F80020606484F83C00206CC006B9D5BD
:100860000120002184F83C1010BD00BF11438160BD
:10087000816821F040518160E16A826811438160A2
:10088000816821F0020181608168227E94F8203025
:1008900041EA42018160416883B141F400614160F5
:1008A00041684EF2000221F460414160616ACFF676
:1008B000FF72436802EB4131194301E021F400610A
:1008C0004160C16A40F2000C21F47001C162E2692A
:1008D0006169CFF6F07CC36A0CEB02521A43C26224
:1008E000826822F40072826094F83020836843EAC0
:1008F00042228260826822F480628260826842EAD8
:100900008121816000206064216C012262F3010179
:100910002164002184F83C1010BD000070470000E5
:1009200070B586B0044642F200002168C4F20100AE
:10093000002681420596049602D006B070BD00BF25
:1009400043F630010096C4F202014A6900F56040A6
:1009500042F480724A614A6902F480720092009AFD
:1009600000960A6842F001020A60096801F001017C
:1009700000910099222101910321CDE9021601A9DC
:1009800000F0F6FA40F2201546F21040C2F20005DF
:10099000C4F202004FF48061C5E9000605F11000C1
:1009A0004FF400624FF400534FF4807C80E80E1047
:1009B0004FF44030C5E908062846C5E9026600F054
:1009C000C1F9002818BFFFF75BFD122000210022AB
:1009D000A563AC6300F02AFC122000F013FC06B003
:1009E00070BD0000B0B582B004460020019094F8BC
:1009F0003C00012802D1022002B0B0BD94460A4654
:100A00000120216884F83C008868C00729D18868E3
:100A10004DF6836540F00100886040F20800C2F2A4
:100A200000000068C4F21B35A0FB0505A80C00EB14
:100A3000400001900198A0B10198013801900198FF
:100A400078B1019801380190019850B101980138AE
:100A50000190019828B1019801380190019800286F
:100A6000EAD18868C00503D5886820F48070886062
:100A70008D68206CED0709D140F010002064606C97
:100A800040F001006064002002B0B0BD40F201758A
:100A9000A84300F5807020644868400504D5206CA8
:100AA000012565F30D302064256C0020ED044FF026
:100AB000000544BF656C25F00605656484F83C00BC
:100AC000A06B40F2D53540F25943C0F60005C0F6A0
:100AD0000003C0E90F5340F24543C0F60003C3646E
:100AE0006FF022030B604B6842F2080543F080630D
:100AF0004B608B68C4F2010543F480738B604C310A
:100B0000634600F0D1F9D5F8FC122068C9060FD071
:100B1000A5F108018842B6D1286810F0405FB2D133
:100B2000286840F080402860002002B0B0BD00BFBF
:100B300042F20001C4F20101884217D042F20021C2
:100B4000C4F2010188420DD042F20011C4F2010149
:100B5000884298D1D5F8FC12C90607D005F5FC717A
:100B6000884290D1D5F8FC12C9068CD4816811F066
:100B7000405F7FF488AF816841F080418160002050
:100B800002B0B0BDF0B581B004460020009040F244
:100B90000800C2F200000268D4E9166048F2B513FA
:100BA00037680821C1F64E3381403942A2FB032544
:100BB0000CD0226813685B0708D5136823F0040380
:100BC0001360B160616D41F00101616501218140F7
:100BD000394208D022685269120604D5B160616DAD
:100BE00041F00201616504218140394208D0226848
:100BF0001268920704D5B160616D41F0040161652E
:100C000010218140394217D020680268120713D59D
:100C1000B16002680168520308D4C90508D40168AC
:100C200021F008010160216C21B905E008033FD4DF
:100C3000216C09B120468847E16D202000FA01F2BD
:100C40003A4241D020680368DB063DD5B26094F893
:100C500035300268052B1BD122F016020260426972
:100C600022F080024261226C0AB9A26C1AB10268B9
:100C700022F0080202603F208840B060012084F822
:100C80003500216D0020002984F8340052D157E04E
:100C90000168520310D4C90512D4016821F0100173
:100CA0000160012084F83500002084F8340007E05A
:100CB000A16C0029BED1BFE7080301D4616C00E03C
:100CC000E16B09B120468847606DC8B3606DC0070D
:100CD0002ED0052084F835002068A90A026822F089
:100CE00001020260009A01328A4200921AD8026818
:100CF000D20717D0009A01328A42009212D80268B5
:100D0000D2070FD0009A01328A4200920AD80268B4
:100D1000D20707D0009A01328A42009202D80268B4
:100D2000D207DFD1012084F83500002084F8340098
:100D3000E16C29B1204601B0BDE8F040084700BF92
:100D400001B0F0BD2DE9F041044600F0EBF9ECB143
:100D50000546022084F835000020216884F834001C
:100D6000086820F00100086021680868C00711D0F9
:100D700000F0D8F9401B0528F6D9032520230320CD
:100D8000636584F83550BDE8F08100BF0120BDE8FF
:100D9000F08100BF086848F23F02CFF21002D4E9A8
:100DA000013500EA020C04F10C0898E8C10143EA9D
:100DB0000C032B431843D4E9072E30433843104328
:100DC000626A40EA0E00042A40EA08031CD1206B44
:100DD000D4E90A2E40EA0E00184308604869BEF1C3
:100DE000000F20F0030040EA020040F0040C11D094
:100DF000B8F5005F36D0B8F1000F45D1022A46D0D1
:100E0000012A3BD032B942E00B60486920F007006C
:100E100040EA020C01F0F8004AF6AB221038CAF69C
:100E2000AA22A0FB02231A0941F64C63C0F6000374
:100E30009A5C40F2FF335F284FF03F00C1F814C0C6
:100E400021EA030100FA02F088BF0431C4E9161256
:100E50008860002301250020636584F83550BDE8D3
:100E6000F08100BF032AD5D8012540230120DFE807
:100E700002F0030E030500BF82E700BFAEF1C070B1
:100E8000B0FA80F0400904E0032A04D3C2D1CEF3C3
:100E900000600028BED0012540230120636584F84E
:100EA0003550BDE8F081000070B590F834C0BCF159
:100EB000010F46D04FF0010C80F834C0D0F858E054
:100EC00090F835C0BCF1010F38D14FF0020C80F81A
:100ED00035C04FF0000CC0F854C0D0F800C0846892
:100EE000056CC06DDCF80060402C26F48026CCF840
:100EF0000060CCF804300B4604BF13460A463F217D
:100F000001FA00F0CCF80830CCF80C20CEF808003C
:100F1000DCF8000040F01600CCF800002DB1DCF841
:100F2000000040F00800CCF80000DCF8000040F0C1
:100F30000100CCF80000002070BD00BF002180F847
:100F40003410022070BD0000B0B5044600F0EAF88D
:100F5000054640F20000C2F200000078611C18BF94
:100F6000044400BF00F0DEF8401BA042FAD3B0BD3D
:100F70002DE9F04F82B000F13E4241F6004502F10A
:100F8000FF77C4F20205082243F6004E4FEAB72667
:100F9000A84208BF0722C4F2010E072E38BF4FEA4D
:100FA000B7220125002600274FF00008009208E034
:100FB00008F101080437B8F1100F06F1020600F03D
:100FC000A7800C6805FA08F914EA090FF0D0D1F8E7
:100FD00004B003220BF0030CACF10104B240012C6D
:100FE0006FEA020A10D88268CC6802EA0A02B440AA
:100FF000224382604268CBF3001422EA090204FA19
:1010000008F42243426005E0BCF1030F02D14FF027
:10101000030C20E0C2688C6802EA0A02B440224352
:10102000BCF1020FC26016D16FF0030202EA58024F
:101030000244D2F820C007F01C050F230C69AB4016
:101040002CEA030304FA05F52B431362D1F804B02C
:1010500001250BF0030C02680CFA06F302EA0A02FF
:101060001A431BF4403F0260A2D0002243F644031F
:101070000192C4F202031A684FF6084C42F480420F
:101080001A601A68CFF6FF7C02F480420192019A3E
:1010900028F00302724452F80C3007F00C050F24BC
:1010A000AC40A343009C04FA05F52B4342F80C30F6
:1010B000DEF808204B6842EA090543F60C4CDC02D6
:1010C00058BF22EA0905CEF80850C4F2010CDCF83A
:1010D00000209C0242EA090558BF22EA0905CCF823
:1010E0000050DEF804209C0342EA090558BF22EABA
:1010F0000905CEF80450DEF80020DB0342EA0905BA
:1011000058BF22EA0905CEF80050012550E700BF7C
:1011100002B0BDE8F08F0000002A08BF0904816119
:101120007047000040F28010C2F200000068704773
:1011300040F2000040F28011C2F20000C2F2000151
:1011400000780A68104408607047000080B543F6D4
:101150000040C4F20200016841F4007101600168BE
:1011600041F480610160016841F4807101600320F5
:1011700000F088F80F2000F005F800F027F80020B4
:1011800080BD000070B540F20006C2F2000640F2D9
:1011900008013278C2F200014FF47A730968B3FB98
:1011A000F2F20446B1FBF2F1084600F043FB0F2CCB
:1011B0004FF0010508D838B94FF0FF302146002222
:1011C000002500F033F87460284670BD82B000201E
:1011D00043F640010190C4F202014A6842F48042A1
:1011E0004A604A6802F480420192019A00900868BD
:1011F00040F080500860086800F08050009000982F
:1012000002B07047002848BF7047C1B200F01F000D
:10121000012202FA00F04EF20012CEF2000242EA7F
:10122000D10121F0030108607047000010B54EF6AF
:101230000C5CCEF2000CDCF80030C3F3022E8EF012
:101240000704042C28BF0424BEF103034FF0FF3E23
:101250000EFA04F438BF0023A14399400EFA03F3B9
:101260009A43114300F00F0200F160430901043A70
:1012700003F564436244002848BF02F10C0319706F
:1012800010BD00004EF60C51CEF200010A684FF678
:10129000FF031A4060F30A2242F0806040F0FD70C4
:1012A000086070472DE9F041002800F08B8043F67C
:1012B0000808C4F202080446D8F8F8030D4600F006
:1012C0000700884207D288F8F853D8F8F80300F0EE
:1012D0000700A84276D12068810717D5410705D5B8
:1012E000D8F8001041F4E051C8F80010010705D506
:1012F000D8F8001041F46041C8F80010D8F8001088
:10130000A26821F0F0011143C8F80010C0073FD1D6
:10131000D8F8F80300F00700A84207D988F8F85376
:10132000D8F8F80300F00700A8424BD12068410725
:1013300007D5D8F80010E26821F4E0511143C8F84D
:101340000010000708D5D8F80000216920F460409B
:1013500040EAC100C8F8000000F07CF8D8F800109E
:1013600041F63462C1F30311C0F60002515C40F251
:10137000080220FA01F140F20400C2F20000006805
:10138000C2F200021160FFF7FDFE0020BDE8F0810F
:101390006068811E022907D258F8081C89015CBFC9
:1013A0000120BDE8F08111E0012807D158F8081CA0
:1013B00089035CBF0120BDE8F08107E058F8081CF4
:1013C000890703D40120BDE8F08100BFD8F80010E0
:1013D00021F003010843C8F80000FFF7A3FE06460A
:1013E00041F28837D8F80000616800F00C00B0EBDB
:1013F000810F8DD0FFF796FE801BB842F2D90320F3
:10140000BDE8F08140F2080043F60801C2F2000096
:10141000C4F202010068096841F64462C1F3822106
:10142000C0F60002515CC8407047000040F208005E
:1014300043F60801C2F20000C4F202010068096824
:1014400041F64462C1F34231C0F60002515CC8402B
:101450007047000010B543F60404C4F2020460684B
:1014600000F00C0008280BD0042819BF42F20040FD
:10147000C0F2F40047F64000C0F27D1010BD00BF7E
:10148000206821682368490247F64001C0F27D11B7
:1014900000F03F02C3F388105CBF42F20041C0F28B
:1014A000F401A1FB00010023FEF7DEFE2168022209
:1014B000C1F3014102EB4101B0FBF1F010BD0000AE
:1014C0002DE9F04182B0002868D00446007843F648
:1014D0000006C007C4F202060BD0B06800F00C0092
:1014E000042840F09F803068800302D5606800289F
:1014F00054D0207880071AD5B06810F00C0F09D0AE
:10150000B06800F00C00082840F0A6807068400227
:1015100000F1A2803068800702D5E06801283DD143
:101520003068216920F0F80040EAC100306020787E
:10153000000737D4207840074CD4A56955B3B0686C
:1015400000F00C00082840F0BB80012D26D0706808
:10155000E16900F480028A4220D1216A00F03F0252
:101560008A421BD147F6C071626A0140B1EB821F0B
:1015700014D1A16A4FF6FF73C903994300F44032B6
:10158000A1F580318A4209D1E16A00F07060B0EBC8
:10159000016F03D1002002B0BDE8F081012002B04C
:1015A000BDE8F0816069002840F20000C4F24720E5
:1015B00076D00121C0F8801EFFF7B4FD054600BFBC
:1015C000706F8007B6D4FFF7ADFD401B0228F7D936
:1015D000DDE000BF306C10F080580AD1002001908F
:1015E000306C40F080503064306C00F080500190DE
:1015F000019847F20007C4F200073868C00541D4DB
:10160000386840F480703860FFF78CFD054600BFF5
:101610003868C00536D4FFF785FD401B0228F7D98E
:10162000B5E000BFB06800F00C00082803D1706876
:1016300040023FF558AF6068B0F5803F07D0B0F585
:10164000A02F40F08D80306840F4802030603068FA
:1016500040F4803030608DE0E068002852D00020F7
:10166000C4F2472001210160FFF75CFD054600BF81
:10167000306880073FF554AFFFF754FD401B022848
:10168000F6D984E0A068012805D005284ED1306F36
:1016900040F004003067306F40F0010030674FE0E9
:1016A0000021C0F8801EFFF73DFD0546706F8007E2
:1016B0007FF540AFFFF736FD401B0228F6D966E004
:1016C0000027C4F2472700203866FFF72BFD022DC4
:1016D00005460BD1306880015ED5FFF723FD401B26
:1016E00002284FF00300F5D955E700BF30688001AC
:1016F0007FF550AFFFF716FD401B02284FF00300A7
:10170000F4D948E70020C4F2472000210160FFF728
:1017100009FD0546306880077FF509AFFFF702FD38
:10172000401B02284FF00300F4D934E7316F002842
:1017300021F001013167316F21F0040131674DD093
:10174000FFF7F0FC054641F2883700BF306F800795
:1017500056D4FFF7E7FC401BB842F7D917E000BFAB
:101760003168002821F480313160316821F4802112
:1017700031604FD0FFF7D6FC054600BF30688003CC
:101780003FF5B7AEFFF7CEFC401B6428F6D9032027
:1017900002B0BDE8F08100BF04F11C052FCD084365
:1017A00040EA8210D9034FF6FF729143A1F58031D0
:1017B00040EA05600843706001203866FFF7B2FC1C
:1017C000044600BF306880013FF5E4AEFFF7AAFC95
:1017D000001B02284FF00300F4D9DCE6FFF7A2FC5F
:1017E000054641F2883700BF306F800708D5FFF704
:1017F00099FC401BB8424FF00300F5D9CBE600BF7F
:10180000B8F1000F7FF499AE306C20F08050306456
:1018100093E600BFFFF786FC054600BF30688003F3
:101820007FF567AEFFF77EFC401B64284FF0030096
:10183000F4D9B0E6411E0020B0EB116F1CBF0120AF
:1018400070474EF21002CEF2000251604EF6235164
:10185000CEF20001F0230B700721906011607047F9
:10186000002804BF0120704710B5044690F84100DD
:1018700028B9002084F84000204600F021F82420F8
:1018800084F841002068C16821F40051C1602046FD
:1018900000F072F92068016921F490410161416909
:1018A00021F02A014161C16841F40051C16000206A
:1018B0002021606484F8411084F84210606310BDF8
:1018C00080B586B0016844F20040C4F20000814255
:1018D00002D006B080BD00BF002143F63002019166
:1018E000C4F20202136900F5DE3043F400331361E1
:1018F000136903F400330193019B0191136843F0D2
:1019000001031360126802F001020192019A0C2295
:1019100001920222CDE902210321049107210591C0
:1019200001A9FFF725FB06B080BD00002DE9F041BD
:10193000044690F8410020281CBF0220BDE8F08139
:101940000D4600294FF0010000F0AA801646002A3B
:1019500008BFBDE8F081002060642120984684F82B
:101960004100FFF7DFFBA684E684A1680646B1F5D7
:10197000805F02D12069002862D02F460025E08CCC
:10198000002861D018F1010018D0B8F1000F37D14C
:10199000216808E017F8010B4860E08C0138E0840A
:1019A000E08C002851D00868000673D5002FF1D1D3
:1019B00035F8020B00276FF35F20EDE7216802E0A6
:1019C0000868000609D40868000606D408680006FE
:1019D0005CBF08685FEA0060F2D51FB117F8010B21
:1019E00005E000BF35F8020B00276FF35F20486069
:1019F000E08C0138E084E08C0028E4D125E000BFD1
:101A0000216800BF0868000608D4FFF78BFB801B25
:101A1000404541D82168C868F4E700BF17B117F8FE
:101A2000010B04E035F8020B00276FF35F204860DC
:101A3000E08C0138E084E08C0028E3D105E000BFB1
:101A40000027E08C00289DD12168086840061FD43B
:101A5000B8F1000F1ED018F101000FD10868400640
:101A600016D40868400613D40868400610D40868E5
:101A700040064FF00000F1D50FE000BFFFF752FB2A
:101A8000801B404508D82068C16800684006F5D52D
:101A9000002002E0FFF746FB0320202184F84110DC
:101AA000BDE8F081FEE70000FEE70000FEE7000071
:101AB0007047000070470000FFF73ABBB0B592B026
:101AC000002443F640000B94CDE90944CDE90744D6
:101AD0000594CDE90344CDE901440094C4F2020029
:101AE0000168022541F080510160006800F08050DB
:101AF0000090009847F200000094C4F200000168D2
:101B000041F480410160006800F48040009000983A
:101B10000120099010200A9008200E906020CDE945
:101B20000F050420119006A80695CDE90C54FFF787
:101B3000C7FC18B172B600BFFEE700BF0F20CDE9A9
:101B400001054FF4A05004904FF48050059001A877
:101B500003210394FFF7A6FB10B172B6FEE700BFA6
:101B600012B0B0BD4EF68850CEF20000016841F4CC
:101B7000700101607047000010B504460068D4E9A8
:101B800002C22369016921F4405111430161626974
:101B900043EA0C01E3691143C268194349F20C633B
:101BA0009A431143C1604169A26921F4407141F235
:101BB0000043114340F48062C4F201039A42416140
:101BC00002D1FFF733FC01E0FFF71CFCE169636819
:101BD0001922B1F5004FA0FB020123D15A00DB0FFF
:101BE000FEF742FB48F21F51C5F2EB11A0FB0123A7
:101BF0005A094FF69C73C0F6FF7303F1805302FB42
:101C00000300322303EBC000A0FB01014FF4F87086
:101C100000EA111000EB0210C1F3421108442168E0
:101C2000886010BD9A009B0FFEF71EFB48F21F5103
:101C3000C5F2EB11A0FB01235A094FF69C73C0F6C5
:101C4000FF7302FB0300322303EB0010A0FB010132
:101C5000F02000EA511000EB0210C1F343110844D8
:101C60002168886010BD0000FEE7000086B040F6E5
:101C70000044C4F20204FFF769FAFFF71FFF0025D2
:101C800043F6300705950095C4F2020738684FF413
:101C9000704140F0010038603868002200F0010017
:101CA00000900098009538684FF4704640F00800A6
:101CB0003860386800F00800009000982046FFF770
:101CC0002BFA0196012601A92046CDE9026504956B
:101CD000FFF74EF901953868002140F48000386024
:101CE0003868002200F48000019001983820FFF746
:101CF0009DFA3820FFF786FA40F2D8000122C2F29E
:101D00000000C0F60072A4F56C41C0E90A25042267
:101D10000495067680F82050C26180F83060C0E9F2
:101D20000015C0E90255C0E90466FEF747FD18B189
:101D300072B600BFFEE700BF1120CDE90106072003
:101D4000039040F2D800C2F2000001A9FEF79EFB0A
:101D500010B172B6FEE700BF012001900220029090
:101D600040F2D800C2F2000001A9FEF78FFB18B1C3
:101D700072B600BFFEE700BF05200190032002906D
:101D800040F2D800C2F2000001A9FEF77FFB18B1B3
:101D900072B600BFFEE700BF102001900420029041
:101DA00040F2D800C2F2000001A9FEF76FFB18B1A3
:101DB00072B600BFFEE700BF40F27005C2F2000538
:101DC000A4F5E431284640F8201F4FF416510022B4
:101DD0000C23C0E90112C0E90322C0E90532C26147
:101DE000FFF73EFD10B172B6FEE700BF05F1180423
:101DF00040F2D800C2F2000021460422FEF7F2FDB4
:101E0000203500BF4FF47A70FFF79EF82846214630
:101E100008226423FFF78AFDF4E7F1EE100A4FF67B
:101E2000FF71C0F2C03120EA010040F04070E1EEE5
:101E3000100A7047000000000000000001020304C7
:101E4000060708090000000001020304000610163E
:101E500000061016781E0008000000201000000088
:101E6000C4010008881E0008100000207807000048
:101E7000E001000800000000010000001000000068
:081E80000024F4000000000042
:040000050800018965
:00000001FF
