:020000040800F2
:10000000C806002029020008190F0008110F000877
:10001000150F0008210400088511000800000000E9
:10002000000000000000000000000000210F000898
:1000300025040008000000001D0F0008250F00081F
:10004000430200084302000843020008430200087C
:10005000430200084302000843020008430200086C
:10006000430200084302000843020008430200085C
:10007000430200084302000843020008430200084C
:10008000430200084302000843020008430200083C
:10009000430200084302000843020008430200082C
:1000A000430200084302000843020008430200081C
:1000B000430200084302000843020008430200080C
:1000C00043020008430200084302000843020008FC
:1000D00043020008430200084302000843020008EC
:1000E00043020008430200084302000843020008DC
:1000F00043020008430200084302000843020008CC
:1001000043020008430200084302000843020008BB
:1001100043020008430200084302000843020008AB
:10012000430200084302000843020008430200089B
:10013000430200084302000843020008430200088B
:10014000430200084302000843020008430200087B
:10015000430200084302000843020008430200086B
:10016000430200084302000843020008430200085B
:100170004302000843020008430200080000000098
:10018000430200084302000800F002F800F03CF8C7
:100190000AA090E8000C82448344AAF10107DA45E2
:1001A00001D100F031F8AFF2090EBAE80F0013F0F8
:1001B000010F18BFFB1A43F0010318471C11000080
:1001C0003C110000103A24BF78C878C1FAD8520711
:1001D00024BF30C830C144BF04680C6070470000C1
:1001E0000023002400250026103A28BF78C1FBD840
:1001F000520728BF30C148BF0B6070471FB501F0E0
:1002000056F81FBD10B510BD00F0D0F81146FFF72D
:10021000F5FF00F0B9FF00F0EEF803B4FFF7F2FFCE
:1002200003BC00F0F5F80000094880470948004782
:10023000FEE7FEE7FEE7FEE7FEE7FEE7FEE7FEE796
:10024000FEE7FEE704480549054A064B70470000F3
:10025000290F000889010008C8000020C8060020F6
:10026000C8020020C802002053EA020C00F0698096
:100270002DE9F04B4FF00006002B1FBFB3FA83F5BA
:1002800003FA05F424FA05F65E4012BF1643B2FAEB
:1002900082F502FA05F4C5F120051EBF22FA05FC1D
:1002A00044EA0C04203556EA044C4FEA144418BFC3
:1002B000641C4FF000084FF00009904271EB030CF2
:1002C00039D3002919BFB1FA81F701FA07F6B0FA5C
:1002D00080F700FA07F6C7F120071EBF20FA07FCD7
:1002E00046EA0C062037B6FBF4FCA7EB0507103FE7
:1002F00007F01F0BCBF120062CFA06F60CFA0BFBCD
:1003000044BFB3460026202FA4BF5E464FF0000B2B
:100310005BEA060C08BF4FF0010B19EB0B0948EB29
:100320000608ABFB027C06FB02CC0BFB03CCC01B1C
:1003300071EB0C01C1E70B46024641464846BDE859
:10034000F08B13B5084318BF4FF0FF300146AFF3F1
:100350000080BDE81C4070474FF0000200B5134616
:1003600094469646203922BFA0E80C50A0E80C50D5
:10037000B1F12001BFF4F7AF090728BFA0E80C5086
:1003800048BF0CC05DF804EB890028BF40F8042B7F
:1003900008BF704748BF20F8022B11F0804F18BFEC
:1003A00000F8012B7047704770477047754600F0A2
:1003B0002BF8AE4605006946534620F007008546F7
:1003C00018B020B5FFF73EFFBDE820404FF0000613
:1003D0004FF000074FF000084FF0000BAC46ACE8C0
:1003E000C009ACE8C009ACE8C009ACE8C00921F01C
:1003F00007018D46704710B50446AFF300802046D4
:10040000BDE81040FFF709BF00487047100000200A
:1004100001491820ABBEFEE726000200704700002D
:10042000FEE70000704700002DE9F04F82B000F1B8
:100430003E4241F6004502F1FF77C4F20205082270
:1004400043F6004E4FEAB726A84208BF0722C4F27F
:10045000010E072E38BF4FEAB722012500260027DC
:100460004FF00008009208E008F101080437B8F1E5
:10047000100F06F1020600F0A7800C6805FA08F9D3
:1004800014EA090FF0D0D1F804B003220BF0030CEA
:10049000ACF10104B240012C6FEA020A10D8826864
:1004A000CC6802EA0A02B440224382604268CBF37D
:1004B000001422EA090204FA08F42243426005E02B
:1004C000BCF1030F02D14FF0030C20E0C2688C682E
:1004D00002EA0A02B4402243BCF1020FC26016D104
:1004E0006FF0030202EA58020244D2F820C007F07B
:1004F0001C050F230C69AB402CEA030304FA05F535
:100500002B431362D1F804B001250BF0030C0268F1
:100510000CFA06F302EA0A021A431BF4403F026097
:10052000A2D0002243F644030192C4F202031A68E7
:100530004FF6084C42F480421A601A68CFF6FF7CEE
:1005400002F480420192019A28F00302724452F8A8
:100550000C3007F00C050F24AC40A343009C04FAB8
:1005600005F52B4342F80C30DEF808204B6842EAD0
:10057000090543F60C4CDC0258BF22EA0905CEF807
:100580000850C4F2010CDCF800209C0242EA090584
:1005900058BF22EA0905CCF80050DEF804209C037D
:1005A00042EA090558BF22EA0905CEF80450DEF8F0
:1005B0000020DB0342EA090558BF22EA0905CEF80C
:1005C0000050012550E700BF02B0BDE8F08F0000E9
:1005D0000069084018BF01207047000040F2C000C9
:1005E000C2F200000068704740F2000040F2C00113
:1005F000C2F20000C2F2000100780A6810440860EC
:100600007047000080B543F60040C4F20200016864
:1006100041F400710160016841F48061016001688A
:1006200041F480710160032000F074F80F2000F0A5
:1006300005F800F027F8002080BD000070B540F2FA
:100640000006C2F2000640F208013278C2F2000150
:100650004FF47A730968B3FBF2F20446B1FBF2F18E
:10066000084600F007FB0F2C4FF0010508D838B9F9
:100670004FF0FF3021460022002500F01FF8746083
:10068000284670BD82B0002043F640010190C4F2BC
:1006900002014A6842F480424A604A6802F4804299
:1006A0000192019A0090086840F080500860086844
:1006B00000F080500090009802B0704710B54EF6E0
:1006C0000C5CCEF2000CDCF80030C3F3022E8EF08E
:1006D0000704042C28BF0424BEF103034FF0FF3E9F
:1006E0000EFA04F438BF0023A14399400EFA03F335
:1006F0009A43114300F00F0200F160430901043AEC
:1007000003F564436244002848BF02F10C031970EA
:1007100010BD00004EF60C51CEF200010A684FF6F3
:10072000FF031A4060F30A2242F0806040F0FD703F
:10073000086070472DE9F041002800F08B8043F6F7
:100740000808C4F202080446D8F8F8030D4600F081
:100750000700884207D288F8F853D8F8F80300F069
:100760000700A84276D12068810717D5410705D533
:10077000D8F8001041F4E051C8F80010010705D581
:10078000D8F8001041F46041C8F80010D8F8001003
:10079000A26821F0F0011143C8F80010C0073FD152
:1007A000D8F8F80300F00700A84207D988F8F853F2
:1007B000D8F8F80300F00700A8424BD120684107A1
:1007C00007D5D8F80010E26821F4E0511143C8F8C9
:1007D0000010000708D5D8F80000216920F4604017
:1007E00040EAC100C8F8000000F054F8D8F8001042
:1007F00041F2C822C1F30311C0F60002515C40F27D
:10080000080220FA01F140F20400C2F20000006880
:10081000C2F200021160FFF711FF0020BDE8F08175
:100820006068811E022907D258F8081C89015CBF44
:100830000120BDE8F08111E0012807D158F8081C1B
:1008400089035CBF0120BDE8F08107E058F8081C6F
:10085000890703D40120BDE8F08100BFD8F800105B
:1008600021F003010843C8F80000FFF7B7FE064671
:1008700041F28837D8F80000616800F00C00B0EB56
:10088000810F8DD0FFF7AAFE801BB842F2D903205A
:10089000BDE8F08110B543F60404C4F202046068B8
:1008A00000F00C0008280BD0042819BF42F20040C9
:1008B000C0F2F40047F64000C0F27D1010BD00BF4A
:1008C000206821682368490247F64001C0F27D1183
:1008D00000F03F02C3F388105CBF42F20041C0F257
:1008E000F401A1FB00010023FFF7BEFC21680222F6
:1008F000C1F3014102EB4101B0FBF1F010BD00007A
:100900002DE9F04182B0002868D00446007843F613
:100910000006C007C4F202060BD0B06800F00C005D
:10092000042840F09F803068800302D5606800286A
:1009300054D0207880071AD5B06810F00C0F09D079
:10094000B06800F00C00082840F0A68070684002F3
:1009500000F1A2803068800702D5E06801283DD10F
:100960003068216920F0F80040EAC100306020784A
:10097000000737D4207840074CD4A56955B3B06838
:1009800000F00C00082840F0BB80012D26D07068D4
:10099000E16900F480028A4220D1216A00F03F021E
:1009A0008A421BD147F6C071626A0140B1EB821FD7
:1009B00014D1A16A4FF6FF73C903994300F4403282
:1009C000A1F580318A4209D1E16A00F07060B0EB94
:1009D000016F03D1002002B0BDE8F081012002B018
:1009E000BDE8F0816069002840F20000C4F24720B1
:1009F00076D00121C0F8801EFFF7F0FD054600BF4C
:100A0000706F8007B6D4FFF7E9FD401B0228F7D9C5
:100A1000DDE000BF306C10F080580AD1002001905A
:100A2000306C40F080503064306C00F080500190A9
:100A3000019847F20007C4F200073868C00541D4A6
:100A4000386840F480703860FFF7C8FD054600BF85
:100A50003868C00536D4FFF7C1FD401B0228F7D91E
:100A6000B5E000BFB06800F00C00082803D1706842
:100A700040023FF558AF6068B0F5803F07D0B0F551
:100A8000A02F40F08D80306840F4802030603068C6
:100A900040F4803030608DE0E068002852D00020C3
:100AA000C4F2472001210160FFF798FD054600BF11
:100AB000306880073FF554AFFFF790FD401B0228D8
:100AC000F6D984E0A068012805D005284ED1306F02
:100AD00040F004003067306F40F0010030674FE0B5
:100AE0000021C0F8801EFFF779FD0546706F800772
:100AF0007FF540AFFFF772FD401B0228F6D966E094
:100B00000027C4F2472700203866FFF767FD022D53
:100B100005460BD1306880015ED5FFF75FFD401BB5
:100B200002284FF00300F5D955E700BF3068800177
:100B30007FF550AFFFF752FD401B02284FF0030036
:100B4000F4D948E70020C4F2472000210160FFF7F4
:100B500045FD0546306880077FF509AFFFF73EFD8C
:100B6000401B02284FF00300F4D934E7316F00280E
:100B700021F001013167316F21F0040131674DD05F
:100B8000FFF72CFD054641F2883700BF306F800724
:100B900056D4FFF723FD401BB842F7D917E000BF3A
:100BA0003168002821F480313160316821F48021DE
:100BB00031604FD0FFF712FD054600BF306880035B
:100BC0003FF5B7AEFFF70AFD401B6428F6D90320B6
:100BD00002B0BDE8F08100BF04F11C052FCD084331
:100BE00040EA8210D9034FF6FF729143A1F580319C
:100BF00040EA05600843706001203866FFF7EEFCAC
:100C0000044600BF306880013FF5E4AEFFF7E6FC24
:100C1000001B02284FF00300F4D9DCE6FFF7DEFCEE
:100C2000054641F2883700BF306F800708D5FFF7CF
:100C3000D5FC401BB8424FF00300F5D9CBE600BF0E
:100C4000B8F1000F7FF499AE306C20F08050306422
:100C500093E600BFFFF7C2FC054600BF3068800383
:100C60007FF567AEFFF7BAFC401B64284FF0030026
:100C7000F4D9B0E6411E0020B0EB116F1CBF01207B
:100C800070474EF21002CEF2000251604EF6235130
:100C9000CEF20001F0230B700721906011607047C5
:100CA00010B590F83C20012A4FF0020251D080F894
:100CB0003D200268D2F804E0D2F808C00C682EF09B
:100CC0007003234341F2FF74C4F20004A242536054
:100CD0000EDC40F2FF73C4F200039A4216DCB2F15C
:100CE000804F2BD040F20043C4F2000324E000BF49
:100CF00040F2FF33C4F201039A4213DC41F60003D1
:100D0000C4F200039A4219D0002313E040F6000316
:100D1000C4F200039A4211D040F60043C4F200032B
:100D20000AE000BF44F20003C4F201039A4205D076
:100D300040F20043C4F201039A4204D149682CF006
:100D40008003194391600121002280F83D1080F852
:100D50003C20104610BD0000002804BF0120704751
:100D600010B5044690F83D0028B9002084F83C00F6
:100D7000204600F01FF8022084F83D002068211D65
:100D800000F0DCF8012084F8460084F83E0084F886
:100D90003F0084F8400084F8410084F8420084F861
:100DA000430084F8440084F8450084F83D000020A6
:100DB00010BD000080B586B00068B0F1804F01D052
:100DC00006B080BD002043F630010190C4F202015C
:100DD0000A6942F001020A610A6902F00102019205
:100DE000019A01900A6842F001020A600968022231
:100DF00001F00101019101990121CDE90220CDE924
:100E0000040100200191C4F2020001A9FFF70CFBCC
:100E100006B080BD90F83D1001291CBF012070472D
:100E2000022180F83D10006841F2FF71C4F2000118
:100E300088420DDC40F2FF71C4F20001884215DCEB
:100E4000B0F1804F2AD040F20041C4F2000123E00B
:100E500040F2FF31C4F20101884213DC41F6000187
:100E6000C4F20001884219D0002113E040F60001CD
:100E7000C4F20001884211D040F60041C4F20001E2
:100E80000AE000BF44F20001C4F20101884205D02B
:100E900040F20041C4F20101884206D1816801F0AC
:100EA0000701062904BF00207047016841F00101D5
:100EB0000160002070470000B0B5044690F83C0087
:100EC00001284FF0020008BFB0BD012584F83C5056
:100ED00084F83D00204600F0D7F800284FF00100CC
:100EE00006D0002184F83D5084F83C10B0BD00BF0E
:100EF0002068C16821F04001C160C16821F48041CF
:100F0000C1600020002184F83D5084F83C10B0BD41
:100F1000FEE70000FEE70000FEE70000704700006B
:100F200070470000FFF760BB4EF68850CEF200001D
:100F3000016841F4700101607047000010B540F68F
:100F4000FF3E0368C4F2000E40F2004C7045C4F24C
:100F5000010C27DCB0F1804F31D040F20042C4F2E6
:100F6000000290422BD040F60002C4F200029042F0
:100F700025D041F6FF72C4F20002904229DC704590
:100F80003CDCB0F1804F5FD040F20042C4F200027E
:100F9000904259D040F60002C4F20002904253D071
:100FA00056E000BF40F60042C4F20002904206D074
:100FB000604504D00022C4F201029042D9D14A68AF
:100FC00023F07003134341F6FF72C4F20002904213
:100FD000D5DD43F6FF72C4F20102904222DC42F2F8
:100FE0000002C4F2000290422ED00022C4F201029C
:100FF000904229D0604527D02AE000BF40F6004249
:10100000C4F2000290421FD041F60002C4F2000276
:10101000904219D041F60042C4F20002904213D02F
:1010200016E000BF44F20002C4F2010290420BD06D
:1010300044F60002C4F20102904205D044F200429C
:10104000C4F20102904203D1CA6823F440731343EF
:1010500023F080024B69D1F800E08C681A430260EB
:10106000C46240F48062C0F828E0624504BF0969A8
:101070000163012141610169C90708BF10BD016910
:1010800021F00101016110BD80B5D0F800E0DEF86B
:101090000800D1E900C320F0770023F007021043D5
:1010A0004FEA331340EA0C00072BCEF8080009D8AA
:1010B0000020DFE803F00505050509233D5700BFC3
:1010C00080BD00BF012080BDBCF1050F04BF012021
:1010D00080BDDEF82000DEF8202022F00102CEF8EC
:1010E0002020DEF81820096922F0F00242EA0111FE
:1010F000CEF81810CEF82000002080BD886809695D
:10110000DEF82020DEF8203022F00A0223F001036E
:10111000CEF82030DEF81830104323F0F00343EA15
:101120000111CEF81810CEF82000002080BD00BFBD
:1011300088680969DEF82020DEF8203022F0A0025D
:1011400023F01003CEF82030DEF8183042EA001009
:1011500023F4704343EA0131CEF81810CEF8200092
:10116000002080BDD1E902020969DEF80830104391
:1011700023F47F4340EA01201843CEF80800002002
:1011800080BD0000FEE7000094B043F6300647F251
:101190000005C4F20206C4F20005FFF733FA08ACFA
:1011A000201D2C21FFF7D8F800270697CDE90477FA
:1011B000CDE902770197306940F0805030613069A5
:1011C00000F08050019001980197286840F4804019
:1011D0002860286800F4804001900198022008905F
:1011E00001200B9010200C9020460E97FFF788FBF3
:1011F00010B172B6FEE700BF0F20CDE9020702A8CA
:101200000021CDE904770697FFF794FA10B172B682
:10121000FEE700BF0024089430684FF0804140F0A2
:1012200001003060306840F2700600F00100089064
:101230000898C2F20006304640F8081F4FF47A7151
:101240000B94CDE90244C0E90144C0E90314846170
:10125000FFF782FD10B172B6FEE700BF07200890CD
:101260005020CDE909040F2006F108040C9008A9CC
:101270002046FFF721FE18B172B600BFFEE700BF9F
:1012800002A92046FFF70CFD10B172B6FEE700BFC1
:101290002046FFF7BFFD05F5C83400BF20460121F9
:1012A000FFF796F9B168496AC6E90010F6E7F1EE72
:1012B000100A4FF6FF71C0F2C03120EA010040F081
:1012C0004070E1EE100A70470000000000000000CE
:1012D0000102030406070809F812000800000020B4
:1012E00010000000C40100080813000810000020CE
:1012F000B8060000E0010008010000001000000036
:081300000024F40000000000CD
:040000050800018965
:00000001FF
