:020000040800F2
:100000007806002029020008D50A0008CD0A000859
:10001000D10A0008D5030008A90B00080000000061
:10002000000000000000000000000000E10A0008DD
:10003000D903000800000000DD0A0008E50A0008F6
:10004000430200084302000843020008430200087C
:10005000430200084302000843020008430200086C
:10006000430200084302000843020008430200085C
:10007000430200084302000843020008430200084C
:10008000430200084302000843020008430200083C
:10009000430200084302000843020008430200082C
:1000A000430200084302000843020008430200081C
:1000B000430200084302000843020008430200080C
:1000C00043020008430200084302000843020008FC
:1000D00043020008430200084302000843020008EC
:1000E00043020008430200084302000843020008DC
:1000F00043020008430200084302000843020008CC
:1001000043020008430200084302000843020008BB
:1001100043020008430200084302000843020008AB
:10012000430200084302000843020008430200089B
:10013000430200084302000843020008430200088B
:10014000430200084302000843020008430200087B
:10015000430200084302000843020008430200086B
:10016000430200084302000843020008430200085B
:100170004302000843020008430200080000000098
:10018000430200084302000800F002F800F03CF8C7
:100190000AA090E8000C82448344AAF10107DA45E2
:1001A00001D100F031F8AFF2090EBAE80F0013F0F8
:1001B000010F18BFFB1A43F001031847580A00004B
:1001C000780A0000103A24BF78C878C1FAD85207DC
:1001D00024BF30C830C144BF04680C6070470000C1
:1001E0000023002400250026103A28BF78C1FBD840
:1001F000520728BF30C148BF0B6070471FB500F0E1
:10020000F4FC1FBD10B510BD00F0A9F81146FFF7B2
:10021000F5FF00F0CBFC00F0C7F803B4FFF7F2FFE6
:1002200003BC00F0CFF800000948804709480047A8
:10023000FEE7FEE7FEE7FEE7FEE7FEE7FEE7FEE796
:10024000FEE7FEE704480549054A064B70470000F3
:10025000950B00088901000878000020780600202E
:10026000780200207802002053EA020C00F0698036
:100270002DE9F04B4FF00006002B1FBFB3FA83F5BA
:1002800003FA05F424FA05F65E4012BF1643B2FAEB
:1002900082F502FA05F4C5F120051EBF22FA05FC1D
:1002A00044EA0C04203556EA044C4FEA144418BFC3
:1002B000641C4FF000084FF00009904271EB030CF2
:1002C00039D3002919BFB1FA81F701FA07F6B0FA5C
:1002D00080F700FA07F6C7F120071EBF20FA07FCD7
:1002E00046EA0C062037B6FBF4FCA7EB0507103FE7
:1002F00007F01F0BCBF120062CFA06F60CFA0BFBCD
:1003000044BFB3460026202FA4BF5E464FF0000B2B
:100310005BEA060C08BF4FF0010B19EB0B0948EB29
:100320000608ABFB027C06FB02CC0BFB03CCC01B1C
:1003300071EB0C01C1E70B46024641464846BDE859
:10034000F08B13B5084318BF4FF0FF300146AFF3F1
:100350000080BDE81C407047704770477047754685
:1003600000F02CF8AE4605006946534620F0070021
:10037000854618B020B5FFF765FFBDE820404FF077
:1003800000064FF000074FF000084FF0000BAC469E
:10039000ACE8C009ACE8C009ACE8C009ACE8C009E9
:1003A00021F007018D46704710B50446AFF3008079
:1003B0002046BDE81040FFF730BF000000487047FE
:1003C0001000002001491820ABBEFEE72600020005
:1003D00070470000FEE700007047000040F2700028
:1003E000C2F200000068704740F2000040F2700165
:1003F000C2F20000C2F2000100780A6810440860EE
:100400007047000080B543F60040C4F20200016866
:1004100041F400710160016841F48061016001688C
:1004200041F480710160032000F074F80F2000F0A7
:1004300005F800F027F8002080BD000070B540F2FC
:100440000006C2F2000640F208013278C2F2000152
:100450004FF47A730968B3FBF2F20446B1FBF2F190
:10046000084600F01DFB0F2C4FF0010508D838B9E5
:100470004FF0FF3021460022002500F01FF8746085
:10048000284670BD82B0002043F640010190C4F2BE
:1004900002014A6842F480424A604A6802F480429B
:1004A0000192019A0090086840F080500860086846
:1004B00000F080500090009802B0704710B54EF6E2
:1004C0000C5CCEF2000CDCF80030C3F3022E8EF090
:1004D0000704042C28BF0424BEF103034FF0FF3EA1
:1004E0000EFA04F438BF0023A14399400EFA03F337
:1004F0009A43114300F00F0200F160430901043AEE
:1005000003F564436244002848BF02F10C031970EC
:1005100010BD00004EF60C51CEF200010A684FF6F5
:10052000FF031A4060F30A2242F0806040F0FD7041
:1005300008607047704700002DE9F041002800F086
:100540008B8043F60808C4F202080446D8F8F80382
:100550000D4600F00700884207D288F8F853D8F813
:10056000F80300F00700A84276D12068810717D56C
:10057000410705D5D8F8001041F4E051C8F8001043
:10058000010705D5D8F8001041F46041C8F8001003
:10059000D8F80010A26821F0F0011143C8F800104B
:1005A000C0073FD1D8F8F80300F00700A84207D9E8
:1005B00088F8F853D8F8F80300F00700A8424BD1A8
:1005C0002068410707D5D8F80010E26821F4E0510F
:1005D0001143C8F80010000708D5D8F800002169B9
:1005E00020F4604040EAC100C8F8000000F05AF86A
:1005F000D8F8001040F60442C1F30311C0F600021F
:10060000515C40F2080220FA01F140F20400C2F20B
:1006100000000068C2F200021160FFF70FFF002027
:10062000BDE8F0816068811E022907D258F8081CD5
:1006300089015CBF0120BDE8F08111E0012807D1EC
:1006400058F8081C89035CBF0120BDE8F08107E071
:1006500058F8081C890703D40120BDE8F08100BFC9
:10066000D8F8001021F003010843C8F80000FFF794
:10067000B5FE064641F28837D8F80000616800F000
:100680000C00B0EB810F8DD0FFF7A8FE801BB842A5
:10069000F2D90320BDE8F0814C20C4F247200121AB
:1006A0000160704710B543F60404C4F202046068A8
:1006B00000F00C0142F200400829C0F2F40007D01B
:1006C000042918BF10BD41F20020C0F27A0010BD0D
:1006D000216801F03F02216823684902C3F38811B1
:1006E00006D4A1FB00010023FFF7BEFD07E000BF19
:1006F00041F20020C0F27A004843B0FBF2F02168DA
:100700000222C1F3014102EB4101B0FBF1F010BD47
:1007100010B543F60C04C4F202042068000658BF6A
:1007200010BDFFF707FF8020A07010BD2DE9F0413C
:1007300082B0002868D00446007843F60006C0075F
:10074000C4F202060BD0B06800F00C00042840F0A0
:100750009F803068800302D56068002854D02078DC
:1007600080071AD5B06810F00C0F09D0B06800F0FF
:100770000C00082840F0A6807068400200F1A280BA
:100780003068800702D5E06801283DD130682169D2
:1007900020F0F80040EAC10030602078000737D42C
:1007A000207840074CD4A56955B3B06800F00C0020
:1007B000082840F0BB80012D26D07068E16900F464
:1007C00080028A4220D1216A00F03F028A421BD176
:1007D00047F6C071626A0140B1EB821F14D1A16A71
:1007E0004FF6FF73C903994300F44032A1F58031FD
:1007F0008A4209D1E16A00F07060B0EB016F03D169
:10080000002002B0BDE8F081012002B0BDE8F08117
:100810006069002840F20000C4F2472076D0012130
:10082000C0F8801EFFF7DAFD054600BF706F800735
:10083000B6D4FFF7D3FD401B0228F7D9DDE000BF97
:10084000306C10F080580AD100200190306C40F0DC
:1008500080503064306C00F080500190019847F275
:100860000007C4F200073868C00541D4386840F476
:1008700080703860FFF7B2FD054600BF3868C005DC
:1008800036D4FFF7ABFD401B0228F7D9B5E000BF17
:10089000B06800F00C00082803D1706840023FF5F2
:1008A00058AF6068B0F5803F07D0B0F5A02F40F09A
:1008B0008D80306840F480203060306840F48030B3
:1008C00030608DE0E068002852D00020C4F247205C
:1008D00001210160FFF782FD054600BF30688007F7
:1008E0003FF554AFFFF77AFD401B0228F6D984E0AC
:1008F000A068012805D005284ED1306F40F00400D3
:100900003067306F40F0010030674FE00021C0F8E1
:10091000801EFFF763FD0546706F80077FF540AFCF
:10092000FFF75CFD401B0228F6D966E00027C4F201
:10093000472700203866FFF751FD022D05460BD1F1
:10094000306880015ED5FFF749FD401B02284FF05B
:100950000300F5D955E700BF306880017FF550AF3F
:10096000FFF73CFD401B02284FF00300F4D948E795
:100970000020C4F2472000210160FFF72FFD05464B
:10098000306880077FF509AFFFF728FD401B02287C
:100990004FF00300F4D934E7316F002821F0010152
:1009A0003167316F21F0040131674DD0FFF716FD3B
:1009B000054641F2883700BF306F800756D4FFF7F5
:1009C0000DFD401BB842F7D917E000BF3168002881
:1009D00021F480313160316821F4802131604FD0C1
:1009E000FFF7FCFC054600BF306880033FF5B7AE5B
:1009F000FFF7F4FC401B6428F6D9032002B0BDE8E1
:100A0000F08100BF04F11C052FCD084340EA82109D
:100A1000D9034FF6FF729143A1F5803140EA05609A
:100A20000843706001203866FFF7D8FC044600BF19
:100A3000306880013FF5E4AEFFF7D0FC001B0228D0
:100A40004FF00300F4D9DCE6FFF7C8FC054641F29D
:100A5000883700BF306F800708D5FFF7BFFC401B09
:100A6000B8424FF00300F5D9CBE600BFB8F1000F54
:100A70007FF499AE306C20F08050306493E600BF74
:100A8000FFF7ACFC054600BF306880037FF567AE1A
:100A9000FFF7A4FC401B64284FF00300F4D9B0E634
:100AA000411E0020B0EB116F1CBF012070474EF2B9
:100AB0001002CEF2000251604EF62351CEF2000138
:100AC000F0230B700721906011607047FEE7000073
:100AD000FEE70000FFF71CFEFEE700007047000085
:100AE00070470000FFF780BC10B592B0002043F6BD
:100AF0004001CDE90A00CDE908000590CDE90300E9
:100B0000CDE901000090C4F202010A68022442F01B
:100B100080520A60096801F08051009100990090AC
:100B200047F20000C4F20000016841F48041016016
:100B30000068602100F48040009000980120069039
:100B40004FF4803007904FF480000D9004200E90F9
:100B5000119006A80C94CDE90F14FFF7E7FD18B12A
:100B600072B600BFFEE700BF0F20CDE90104802070
:100B700003904FF48050CDE9040001A80121FFF754
:100B8000DBFC18B172B600BFFEE700BFFFF784FDC3
:100B900012B010BD4EF68850CEF20000016841F44C
:100BA0007001016070470000FEE7000082B0FFF7AF
:100BB00029FCFFF799FF002043F630010190C4F2B1
:100BC00002010A6842F080020A600A6802F08002AC
:100BD0000192019A0090086840F0010008600868DE
:100BE00000F0010000900098FEE7F1EE100A4FF6C9
:100BF000FF71C0F2C03120EA010040F04070E1EE28
:100C0000100A704700000000000000000102030409
:100C100006070809380C000800000020100000003A
:100C2000C4010008480C00081000002068060000FD
:100C3000E0010008000000000100000010000000BA
:080C40000024F4000000000094
:040000050800018965
:00000001FF
