:020000040800F2
:10000000D006002029020008E1120008D9120008D9
:10001000DD120008210400083D1400080000000063
:100020000000000000000000000000002114000893
:100030002504000800000000E5120008251400084F
:10004000430200084302000843020008430200087C
:10005000430200084302000843020008430200086C
:10006000430200084302000843020008430200085C
:10007000430200084302000843020008430200084C
:10008000430200084302000843020008430200083C
:10009000430200084302000843020008430200082C
:1000A000430200084302000843020008430200081C
:1000B000430200084302000843020008430200080C
:1000C000430200084302000843020008E912000846
:1000D00043020008430200084302000843020008EC
:1000E00043020008430200084302000843020008DC
:1000F00043020008430200084302000843020008CC
:1001000043020008430200084302000843020008BB
:1001100043020008430200084302000843020008AB
:10012000430200084302000843020008430200089B
:10013000430200084302000843020008430200088B
:10014000430200084302000843020008430200087B
:10015000430200084302000843020008430200086B
:10016000430200084302000843020008430200085B
:100170004302000843020008430200080000000098
:10018000430200084302000800F002F800F03CF8C7
:100190000AA090E8000C82448344AAF10107DA45E2
:1001A00001D100F031F8AFF2090EBAE80F0013F0F8
:1001B000010F18BFFB1A43F0010318473814000061
:1001C00058140000103A24BF78C878C1FAD85207F2
:1001D00024BF30C830C144BF04680C6070470000C1
:1001E0000023002400250026103A28BF78C1FBD840
:1001F000520728BF30C148BF0B6070471FB501F0E0
:10020000E4F91FBD10B510BD00F0D0F81146FFF79E
:10021000F5FF01F015F900F0EEF803B4FFF7F2FF77
:1002200003BC00F0F5F80000094880470948004782
:10023000FEE7FEE7FEE7FEE7FEE7FEE7FEE7FEE796
:10024000FEE7FEE704480549054A064B70470000F3
:100250002914000889010008D0000020D0060020E1
:10026000D0020020D002002053EA020C00F0698086
:100270002DE9F04B4FF00006002B1FBFB3FA83F5BA
:1002800003FA05F424FA05F65E4012BF1643B2FAEB
:1002900082F502FA05F4C5F120051EBF22FA05FC1D
:1002A00044EA0C04203556EA044C4FEA144418BFC3
:1002B000641C4FF000084FF00009904271EB030CF2
:1002C00039D3002919BFB1FA81F701FA07F6B0FA5C
:1002D00080F700FA07F6C7F120071EBF20FA07FCD7
:1002E00046EA0C062037B6FBF4FCA7EB0507103FE7
:1002F00007F01F0BCBF120062CFA06F60CFA0BFBCD
:1003000044BFB3460026202FA4BF5E464FF0000B2B
:100310005BEA060C08BF4FF0010B19EB0B0948EB29
:100320000608ABFB027C06FB02CC0BFB03CCC01B1C
:1003300071EB0C01C1E70B46024641464846BDE859
:10034000F08B13B5084318BF4FF0FF300146AFF3F1
:100350000080BDE81C4070474FF0000200B5134616
:1003600094469646203922BFA0E80C50A0E80C50D5
:10037000B1F12001BFF4F7AF090728BFA0E80C5086
:1003800048BF0CC05DF804EB890028BF40F8042B7F
:1003900008BF704748BF20F8022B11F0804F18BFEC
:1003A00000F8012B7047704770477047754600F0A2
:1003B0002BF8AE4605006946534620F007008546F7
:1003C00018B020B5FFF73EFFBDE820404FF0000613
:1003D0004FF000074FF000084FF0000BAC46ACE8C0
:1003E000C009ACE8C009ACE8C009ACE8C00921F01C
:1003F00007018D46704710B50446AFF300802046D4
:10040000BDE81040FFF709BF00487047100000200A
:1004100001491820ABBEFEE726000200704700002D
:10042000FEE700007047000090F83510022909D15E
:10043000052180F835100068016821F00101016094
:10044000002070478021416501207047B0B5044607
:1004500000F0EAF8054640F20000C2F20000007821
:10046000611C18BF044400BF00F0DEF8401BA0422E
:10047000FAD3B0BD2DE9F04F82B000F13E4241F613
:10048000004502F1FF77C4F20205082243F6004E50
:100490004FEAB726A84208BF0722C4F2010E072E72
:1004A00038BF4FEAB7220125002600274FF0000889
:1004B000009208E008F101080437B8F1100F06F1C6
:1004C000020600F0A7800C6805FA08F914EA090F83
:1004D000F0D0D1F804B003220BF0030CACF101040E
:1004E000B240012C6FEA020A10D88268CC6802EA96
:1004F0000A02B440224382604268CBF3001422EA2D
:10050000090204FA08F42243426005E0BCF1030F3B
:1005100002D14FF0030C20E0C2688C6802EA0A02A4
:10052000B4402243BCF1020FC26016D16FF0030247
:1005300002EA58020244D2F820C007F01C050F233B
:100540000C69AB402CEA030304FA05F52B43136254
:10055000D1F804B001250BF0030C02680CFA06F385
:1005600002EA0A021A431BF4403F0260A2D00022B2
:1005700043F644030192C4F202031A684FF6084C92
:1005800042F480421A601A68CFF6FF7C02F480427F
:100590000192019A28F00302724452F80C3007F0DD
:1005A0000C050F24AC40A343009C04FA05F52B4333
:1005B00042F80C30DEF808204B6842EA090543F6A1
:1005C0000C4CDC0258BF22EA0905CEF80850C4F2F0
:1005D000010CDCF800209C0242EA090558BF22EA1F
:1005E0000905CCF80050DEF804209C0342EA090516
:1005F00058BF22EA0905CEF80450DEF80020DB03DC
:1006000042EA090558BF22EA0905CEF80050012543
:1006100050E700BF02B0BDE8F08F0000002A08BF1D
:10062000090481617047000040F2C800C2F2000076
:100630000068704740F2000040F2C801C2F20000BA
:10064000C2F2000100780A68104408607047000098
:1006500080B543F60040C4F20200016841F4007125
:100660000160016841F480610160016841F48071BA
:100670000160032000F088F80F2000F005F800F07A
:1006800027F8002080BD000070B540F20006C2F2DD
:10069000000640F208013278C2F200014FF47A738A
:1006A0000968B3FBF2F20446B1FBF2F1084600F030
:1006B000FDFD0F2C4FF0010508D838B94FF0FF3081
:1006C00021460022002500F033F87460284670BDF2
:1006D00082B0002043F640010190C4F202014A6852
:1006E00042F480424A604A6802F480420192019AD0
:1006F0000090086840F080500860086800F0805062
:100700000090009802B07047002848BF7047C1B2FF
:1007100000F01F00012202FA00F04EF20012CEF2A9
:10072000000242EAD10121F0030108607047000095
:1007300010B54EF60C5CCEF2000CDCF80030C3F3C2
:10074000022E8EF00704042C28BF0424BEF10303FC
:100750004FF0FF3E0EFA04F438BF0023A143994046
:100760000EFA03F39A43114300F00F0200F16043C5
:100770000901043A03F564436244002848BF02F1CA
:100780000C03197010BD00004EF60C51CEF20001A2
:100790000A684FF6FF031A4060F30A2242F08060B5
:1007A00040F0FD70086070472DE9F041002800F02E
:1007B0008B8043F60808C4F202080446D8F8F80310
:1007C0000D4600F00700884207D288F8F853D8F8A1
:1007D000F80300F00700A84276D12068810717D5FA
:1007E000410705D5D8F8001041F4E051C8F80010D1
:1007F000010705D5D8F8001041F46041C8F8001091
:10080000D8F80010A26821F0F0011143C8F80010D8
:10081000C0073FD1D8F8F80300F00700A84207D975
:1008200088F8F853D8F8F80300F00700A8424BD135
:100830002068410707D5D8F80010E26821F4E0519C
:100840001143C8F80010000708D5D8F80000216946
:1008500020F4604040EAC100C8F8000000F054F8FD
:10086000D8F8001041F2E452C1F30311C0F60002BF
:10087000515C40F2080220FA01F140F20400C2F299
:1008800000000068C2F200021160FFF7FDFE0020C8
:10089000BDE8F0816068811E022907D258F8081C63
:1008A00089015CBF0120BDE8F08111E0012807D17A
:1008B00058F8081C89035CBF0120BDE8F08107E0FF
:1008C00058F8081C890703D40120BDE8F08100BF57
:1008D000D8F8001021F003010843C8F80000FFF722
:1008E000A3FE064641F28837D8F80000616800F0A0
:1008F0000C00B0EB810F8DD0FFF796FE801BB84245
:10090000F2D90320BDE8F08110B543F60404C4F227
:100910000204606800F00C0008280BD0042819BFFE
:1009200042F20040C0F2F40047F64000C0F27D10F1
:1009300010BD00BF206821682368490247F64001C6
:10094000C0F27D1100F03F02C3F388105CBF42F299
:100950000041C0F2F401A1FB00010023FFF784FC79
:1009600021680222C1F3014102EB4101B0FBF1F029
:1009700010BD00002DE9F04182B0002868D0044687
:10098000007843F60006C007C4F202060BD0B06838
:1009900000F00C00042840F09F803068800302D5EE
:1009A0006068002854D0207880071AD5B06810F00D
:1009B0000C0F09D0B06800F00C00082840F0A680A9
:1009C0007068400200F1A2803068800702D5E068BC
:1009D00001283DD13068216920F0F80040EAC100CB
:1009E00030602078000737D4207840074CD4A569C0
:1009F00055B3B06800F00C00082840F0BB80012D12
:100A000026D07068E16900F480028A4220D1216A10
:100A100000F03F028A421BD147F6C071626A014072
:100A2000B1EB821F14D1A16A4FF6FF73C90399433A
:100A300000F44032A1F580318A4209D1E16A00F028
:100A40007060B0EB016F03D1002002B0BDE8F0810F
:100A5000012002B0BDE8F0816069002840F200008A
:100A6000C4F2472076D00121C0F8801EFFF7DCFDDC
:100A7000054600BF706F8007B6D4FFF7D5FD401B59
:100A80000228F7D9DDE000BF306C10F080580AD1A1
:100A900000200190306C40F080503064306C00F0E9
:100AA00080500190019847F20007C4F200073868AF
:100AB000C00541D4386840F480703860FFF7B4FD59
:100AC000054600BF3868C00536D4FFF7ADFD401BB2
:100AD0000228F7D9B5E000BFB06800F00C00082884
:100AE00003D1706840023FF558AF6068B0F5803FB1
:100AF00007D0B0F5A02F40F08D80306840F4802002
:100B00003060306840F4803030608DE0E06800286C
:100B100052D00020C4F2472001210160FFF784FD7C
:100B2000054600BF306880073FF554AFFFF77CFDF6
:100B3000401B0228F6D984E0A068012805D00528CA
:100B40004ED1306F40F004003067306F40F001004C
:100B500030674FE00021C0F8801EFFF765FD0546B5
:100B6000706F80077FF540AFFFF75EFD401B0228E6
:100B7000F6D966E00027C4F2472700203866FFF761
:100B800053FD022D05460BD1306880015ED5FFF77D
:100B90004BFD401B02284FF00300F5D955E700BF7D
:100BA000306880017FF550AFFFF73EFD401B022803
:100BB0004FF00300F4D948E70020C4F24720002199
:100BC0000160FFF731FD0546306880077FF509AF0A
:100BD000FFF72AFD401B02284FF00300F4D934E749
:100BE000316F002821F001013167316F21F00401DC
:100BF00031674DD0FFF718FD054641F2883700BF39
:100C0000306F800756D4FFF70FFD401BB842F7D96D
:100C100017E000BF3168002821F48031316031686D
:100C200021F4802131604FD0FFF7FEFC054600BF64
:100C3000306880033FF5B7AEFFF7F6FC401B642831
:100C4000F6D9032002B0BDE8F08100BF04F11C0515
:100C50002FCD084340EA8210D9034FF6FF7291432B
:100C6000A1F5803140EA05600843706001203866D4
:100C7000FFF7DAFC044600BF306880013FF5E4AEC0
:100C8000FFF7D2FC001B02284FF00300F4D9DCE68A
:100C9000FFF7CAFC054641F2883700BF306F800776
:100CA00008D5FFF7C1FC401BB8424FF00300F5D94F
:100CB000CBE600BFB8F1000F7FF499AE306C20F0A6
:100CC0008050306493E600BFFFF7AEFC054600BFDE
:100CD000306880037FF567AEFFF7A6FC401B6428F1
:100CE0004FF00300F4D9B0E670470000B0B582B011
:100CF000044600684168826812F0400305D112F092
:100D0000010518BF11F0400512D1950708D511F063
:100D1000800505D0616C204602B0BDE8B0400847B0
:100D200012F4B07F18BF11F0200507D102B0B0BD9A
:100D3000216C204602B0BDE8B0400847BBB194F832
:100D40005130032B08D100210191C16801918068C5
:100D50000190019802B0B0BD636D43F00403636578
:100D600000230193C368019383680193019B12F0F0
:100D7000200302F4807203D18AB9626DDAB9D5E733
:100D8000636D43F00103636500230193836801935E
:100D9000036823F040030360019B002AEDD0626DDD
:100DA00042F0080262650022019282680192019A73
:100DB000626D002ABAD04268890722F0E0024260E0
:100DC0004FF0010284F8512020D0416841F2F5250E
:100DD00021F003014160E06CC0F6000538B1056503
:100DE000FFF722FB18B1606D40F040006065A06C19
:100DF00000289BD00565FFF717FB00283FF496AF4E
:100E0000606D40F04000606502B0B0BD204602B0A9
:100E1000BDE8B040FFF768BF70B538B10446406A1E
:100E200030B10020206104F1140007E0012070BD02
:100E30006068B0F5827F03D004F11C0000210160DE
:100E40000026A66294F8510020B9204684F850602C
:100E500000F03CF8022084F8510094E80F0001F4FF
:100E60008271056802F4044225F0400505601144D2
:100E700003F400622369114403F002026369114420
:100E800003F00102A369E569114403F400721144FF
:100E900005F03802256A114405F08002A56A114365
:100EA00005F4005211430160626A042101EA134112
:100EB00002F0100211444160C16921F40061C16176
:100EC0000120666584F85100304670BD80B586B05B
:100ED000016843F20000C4F20100814202D006B072
:100EE00080BD00BF002143F630020191C4F202022E
:100EF000536900F5504043F480535361536903F440
:100F000080530193019B0191136843F00103136027
:100F1000126802F001020192019AE022019202227B
:100F2000CDE90221032104910521059101A9FFF7D3
:100F3000A1FA232000210022FFF7FAFB2320FFF76C
:100F4000E3FB06B080BD00002DE9F04383B004460A
:100F500090F85000012803D1022003B0BDE8F083CF
:100F600001201E4615460F4684F85000FFF75CFB33
:100F700094F851108146012912D06068B0F5827F43
:100F800040F0A480A06800284FF0020008BF0429A8
:100F900006D0002184F8501003B0BDE8F08300BFF4
:100FA000002F4FF0010018BF002DF2D0002EF0D01E
:100FB00094F85100002104281CBF052084F851003A
:100FC0006165A563E687A6872763E6862068A6860F
:100FD000216461640168490603D4016841F040015D
:100FE00001606168731EE268B1FA81F1B3FA83F3BC
:100FF000DDF8288049095B09B2F5006F41EA030179
:101000006CD131B137F8021BC1602763E08E013823
:10101000E086012518F1010031D101E0FFF704FB62
:10102000E08E18B9E08F002800F0C0802068816849
:1010300089070CD5E18E51B1012D08D1216B002516
:1010400031F8022BC2602163E18E0139E1868168AB
:10105000C907E3D0E18F0029E0D0C068A16B01256A
:1010600021F8020BA163E08F0138E087D6E700BFCB
:10107000FFF7DAFAA0EB0900404580F0AD80E08E82
:1010800018B9E08F002800F09180206881688907F6
:101090000CD5E18E51B1012D08D1216B002531F81D
:1010A000022BC2602163E18E0139E1868168C907A4
:1010B000DED0E18F0029DBD0C068A16B012521F8CB
:1010C000020BA163E08F0138E087D1E70220002105
:1010D00084F8501003B0BDE8F08300BF39B139780F
:1010E0000173206B01302063E08E0138E08601251A
:1010F00018F1010032D101E0FFF796FAE08E10B945
:10110000E08F002852D02068816889070ED5E18ED3
:1011100061B1012D0AD1216B002509780173216B82
:10112000206801312163E18E0139E1868168C907B8
:10113000E2D0E18F0029DFD0C068A16B01250870E3
:10114000A06B0130A063E08F0138E087D4E700BFD7
:10115000FFF76AFAA0EB090040453DD2E08E08B9DE
:10116000E08F18B32068816889070ED5E18E61B1E0
:10117000012D0AD1216B002509780173216B2068AC
:1011800001312163E18E0139E1868168C907DFD031
:10119000E18F0029DCD0C068A16B01250870A06B2D
:1011A0000130A063E08F0138E087D1E720460221BB
:1011B00001224346CDF8009000F0A2F8B0B1606D76
:1011C00040F020006065202060650120002184F847
:1011D000501003B0BDE8F083012084F851000320D3
:1011E000002184F8501003B0BDE8F08340F20800FD
:1011F000C2F20000006849F68171C1F25E61A0FB95
:101200000101480D4FF47A71484302906068B0F5CF
:10121000827F21D12046802100224346CDF80090D4
:1012200000F06EF80028CAD1A06838B900200190FB
:101230002068C1680191806801900198606D002864
:101240004FF0010004BF84F851000020002184F811
:10125000501003B0BDE8F08302980028E4D0029853
:1012600001380290206880680006DDD502980028C9
:10127000DAD0029801380290206880680006D3D541
:1012800002980028D0D00298013802902068806827
:101290000006C9D502980028C6D0029801380290ED
:1012A000206880680006D7D4BEE70000411E0020F9
:1012B000B0EB116F1CBF012070474EF21002CEF24E
:1012C000000251604EF62351CEF20001F0230B7064
:1012D0000721906011607047FEE70000FEE7000004
:1012E000FEE700007047000040F27000C2F200000C
:1012F000FFF7FCBC806B0021C187C186FFF7F4BCFF
:101300002DE9F04381B0089C984615460E4681466B
:10131000FFF78AF9201A00EB0804FFF785F940F27D
:101320000801C2F200010968C1F3CB3161430091A9
:10133000D9F800108A683240921BB2FA82F2520940
:10134000AA423DD0074618F1010031D0FFF76CF9F1
:10135000C01BA04238D2009800990028A1F10101D9
:101360000091D9F80010896808BF044601EA060018
:10137000801BB0FA80F04009A842E7D120E000BF0E
:1013800088683040801BB0FA80F04009A84217D02E
:1013900088683040801BB0FA80F04009A8420FD026
:1013A00088683040801BB0FA80F04009A84207D01E
:1013B00088683040801BB0FA80F04009A842DFD135
:1013C000002001B0BDE8F083D9E900014268B1F521
:1013D000827F22F0E00242600BD1D9F80810B1F50B
:1013E000004F02D0B1F5806F03D1016821F04001B8
:1013F0000160D9F82810B1F5005F07D1016821F428
:1014000000510160016841F400510160012089F838
:101410005100002089F85000032001B0BDE8F0839E
:1014200070470000FFF706B94EF68850CEF2000074
:10143000016841F47001016070470000FEE70000A0
:1014400094B043F6300640F60004C4F20206C4F23B
:101450000204FFF7FDF808AD281D2C21FEF77CFFE4
:1014600000270797CDE90577CDE903770297306923
:1014700040F080503061306900F080500290029856
:1014800046F600000297CFF6FE70215841F48041E5
:101490002150205800F480400290029802200890C9
:1014A00001200B9010200C9028460E97FFF762FA4F
:1014B00010B172B6FEE700BF0F20CDE9030703A805
:1014C0000021CDE905770797FFF76EF910B172B6E5
:1014D000FEE700BF00270C9703973068202140F0FB
:1014E000010030603068012200F001000390039891
:1014F000039730684FF0010840F004003060306816
:1015000000F00400039003980397306840F008004F
:1015100030603068202600F00800039003982046D1
:10152000FFF77CF804F5806528464FF4004100225F
:101530004FF40049FFF772F8CDE9086808AE20467D
:101540003146CDE90A77FEF795FF28463146CDE9C9
:101550000898CDE90A77FEF78DFF40F27000A4F5F8
:101560005841C2F200004FF482724FF4007380E8D9
:1015700086000A21C0E90377C0E90573C761C0E9A5
:101580000877C0E90A71FFF747FC18B172B600BFCF
:10159000FEE700BF204620210022FFF73FF840F27F
:1015A00070004FF47A77C2F2000008AAD02112230B
:1015B0000097FFF7C9FC204620210122FFF72EF8F3
:1015C0004FF47A70FEF742FFFEE7F1EE100A4FF695
:1015D000FF71C0F2C03120EA010040F04070E1EE3E
:1015E000100A704700000000000000000102030420
:1015F0000607080918160008000000201000000067
:10160000C40100082816000810000020C0060000D1
:10161000E0010008000000000100000010000000D0
:081620000024F40000000000AA
:040000050800018965
:00000001FF
