:020000040800F2
:100000001007002029020008391E00088D1700087B
:10001000351E000825090008211F00080000000007
:10002000000000000000000000000000411E000869
:1000300029090008000000003D1E0008451E0008B8
:10004000430200084302000843020008430200087C
:10005000430200084302000843020008430200086C
:10006000430200084302000843020008430200085C
:10007000430200084302000843020008430200084C
:10008000430200084302000843020008430200083C
:10009000430200084302000843020008430200082C
:1000A000430200084302000843020008430200081C
:1000B000430200084302000843020008430200080C
:1000C00043020008430200084302000843020008FC
:1000D00043020008430200084302000843020008EC
:1000E00043020008430200084302000843020008DC
:1000F00043020008430200084302000843020008CC
:1001000043020008430200084302000843020008BB
:1001100043020008430200084302000843020008AB
:10012000430200084302000843020008430200089B
:10013000430200084302000843020008430200088B
:10014000430200084302000843020008430200087B
:10015000430200084302000843020008430200086B
:10016000430200084302000843020008430200085B
:100170004302000843020008430200080000000098
:10018000430200084302000800F002F800F03CF8C7
:100190000AA090E8000C82448344AAF10107DA45E2
:1001A00001D100F031F8AFF2090EBAE80F0013F0F8
:1001B000010F18BFFB1A43F0010318475824000031
:1001C00078240000103A24BF78C878C1FAD85207C2
:1001D00024BF30C830C144BF04680C6070470000C1
:1001E0000023002400250026103A28BF78C1FBD840
:1001F000520728BF30C148BF0B6070471FB502F0DF
:10020000EBF91FBD10B510BD00F00AF91146FFF75C
:10021000F5FF01F087FE00F028F903B4FFF7F2FFC5
:1002200003BC00F02FF90000094880470948004747
:10023000FEE7FEE7FEE7FEE7FEE7FEE7FEE7FEE796
:10024000FEE7FEE704480549054A064B70470000F3
:10025000491E000889010008100100201007002035
:10026000100300201003002053EA020C00F0698004
:100270002DE9F04B4FF00006002B1FBFB3FA83F5BA
:1002800003FA05F424FA05F65E4012BF1643B2FAEB
:1002900082F502FA05F4C5F120051EBF22FA05FC1D
:1002A00044EA0C04203556EA044C4FEA144418BFC3
:1002B000641C4FF000084FF00009904271EB030CF2
:1002C00039D3002919BFB1FA81F701FA07F6B0FA5C
:1002D00080F700FA07F6C7F120071EBF20FA07FCD7
:1002E00046EA0C062037B6FBF4FCA7EB0507103FE7
:1002F00007F01F0BCBF120062CFA06F60CFA0BFBCD
:1003000044BFB3460026202FA4BF5E464FF0000B2B
:100310005BEA060C08BF4FF0010B19EB0B0948EB29
:100320000608ABFB027C06FB02CC0BFB03CCC01B1C
:1003300071EB0C01C1E70B46024641464846BDE859
:10034000F08B13B5084318BF4FF0FF300146AFF3F1
:100350000080BDE81C40704753EA020C23D010B562
:100360004C1084EA530404D54042C1F1000138BF67
:10037000491E1B4204D55242C3F1000338BF5B1E25
:10038000FFF772FF14F0804F04D04042C1F100012A
:1003900038BF491E14F0004F04D05242C3F100038D
:1003A00038BF5B1E10BD13B540424FF0000070EB2C
:1003B0000104B8BF012001F0004100281CBF6FF00C
:1003C00000414FF0FF30AFF300801CBD4FF0000242
:1003D00000B5134694469646203922BFA0E80C503B
:1003E000A0E80C50B1F12001BFF4F7AF090728BF16
:1003F000A0E80C5048BF0CC05DF804EB890028BF92
:1004000040F8042B08BF704748BF20F8022B11F0BA
:10041000804F18BF00F8012B704770477047704736
:10042000754600F02BF8AE4605006946534620F0AD
:100430000700854618B020B5FFF704FFBDE820404F
:100440004FF000064FF000074FF000084FF0000B90
:10045000AC46ACE8C009ACE8C009ACE8C009ACE8FF
:10046000C00921F007018D46704710B50446AFF36F
:1004700000802046BDE81040FFF7CFBE004870471F
:100480001000002001491820ABBEFEE72600020044
:10049000704700002DE9F04F85B0984617468B460F
:1004A000824601F0DBFC00208DF81200B6208DF8AA
:1004B000130040F2B4004FF47A7501260DF11304D5
:1004C000C2F20000EC21E0220123CDE900460295B2
:1004D00000F00AFD00286FD1642000F027FA40F2F6
:1004E000B400C2F20000EC21F22201238DF8137057
:1004F000CDE90165009400F0F7FC00285CD1642090
:1005000000F014FA40F2B4004FF47A7501260DF1B0
:100510001207C2F20000EC21F2220123CDE900769D
:10052000029500F0B3FB9DF812009DF8131088426D
:1005300042D1DDE90E10F522800040EA41108DF82D
:10054000130040F2B400C2F20000EC210123CDE917
:100550000165009400F0C8FC70BB642000F0E6F96F
:1005600040F2B4004FF47A790125C2F20000EC2188
:10057000F5220123CDE90075CDF8089000F086FB47
:100580009DF812009DF81310884215D14FEA8B0098
:1005900040EA4A1040EA08008DF8130040F2B40027
:1005A000C2F20000EC21F4220123CDE90045CDF890
:1005B000089000F099FC28B14FF0FF3005B0BDE87D
:1005C000F08F00BF642000F0B1F90120CDE9007088
:1005D00040F2B4004FF47A76C2F20000EC21F4222B
:1005E0000123029600F052FB9DF812009DF81310B3
:1005F000401A18BF4FF0FF3005B0BDE8F08F000083
:100600002DE9F04F87B04FF47A70012140F2700B62
:10061000CDE9011040F2B400C2F2000BC2F20000BA
:10062000EC21D0220123CDF800B000F02FFB9BF885
:100630000000602840F0F480082005A9CDE90010F2
:1006400040F2B4004FF0FF37C2F20000EC21F72275
:100650000123029700F01AFB9DF815109DF8140075
:100660009DF81620090141EA003040EA1219BDF850
:100670001A209DF818009DF8173052BA00019DF815
:1006800019100492CBF83020BBF8022040EA033066
:1006900040EA1111C2EB1010BBF906604043CBF8E1
:1006A0002C10C908BBF90430000BA1EB42017043C8
:1006B0005943801300EBE12606EB86008030BBF93E
:1006C0000AA0BBF90C800012CBF82890CBF834605C
:1006D00001F05AFE9FED8C0B53EC102B01F0FAFC4D
:1006E00001F0C6FCB6F5FA3E8EFB0E5CA5FB0824B5
:1006F0004FEAE87105FB01414FEA12220CFB081199
:100700008EFB0A374FEAE67642EA0162BBF8084000
:1007100066F1000A12EB0332A2FB04264FEA07320D
:1007200042EA135242EB212101F5004101FB04672B
:1007300040F2B0017A1042EAE773C2F20001002BE6
:10074000086000F08180BBF91200BBF91040A5FBE6
:100750000013C61705FB0633AEFB04680CFB003024
:10076000C9F580135D08D1EBC37165EB0009B1EBEE
:1007700046404FEAE4710EFB0181BBF90E300AFBE3
:10078000041140F6354C4FEA414141EAD63169EB5C
:100790000101A0FB0C05A1EBC30101FB0C51BBF94E
:1007A0001480FB17FFF7D8FD420B42EAC142A2FBBF
:1007B00002374D13BBF9186002FB0577A3FB06C493
:1007C00002FB0572F71703FB0743BBF9167002FB28
:1007D0000632A0FB0754FB1700FB03434FEA5C649F
:1007E00001FB0733561644EAC212EF0C47EA4337BF
:1007F00080187141C01941EBD341000A40EA016001
:1008000000EB081001F0D7FD9FED410B53EC102BCE
:1008100001F0E4FD01F02CFC00EE100A16E000BF30
:1008200040F2A800C2F200000021016040F2AC00DA
:10083000C2F20000016040F2B000C2F200000160AC
:1008400007B0BDE8F08F00BF9FED350A049A40F273
:10085000AC00C2F20000B2F5004F80ED000A09D1F1
:1008600040F2A800C2F200000021016007B0BDE81C
:10087000F08F00BFBBF82010DBF834009203A2EB2E
:100880000151BBF92220A0F5963000FB1211BBF9F3
:100890002420BBF81E70424378434FF40047921265
:1008A00007EBE020BBF91C3050434FF4001202EB81
:1008B000A020584301F5804100F50050C913801372
:1008C0004843C1134943BBF81A20C9095143A0EB5F
:1008D000111020EAE070B0F1C85F28BF4FF0C85097
:1008E000000B01F068FD9FED0C0B53EC102B01F099
:1008F00075FD01F0BDFB40F2A801C2F200010860E5
:1009000007B0BDE8F08F00BF0000000000005940B4
:10091000000000000000703F000000000000503F99
:1009200000000000FEE7000070470000B0B504467C
:1009300000F0EAF8054640F20000C2F2000000783C
:10094000611C18BF044400BF00F0DEF8401BA04249
:10095000FAD3B0BD2DE9F04F82B000F13E4241F62E
:10096000004502F1FF77C4F20205082243F6004E6B
:100970004FEAB726A84208BF0722C4F2010E072E8D
:1009800038BF4FEAB7220125002600274FF00008A4
:10099000009208E008F101080437B8F1100F06F1E1
:1009A000020600F0A7800C6805FA08F914EA090F9E
:1009B000F0D0D1F804B003220BF0030CACF1010429
:1009C000B240012C6FEA020A10D88268CC6802EAB1
:1009D0000A02B440224382604268CBF3001422EA48
:1009E000090204FA08F42243426005E0BCF1030F57
:1009F00002D14FF0030C20E0C2688C6802EA0A02C0
:100A0000B4402243BCF1020FC26016D16FF0030262
:100A100002EA58020244D2F820C007F01C050F2356
:100A20000C69AB402CEA030304FA05F52B4313626F
:100A3000D1F804B001250BF0030C02680CFA06F3A0
:100A400002EA0A021A431BF4403F0260A2D00022CD
:100A500043F644030192C4F202031A684FF6084CAD
:100A600042F480421A601A68CFF6FF7C02F480429A
:100A70000192019A28F00302724452F80C3007F0F8
:100A80000C050F24AC40A343009C04FA05F52B434E
:100A900042F80C30DEF808204B6842EA090543F6BC
:100AA0000C4CDC0258BF22EA0905CEF80850C4F20B
:100AB000010CDCF800209C0242EA090558BF22EA3A
:100AC0000905CCF80050DEF804209C0342EA090531
:100AD00058BF22EA0905CEF80450DEF80020DB03F7
:100AE00042EA090558BF22EA0905CEF8005001255F
:100AF00050E700BF02B0BDE8F08F0000002A08BF39
:100B0000090481617047000040F20810C2F2000041
:100B10000068704770B5B8B3044690F83D0028B936
:100B2000002084F83C00204600F08AFA242084F853
:100B30003D002068016821F001010160016841F475
:100B400000410160016821F40041016000F004FCF3
:100B500048F28041C0F21E0140F60013D4F804E0D0
:100B600088424FF00001C0F23D0348F2A16C4FF003
:100B7000000238BF01219842C0F2010C38BF0122A7
:100B8000E64538BF0A460AB1012070BD4DF68361C3
:100B9000C4F21B31A0FB01122168950C4B684FF485
:100BA000967623F03F0343EA9243754344F6D356C7
:100BB0004B60C1F262060B6AA5FB0656B50923F02D
:100BC0003F03E64538BF950C6A1C1A430A62CA699E
:100BD00048F2A0664CF6FF73C0F20106B64522EA61
:100BE00003020BD801384FEA4E03B0FBF3F001309B
:100BF0006FF31F30042898BF04201EE0A36801385B
:100C000063B119230EFB03F3B0FBF3F001306FF374
:100C10001F3078B100F5804008E000BF0EEB4E03B6
:100C2000B0FBF3F001306FF31F3028B100F5004046
:100C300003E000BF012000E001201043C861086804
:100C4000D4E9072320F0C0001043184308608868E7
:100C500048F2FF3204F10C0690434CCE1843104387
:100C6000A5698860C86820F0FF0030432843C86049
:100C7000086840F00100086000202021206484F80A
:100C80003D10206384F83E0070BD00002DE9F04760
:100C900084B0994616460F460446FFF735FF94F890
:100CA0003D10202927D10546206800BF81698907AA
:100CB0001CD5FFF729FF411B20681A29F6D381694B
:100CC0008907F3D500202021206384F83D1084F8A3
:100CD0003E00206C04F13C0A40F020002064022019
:100CE00000218AF8001004B0BDE8F087A2461AF887
:100CF0003C1F012904D1022004B0BDE8F08700BFE9
:100D000001228AF800200368DDE90D180C9ADB0740
:100D100003D1036843F001030360036823F4006315
:100D20000360222084F83D00402084F83E0000202B
:100D3000206462626185608D394620850020CFF68F
:100D4000FF70E062204632464B46CDF800800195A8
:100D500000F01EFD20B1012004B0BDE8F08700BF07
:100D6000208DA8B102282BD0012835D121680A682E
:100D700022F480620A60002203924A6903928A691F
:100D80000392039A0A6842F400720A602CE000BFE2
:100D900000200390206841690391816903910399C0
:100DA000016841F400710160202084F83D000020BA
:100DB00084F83E0000218AF8001004B0BDE8F087F6
:100DC00021680A6822F480620A600A6842F40062BC
:100DD0000A600022039202E00021039121684A691F
:100DE00003928969039103990427C0F201070CE07B
:100DF00010690870606A218D01306062481E20858C
:100E0000618D013961850104CED080B203280FD8ED
:100E100002284AD001282DD1204641462A4600F01A
:100E200061FF002897D12068616A0069E1E700BF8F
:100E3000204641462A4600F055FF00287FF48BAF3C
:100E40002068616A00690870606A2268411C208D10
:100E5000616201382085638D013B638553695B07BF
:100E6000D1D580B20328C3D1106820F4806010600F
:100E7000BEE700BF2046394600224346009500F0F9
:100E8000D7FD00287FF467AF2068616A026822F40A
:100E90008062026000690870606A218D01306062C2
:100EA000481E2085608D0138608520463946002225
:100EB0004346009500F0BCFD00287FF44CAF20684D
:100EC000616A026842F40072026000690870606A38
:100ED0002268411C6162218D01392185618D0139B2
:100EE00061851169417085E72DE9F04383B099462A
:100EF00016460F460446FFF707FE94F83D102029DA
:100F000020D10546206800BF8169890716D5FFF703
:100F1000FBFD411B20681A29F6D381698907F3D5A7
:100F200000202021206384F83D1084F83E00216CCD
:100F300041F02001216484F83C0003E094F83C1067
:100F4000012903D1022003B0BDE8F083012284F817
:100F50003C200368DDE90B180A9ADB0703D103681C
:100F600043F001030360036823F40063036021205E
:100F700084F83D00402084F83E0000202064626236
:100F80006185608D394620850020CFF6FF70E062D4
:100F9000204632464B46CDF80080019500F084FC97
:100FA00020B1012003B0BDE8F08300BF208D98B9C7
:100FB000204641462A4600F0DBFC88B3206C04281A
:100FC000EFD12068016841F400710160012003B095
:100FD000BDE8F0830004EBD0204641462A4600F0ED
:100FE000C9FE0028EAD1616A2268084610F8013B70
:100FF0001361238D6062581E2085678D013F6785D0
:1010000057697F07E6D50704E4D048781061881C4B
:101010006062981E2085618D01396185DAE700BF25
:101020002068016841F400710160202084F83D00CF
:10103000002084F83E0084F83C0003B0BDE8F08353
:10104000B0B586B0016845F20040C4F200008142AC
:1010500002D006B0B0BD00BF002443F630050194B5
:10106000C4F20205296800F5D83041F00201296078
:10107000296801F0020101910199C0210191122119
:10108000CDE90214032104910421059101A9FFF780
:1010900061FC0094286940F400102861286900F47C
:1010A00000100090009806B0B0BD000040F20000B3
:1010B00040F20811C2F20000C2F2000100780A6892
:1010C000104408607047000080B543F60040C4F249
:1010D0000200016841F400710160016841F480611F
:1010E0000160016841F480710160032000F074F830
:1010F0000F2000F005F800F027F8002080BD000068
:1011000070B540F20006C2F2000640F208013278E3
:10111000C2F200014FF47A730968B3FBF2F204469D
:10112000B1FBF2F1084600F01BFB0F2C4FF001055C
:1011300008D838B94FF0FF3021460022002500F0D2
:101140001FF87460284670BD82B0002043F640014D
:101150000190C4F202014A6842F480424A604A683F
:1011600002F480420192019A0090086840F0805099
:101170000860086800F080500090009802B0704746
:1011800010B54EF60C5CCEF2000CDCF80030C3F368
:10119000022E8EF00704042C28BF0424BEF10303A2
:1011A0004FF0FF3E0EFA04F438BF0023A1439940EC
:1011B0000EFA03F39A43114300F00F0200F160436B
:1011C0000901043A03F564436244002848BF02F170
:1011D0000C03197010BD00004EF60C51CEF2000148
:1011E0000A684FF6FF031A4060F30A2242F080605B
:1011F00040F0FD70086070472DE9F041002800F0D4
:101200008B8043F60808C4F202080446D8F8F803B5
:101210000D4600F00700884207D288F8F853D8F846
:10122000F80300F00700A84276D12068810717D59F
:10123000410705D5D8F8001041F4E051C8F8001076
:10124000010705D5D8F8001041F46041C8F8001036
:10125000D8F80010A26821F0F0011143C8F800107E
:10126000C0073FD1D8F8F80300F00700A84207D91B
:1012700088F8F853D8F8F80300F00700A8424BD1DB
:101280002068410707D5D8F80010E26821F4E05142
:101290001143C8F80010000708D5D8F800002169EC
:1012A00020F4604040EAC100C8F8000000F068F88F
:1012B000D8F8001042F2FC52C1F30311C0F600024C
:1012C000515C40F2080220FA01F140F20400C2F23F
:1012D00000000068C2F200021160FFF711FF002059
:1012E000BDE8F0816068811E022907D258F8081C09
:1012F00089015CBF0120BDE8F08111E0012807D120
:1013000058F8081C89035CBF0120BDE8F08107E0A4
:1013100058F8081C890703D40120BDE8F08100BFFC
:10132000D8F8001021F003010843C8F80000FFF7C7
:10133000EBFB064641F28837D8F80000616800F000
:101340000C00B0EB810F8DD0FFF7DEFB801BB842A5
:10135000F2D90320BDE8F08140F2080043F608010D
:10136000C2F20000C4F202010068096842F20C6295
:10137000C1F38221C0F60002515CC84070470000F2
:1013800010B543F60404C4F20204606800F00C00D7
:1013900008280BD0042819BF42F20040C0F2F40024
:1013A00047F64000C0F27D1010BD00BF20682168E4
:1013B0002368490247F64001C0F27D1100F03F0268
:1013C000C3F388105CBF42F20041C0F2F401A1FBFC
:1013D00000010023FEF748FF21680222C1F301410A
:1013E00002EB4101B0FBF1F010BD00002DE9F0412E
:1013F00082B0002868D00446007843F60006C00793
:10140000C4F202060BD0B06800F00C00042840F0D3
:101410009F803068800302D56068002854D020780F
:1014200080071AD5B06810F00C0F09D0B06800F032
:101430000C00082840F0A6807068400200F1A280ED
:101440003068800702D5E06801283DD13068216905
:1014500020F0F80040EAC10030602078000737D45F
:10146000207840074CD4A56955B3B06800F00C0053
:10147000082840F0BB80012D26D07068E16900F497
:1014800080028A4220D1216A00F03F028A421BD1A9
:1014900047F6C071626A0140B1EB821F14D1A16AA4
:1014A0004FF6FF73C903994300F44032A1F5803130
:1014B0008A4209D1E16A00F07060B0EB016F03D19C
:1014C000002002B0BDE8F081012002B0BDE8F0814B
:1014D0006069002840F20000C4F2472076D0012164
:1014E000C0F8801EFFF710FB054600BF706F800735
:1014F000B6D4FFF709FB401B0228F7D9DDE000BF97
:10150000306C10F080580AD100200190306C40F00F
:1015100080503064306C00F080500190019847F2A8
:101520000007C4F200073868C00541D4386840F4A9
:1015300080703860FFF7E8FA054600BF3868C005DC
:1015400036D4FFF7E1FA401B0228F7D9B5E000BF17
:10155000B06800F00C00082803D1706840023FF525
:1015600058AF6068B0F5803F07D0B0F5A02F40F0CD
:101570008D80306840F480203060306840F48030E6
:1015800030608DE0E068002852D00020C4F247208F
:1015900001210160FFF7B8FA054600BF30688007F7
:1015A0003FF554AFFFF7B0FA401B0228F6D984E0AC
:1015B000A068012805D005284ED1306F40F0040006
:1015C0003067306F40F0010030674FE00021C0F815
:1015D000801EFFF799FA0546706F80077FF540AFD0
:1015E000FFF792FA401B0228F6D966E00027C4F202
:1015F000472700203866FFF787FA022D05460BD1F2
:10160000306880015ED5FFF77FFA401B02284FF05B
:101610000300F5D955E700BF306880017FF550AF72
:10162000FFF772FA401B02284FF00300F4D948E795
:101630000020C4F2472000210160FFF765FA05464B
:10164000306880077FF509AFFFF75EFA401B02287C
:101650004FF00300F4D934E7316F002821F0010185
:101660003167316F21F0040131674DD0FFF74CFA3B
:10167000054641F2883700BF306F800756D4FFF728
:1016800043FA401BB842F7D917E000BF3168002881
:1016900021F480313160316821F4802131604FD0F4
:1016A000FFF732FA054600BF306880033FF5B7AE5A
:1016B000FFF72AFA401B6428F6D9032002B0BDE8E0
:1016C000F08100BF04F11C052FCD084340EA8210D1
:1016D000D9034FF6FF729143A1F5803140EA0560CE
:1016E0000843706001203866FFF70EFA044600BF19
:1016F000306880013FF5E4AEFFF706FA001B0228D0
:101700004FF00300F4D9DCE6FFF7FEF9054641F29D
:10171000883700BF306F800708D5FFF7F5F9401B09
:10172000B8424FF00300F5D9CBE600BFB8F1000F87
:101730007FF499AE306C20F08050306493E600BFA7
:10174000FFF7E2F9054600BF306880037FF567AE1A
:10175000FFF7DAF9401B64284FF00300F4D9B0E634
:10176000411E0020B0EB116F1CBF012070474EF2EC
:101770001002CEF2000251604EF62351CEF200016B
:10178000F0230B700721906011607047FEE70000A6
:101790002DE9F04782B0044600680E460168DDF886
:1017A00028A041F4806101600168DDF82C9041F4CB
:1017B00080711D461746016020464FF0011100223E
:1017C0005346CDF8009000F033F958B12068006816
:1017D000C00544BF4FF400702064032002B0BDE890
:1017E000F08700BF40F202082068C0F2010806F04E
:1017F000FE0606612046414652464B4600F002FA7C
:1018000020B1012002B0BDE8F08700BF00200190A8
:1018100020684A46416901918069514601900198CA
:10182000204600F0A7FA98B92068012D08D0390A9F
:101830000161204651464A4600F09CFA40B92068B2
:10184000F9B20161204651464A4600F093FA58B178
:10185000206C0428D5D12068016841F40071016032
:10186000012002B0BDE8F0872068002201685346DD
:1018700041F48071016020464FF00111CDF80090D5
:1018800000F0D6F80028A1D1206846F001010161DE
:101890002046414652464B4600F0B4F9002818BF96
:1018A000012002B0BDE8F0872DE9F04383B0044683
:1018B00000680D4601680A9F0B9E41F480719946AD
:1018C0009046016020464FF0011100223B460096F1
:1018D00000F0AEF850B120680068C00544BF4FF476
:1018E00000702064032003B0BDE8F083206805F099
:1018F000FE0101610221C0F2010120463A46334651
:1019000000F080F920B1012003B0BDE8F08300BFF2
:101910000020029020683246416902918069394670
:1019200002900298204600F025FA58B1206C042855
:10193000E9D12068016841F400710160012003B021
:10194000BDE8F0832068B9F1010F0AD04FEA1821F1
:10195000016120463946324600F00CFA0028E5D1F4
:1019600020685FFA88F10161002003B0BDE8F083D0
:1019700070B50368044653F8140F400711D40E469F
:10198000481C29D086BB00BF1868400527D4FFF744
:10199000BBF8236853F8140F400739D5186840077F
:1019A000F2D5002070BD00BF18684007F9D4186850
:1019B000400514D418684007F3D4186840050ED4C5
:1019C00018684007EDD41868400508D41868400727
:1019D0004FF0000048BF70BD18684005E4D56FF4B3
:1019E00080601860042014E0154603E053F8140FDB
:1019F0004007D6D418684005F1D4FFF785F8401B9E
:101A00002368B042F2D958694007EFD4202000E0A3
:101A1000202000212022216384F83D2084F83E10FC
:101A2000226C10432064012084F83C1070BD00003B
:101A30002DE9F041054600681E46144601F47F0278
:101A400001338FB242D0DDF81880B2F5803F40F00C
:101A5000878040693840C01BB0FA80F04009A0423E
:101A600040F0C8804EB924E040693840C01BB0FA4D
:101A700080F04009A04240F0BD80FFF745F8A0EBA0
:101A800008012868B142EFD941693940C91BB1FA50
:101A900081F14909A142E7D19BE000BF406938408C
:101AA000C01BB0FA80F04009A0424FF0000040F0A7
:101AB000A680FFF729F8286841693940C91BB1FAA7
:101AC00081F14909A142E9D183E000BFB2F5803F2D
:101AD00024D100BF41693940C91BB1FA81F14909DC
:101AE000A14240F0878041693940C91BB1FA81F1B8
:101AF0004909A14240F07E8041693940C91BB1FAD1
:101B000081F14909A14275D141693940C91BB1FA36
:101B100081F14909A142DDD06CE000BF8169394003
:101B2000C91BB1FA81F14909A14263D181693940E8
:101B3000C91BB1FA81F14909A1425BD181693940E0
:101B4000C91BB1FA81F14909A14253D181693940D8
:101B5000C91BB1FA81F14909A142DFD04AE000BFB7
:101B600080693840C01BB0FA80F04009A04241D1E2
:101B700046B923E080693840C01BB0FA80F04009C4
:101B8000A0423BD1FEF7C0FFA0EB08012868B1429C
:101B9000F0D981693940C91BB1FA81F14909A142E3
:101BA000E8D116E080693840C01BB0FA80F04009E7
:101BB000A0424FF0000018BFBDE8F081FEF7A4FF7F
:101BC000286881693940C91BB1FA81F14909A142EC
:101BD000E8D100202021286385F83D1085F83E00DB
:101BE000296C41F02001296485F83C000120BDE802
:101BF000F08100BF0020BDE8F08100BF0020BDE8FB
:101C0000F0810000F0B581B0044600681D464369CC
:101C10008FB203EA0701B94202D1002001B0F0BD42
:101C200041691646013201F4806125D0002940D176
:101C3000CEB100BFFEF768FF411B2068B14203D957
:101C400041693940B9424BD141693940B942E4D088
:101C500041694905EED52CE041693940B942DCD0F3
:101C60004169490525D4FEF74FFF20684169394095
:101C7000B942F1D0202024E0D9B941693940B942B4
:101C8000CBD04169490514D441693940B942C4D027
:101C9000416949050DD441693940B942BDD0416916
:101CA000490506D441693940B942B6D04169490570
:101CB000E3D5016841F4007101606FF48061416116
:101CC000042000212022216384F83D2084F83E1066
:101CD000226C1043206484F83C10012001B0F0BD58
:101CE0002020EEE770B504460068154650F8143F12
:101CF0005A063DD40E4629B926E000BF50F8141FFD
:101D0000490635D40168C90621D4FEF7FDFE411B02
:101D10002068B142F2D941694906EFD40020202160
:101D2000206384F83D1084F83E00206C40F02000D1
:101D300018E000BFFEF7E8FE206850F8141F4906BF
:101D4000ECD50168490613D40168C906F2D56FF0D5
:101D50001001016000202021206384F83D1084F8E8
:101D60003E00206C2064002084F83C00012070BDFF
:101D7000002070BD70B50368044653F8140F0006C8
:101D800011D40E46481C29D086BB00BF18684005F8
:101D900027D4FEF7B9FE236853F8140F000639D58F
:101DA00018680006F2D5002070BD00BF1868000654
:101DB000F9D41868400514D418680006F3D41868DC
:101DC00040050ED418680006EDD41868400508D404
:101DD000186800064FF0000048BF70BD1868400545
:101DE000E4D56FF480601860042014E0154603E029
:101DF00053F8140F0006D6D418684005F1D4FEF746
:101E000083FE401B2368B042F2D958690006EFD424
:101E1000202000E0202000212022216384F83D20A2
:101E200084F83E10226C10432064012084F83C109A
:101E300070BD0000FEE70000FEE7000070470000F4
:101E400070470000FFF732B94EF68850CEF200001E
:101E5000016841F4700101607047000070B58CB0FA
:101E600040F2B404192004AEC2F200044FF0FF3572
:101E7000CDE900602046EC21882201230295FEF77F
:101E800005FF06F119000721CDE900012046EC21EC
:101E9000E12201230295FEF7F9FE049940F2700059
:101EA0009DF815209DF81430C2F20000C0F8021011
:101EB00043EA02219DF81730C18042EA03219DF8D0
:101EC00019209DF81630018143EA02214181DDF895
:101ED0001A10DDF81E20C160BDF822100261818257
:101EE00009999DF82820C0F81610BDF829104283E2
:101EF0009DF82B2081839DF82D10C2839DF82C2006
:101F000001F00F0343EA02129DF82E3002841A01F9
:101F100042EA11119DF82F20418482840CB070BDDB
:101F2000FEE7000094B043F6300647F20005C4F225
:101F30000206C4F20005FFF7C7F808AC201D2C21EB
:101F4000FEF744FA00270797CDE90577CDE9037737
:101F50000297306940F080503061306900F0805065
:101F6000029002980297286840F480402860286810
:101F700000F48040029002980220089001200B900B
:101F800010200C9020460E97FFF730FA10B172B671
:101F9000FEE700BF0F20CDE9030703A80021CDE92C
:101FA00005770797FFF728F910B172B6FEE700BF73
:101FB00000270C970397306805F5CE3440F00800F1
:101FC000306030684FF4004100F00800039003983F
:101FD00003973068002240F00100306030684FF411
:101FE000004500F00100039003980397306840F02B
:101FF00002003060306800F0020003900398204631
:10200000FEF77CFD0120CDE9090708A920460895C7
:102010000B97FEF79FFC40F2B40045F20041C2F27C
:102020000000C4F2000148F2A0624FF48043C0F205
:10203000010280E88600C0E90373C0E90577C0E9C2
:102040000777FEF767FD18B172B600BFFEE700BF65
:102050000426022005210122032300970196FEF7A2
:1020600019FA00BFFEF7CCFA6420FEF75FFCF9E72F
:1020700021F0004201F00043A2F16052B2F5801F4E
:1020800028BFD2F17F6C0BD95FEA001C43EAC20281
:1020900042EB507018BF704728BF20F00100704716
:1020A000B2F5801FBCBF184670474FEA410C1CF5C3
:1020B000001F02D2084600F09CBA70B500F038FA52
:1020C00000000089FFF7F6BF4FF00040A0F5800048
:1020D000704700002DE9C04130B4DFF8A4C23CEAEB
:1020E000111418BF3CEA131400F0ED801CEA11141F
:1020F00081EA030544EAD57418BF1CEA131500F001
:10210000C880A4EB050404F17F7404F500344FF09B
:10211000004545EAC12145EAC32341EA505143EA5B
:1021200052534FEAC0204FEAC222994208BF904260
:1021300000F09D804FEA13650FF24416765D4FEA7A
:10214000134506FB05F7C7F1807706FB07F74FEA53
:10215000D737A7FB03687642A7FB06CEC8F58038C1
:1021600038BFA8F1010807FB08E6A6FB028C4FF078
:10217000000EE6FB03CEDCF1000CCEF1004E38BFC2
:10218000AEF1010EA6FB0C584FF00007E6FB0E87E0
:10219000A1FB08C6A0FB07CE16EB0E064FF000050C
:1021A00045F10005E1FB076515F1E04E7EBFA4F5A2
:1021B00080345FEA46066D4116F1800745F100055F
:1021C0004FEA172747EA05674FEA15254FEA0666E3
:1021D000A6F1DE46B6F1805F20D9384605EBC47122
:1021E00024F0010C01EB0C11BCF1FE6F02D8F0BC25
:1021F000BDE8008124425CBF01F5801E9EEAC47FD9
:1022000002D4F0BCBDE80081244200F13980A1F184
:10221000C041F0BCBDE8004100F0D8B94FEAD02081
:1022200040EA41504FEAD1214FEAD22242EA4352DA
:102230004FEAD323A7FB028607FB036605FB026672
:102240001EEA0E0F58BFA6EB0056B6EB00564FEA3B
:10225000520E4EEAC37E18EB0E0E56EB530EBCD553
:1022600018EB02085E417F1C55F10005B5E74FF4FD
:1022700080154FF000074FF000064FF00008ACE764
:1022800001F1C04101F000414FF00000F0BCBDE899
:1022900000810CEA131511EA0C1F00D00CE013EAC0
:1022A0000C1F00F026804FF0000081EA030101F0CE
:1022B0000041F0BCBDE80081F0BCBDE8004181EA0E
:1022C000030100F083B9F0BCBDE8004170B500F037
:1022D0002FF900BF097EFC3E00F007B84FF0000068
:1022E00081EA030101F00041704781EA030100F037
:1022F0006DB9F0BCBDE8004122494FF000007047C5
:10230000FFFDFBF9F7F5F4F2F0EEEDEBE9E8E6E4BA
:10231000E3E1E0DEDDDBDAD8D7D5D4D3D1D0CFCD41
:10232000CCCBCAC8C7C6C5C4C2C1C0BFBEBDBCBB7A
:10233000BAB9B8B7B6B5B4B3B2B1B0AFAEADACAB75
:10234000AAA9A8A8A7A6A5A4A3A3A2A1A09F9F9E4F
:102350009D9C9C9B9A999998979796959594939301
:10236000929191908F8F8E8E8D8C8C8B8B8A898998
:10237000888887878685858484838382828181801B
:102380000000FF070000F87F10F0004248BF404205
:10239000B0FA80F310FA03F10AD0C3F11D0303F57C
:1023A000806302EB03524FEA415002EBD1217047A8
:1023B0004FF000007047B0FA80F310FA03F10AD032
:1023C000C3F11D0303F580634FEA03524FEA415006
:1023D00002EBD12170474FF00000704770B5DFF875
:1023E00048C11CEA111E1EBF1CEA13159EEA0C0F01
:1023F00095EA0C0F00F06F8081EA03044EEAD47E68
:10240000AE4421EA4C1123EA4C1341F4801143F409
:102410008013AEF17F7EA1FB024CA0FB0365361951
:1024200055EB0C05A1FB034C4CF10003A0FB021C77
:1024300016EB0C06654153F10003094218BF46F044
:10244000010613F4007F0BD14FEA03314FEA053048
:1024500041EA155140EA165034036FF003020AE0D6
:102460004FEAC3214FEAC52041EA555140EA565090
:10247000F4026FF0020202EB2E4201EB025585EAF4
:10248000CE710AD05FEA440C18BF24F0004450F12A
:10249000000041F1000120EAD47040F2FE7C624568
:1024A00000D270BDA84214BF4FF080444FF04044AA
:1024B000002E08BF0024BEF1806FA8BFA1F1C0416B
:1024C000BDE8704080F2828001F1C04101F000411E
:1024D0004FF0000070470CEA13159EEA0C0F18BF6E
:1024E00095EA0C0F06D081EA030E4FF000000EF0C3
:1024F000004170BD00F01CF88900013E00F007B8F3
:1025000000F009B84FEA430C5FEA5C5C08D081EA4E
:10251000030100F05BB84FEA410C5FEA5C5CF6D166
:1025200002494FF0000070470000FF070000F87FED
:102530000EF1020E2EF0030E5EF8046B364205D447
:10254000012A43EB030515F5001F12D8012841EBC2
:10255000010C1CF5001F0CD80ED14FEAD17C0CEBFE
:102560004C0C0CF1020C15F5001F08BF4CEBD37C92
:1025700004E04FF0080C01E04FEAD37C0CEB4C0573
:1025800026FA05F606F00706B6F1040C06D20EEBA5
:10259000860CBDE870404CF0010C6047DFE80CF0A1
:1025A000090B02024FF00041A1F500214FF000009D
:1025B00070BD19461046012851EB010418BFD4F52F
:1025C000001484BF002001F0004170BD0808A0F590
:1025D00000114FEA31017047F1EE100A4FF6FF711A
:1025E000C0F2C03120EA010040F04070E1EE100A74
:1025F0007047FF2141EAD050C0057047000000003D
:1026000000000000010203040607080900000000A2
:10261000010203043826000800000020100000001A
:10262000C401000848260008100000200007000030
:10263000E0010008000000000100000010000000A0
:082640000024F400000000007A
:040000050800018965
:00000001FF
