:020000040800F2
:10000000D807002029020008311900082919000822
:100010002D190008D5030008551C00080000000039
:100020000000000000000000000000003919000876
:10003000F103000800000000351900083D19000810
:10004000430200084302000843020008430200087C
:10005000430200084302000843020008430200086C
:10006000430200084302000843020008430200085C
:10007000430200084302000843020008430200084C
:10008000D9030008430200084302000843020008A5
:10009000430200084302000843020008430200082C
:1000A000430200084302000843020008430200081C
:1000B000430200084302000843020008430200080C
:1000C00043020008430200084302000843020008FC
:1000D00043020008430200084302000843020008EC
:1000E00043020008430200084302000843020008DC
:1000F00043020008430200084302000843020008CC
:1001000043020008430200084302000843020008BB
:1001100043020008430200084302000843020008AB
:100120004302000843020008E503000843020008F8
:10013000430200084302000843020008430200088B
:10014000430200084302000843020008430200087B
:10015000430200084302000843020008430200086B
:10016000430200084302000843020008430200085B
:100170004302000843020008430200080000000098
:10018000430200084302000800F002F800F03CF8C7
:100190000AA090E8000C82448344AAF10107DA45E2
:1001A00001D100F031F8AFF2090EBAE80F0013F0F8
:1001B000010F18BFFB1A43F001031847DC1C0000B5
:1001C000FC1C0000103A24BF78C878C1FAD8520746
:1001D00024BF30C830C144BF04680C6070470000C1
:1001E0000023002400250026103A28BF78C1FBD840
:1001F000520728BF30C148BF0B6070471FB501F0E0
:1002000031FE1FBD10B510BD00F0A9F81146FFF773
:10021000F5FF01F021FD00F0C7F803B4FFF7F2FF8E
:1002200003BC00F0CFF800000948804709480047A8
:10023000FEE7FEE7FEE7FEE7FEE7FEE7FEE7FEE796
:10024000FEE7FEE704480549054A064B70470000F3
:10025000E519000889010008D8010020D80700200E
:10026000D8030020D803002053EA020C00F0698074
:100270002DE9F04B4FF00006002B1FBFB3FA83F5BA
:1002800003FA05F424FA05F65E4012BF1643B2FAEB
:1002900082F502FA05F4C5F120051EBF22FA05FC1D
:1002A00044EA0C04203556EA044C4FEA144418BFC3
:1002B000641C4FF000084FF00009904271EB030CF2
:1002C00039D3002919BFB1FA81F701FA07F6B0FA5C
:1002D00080F700FA07F6C7F120071EBF20FA07FCD7
:1002E00046EA0C062037B6FBF4FCA7EB0507103FE7
:1002F00007F01F0BCBF120062CFA06F60CFA0BFBCD
:1003000044BFB3460026202FA4BF5E464FF0000B2B
:100310005BEA060C08BF4FF0010B19EB0B0948EB29
:100320000608ABFB027C06FB02CC0BFB03CCC01B1C
:1003300071EB0C01C1E70B46024641464846BDE859
:10034000F08B13B5084318BF4FF0FF300146AFF3F1
:100350000080BDE81C407047704770477047754685
:1003600000F02CF8AE4605006946534620F0070021
:10037000854618B020B5FFF765FFBDE820404FF077
:1003800000064FF000074FF000084FF0000BAC469E
:10039000ACE8C009ACE8C009ACE8C009ACE8C009E9
:1003A00021F007018D46704710B50446AFF3008079
:1003B0002046BDE81040FFF730BF000000487047FE
:1003C0001000002001491820ABBEFEE72600020005
:1003D00070470000FEE7000040F22810C2F2000063
:1003E00000F00CB840F2C800C2F2000000F006B8FD
:1003F0007047000072B600BFFEE70000F0B581B0A4
:1004000004460020009040F20800C2F2000002689A
:10041000D4E9166048F2B51337680821C1F64E33A7
:1004200081403942A2FB03250CD0226813685B0788
:1004300008D5136823F004031360B160616D41F0C7
:100440000101616501218140394208D02268526969
:10045000120604D5B160616D41F0020161650421AD
:100460008140394208D022681268920704D5B160F1
:10047000616D41F00401616510218140394217D05E
:1004800020680268120713D5B16002680168520340
:1004900008D4C90508D4016821F008010160216C65
:1004A00021B905E008033FD4216C09B120468847F3
:1004B000E16D202000FA01F23A4241D02068036841
:1004C000DB063DD5B26094F835300268052B1BD1B0
:1004D00022F016020260426922F080024261226C20
:1004E0000AB9A26C1AB1026822F0080202603F2029
:1004F0008840B060012084F83500216D002000297B
:1005000084F8340052D157E00168520310D4C90571
:1005100012D4016821F010010160012084F8350037
:10052000002084F8340007E0A16C0029BED1BFE7A9
:10053000080301D4616C00E0E16B09B120468847F3
:10054000606DC8B3606DC0072ED0052084F83500FB
:100550002068A90A026822F001020260009A0132B2
:100560008A4200921AD80268D20717D0009A013244
:100570008A42009212D80268D2070FD0009A013244
:100580008A4200920AD80268D20707D0009A013244
:100590008A42009202D80268D207DFD1012084F893
:1005A0003500002084F83400E16C29B1204601B008
:1005B000BDE8F040084700BF01B0F0BD2DE9F041B3
:1005C000044600F0D7F9ECB10546022084F8350066
:1005D0000020216884F83400086820F001000860D9
:1005E00021680868C00711D000F0C4F9401B052835
:1005F000F6D9032520230320636584F83550BDE830
:10060000F08100BF0120BDE8F08100BF086848F21A
:100610003F02CFF21002D4E9013500EA020C04F1E6
:100620000C0898E8C10143EA0C032B431843D4E9B2
:10063000072E304338431043626A40EA0E00042A12
:1006400040EA08031CD1206BD4E90A2E40EA0E00D0
:10065000184308604869BEF1000F20F0030040EA2B
:10066000020040F0040C11D0B8F5005F36D0B8F1AC
:10067000000F45D1022A46D0012A3BD032B942E0D0
:100680000B60486920F0070040EA020C01F0F80016
:100690004AF6AB221038CAF6AA22A0FB02231A0996
:1006A00041F68E63C0F600039A5C40F2FF335F2888
:1006B0004FF03F00C1F814C021EA030100FA02F034
:1006C00088BF0431C4E91612886000230125002088
:1006D000636584F83550BDE8F08100BF032AD5D8A2
:1006E000012540230120DFE802F0030E030500BFCF
:1006F00082E700BFAEF1C070B0FA80F0400904E0BC
:10070000032A04D3C2D1CEF300600028BED0012555
:1007100040230120636584F83550BDE8F081000076
:1007200070B590F834C0BCF1010F46D04FF0010C09
:1007300080F834C0D0F858E090F835C0BCF1010F13
:1007400038D14FF0020C80F835C04FF0000CC0F8E3
:1007500054C0D0F800C08468056CC06DDCF800603F
:10076000402C26F48026CCF80060CCF804300B46F0
:1007700004BF13460A463F2101FA00F0CCF80830C6
:10078000CCF80C20CEF80800DCF8000040F0160091
:10079000CCF800002DB1DCF8000040F00800CCF8E7
:1007A0000000DCF8000040F00100CCF80000002060
:1007B00070BD00BF002180F83410022070BD000021
:1007C0002DE9F04F82B000F13E4241F6004502F1C2
:1007D000FF77C4F20205082243F6004E4FEAB7261F
:1007E000A84208BF0722C4F2010E072E38BF4FEA05
:1007F000B7220125002600274FF00008009208E0EC
:1008000008F101080437B8F1100F06F1020600F0F4
:10081000A7800C6805FA08F914EA090FF0D0D1F89E
:1008200004B003220BF0030CACF10104B240012C24
:100830006FEA020A10D88268CC6802EA0A02B44061
:10084000224382604268CBF3001422EA090204FAD0
:1008500008F42243426005E0BCF1030F02D14FF0DF
:10086000030C20E0C2688C6802EA0A02B44022430A
:10087000BCF1020FC26016D16FF0030202EA580207
:100880000244D2F820C007F01C050F230C69AB40CE
:100890002CEA030304FA05F52B431362D1F804B0E4
:1008A00001250BF0030C02680CFA06F302EA0A02B7
:1008B0001A431BF4403F0260A2D0002243F64403D7
:1008C0000192C4F202031A684FF6084C42F48042C7
:1008D0001A601A68CFF6FF7C02F480420192019AF6
:1008E00028F00302724452F80C3007F00C050F2474
:1008F000AC40A343009C04FA05F52B4342F80C30AE
:10090000DEF808204B6842EA090543F60C4CDC028D
:1009100058BF22EA0905CEF80850C4F2010CDCF8F1
:1009200000209C0242EA090558BF22EA0905CCF8DA
:100930000050DEF804209C0342EA090558BF22EA71
:100940000905CEF80450DEF80020DB0342EA090571
:1009500058BF22EA0905CEF80050012550E700BF34
:1009600002B0BDE8F08F00000069084018BF012008
:100970007047000040F2D010C2F2000000687047DB
:1009800040F2000040F2D011C2F20000C2F20001B9
:1009900000780A68104408607047000080B543F68C
:1009A0000040C4F20200016841F400710160016876
:1009B00041F480610160016841F4807101600320AD
:1009C00000F088F80F2000F005F800F027F800206C
:1009D00080BD000070B540F20006C2F2000640F291
:1009E00008013278C2F200014FF47A730968B3FB50
:1009F000F2F20446B1FBF2F1084600F01BFB0F2CAB
:100A00004FF0010508D838B94FF0FF3021460022D9
:100A1000002500F033F87460284670BD82B00020D5
:100A200043F640010190C4F202014A6842F4804258
:100A30004A604A6802F480420192019A0090086874
:100A400040F080500860086800F0805000900098E6
:100A500002B07047002848BF7047C1B200F01F00C5
:100A6000012202FA00F04EF20012CEF2000242EA37
:100A7000D10121F0030108607047000010B54EF667
:100A80000C5CCEF2000CDCF80030C3F3022E8EF0CA
:100A90000704042C28BF0424BEF103034FF0FF3EDB
:100AA0000EFA04F438BF0023A14399400EFA03F371
:100AB0009A43114300F00F0200F160430901043A28
:100AC00003F564436244002848BF02F10C03197027
:100AD00010BD00004EF60C51CEF200010A684FF630
:100AE000FF031A4060F30A2242F0806040F0FD707C
:100AF000086070472DE9F041002800F08B8043F634
:100B00000808C4F202080446D8F8F8030D4600F0BD
:100B10000700884207D288F8F853D8F8F80300F0A5
:100B20000700A84276D12068810717D5410705D56F
:100B3000D8F8001041F4E051C8F80010010705D5BD
:100B4000D8F8001041F46041C8F80010D8F800103F
:100B5000A26821F0F0011143C8F80010C0073FD18E
:100B6000D8F8F80300F00700A84207D988F8F8532E
:100B7000D8F8F80300F00700A8424BD120684107DD
:100B800007D5D8F80010E26821F4E0511143C8F805
:100B90000010000708D5D8F80000216920F4604053
:100BA00040EAC100C8F8000000F054F8D8F800107E
:100BB00041F67E62C1F30311C0F60002515C40F2BF
:100BC000080220FA01F140F20400C2F200000068BD
:100BD000C2F200021160FFF7FDFE0020BDE8F081C7
:100BE0006068811E022907D258F8081C89015CBF81
:100BF0000120BDE8F08111E0012807D158F8081C58
:100C000089035CBF0120BDE8F08107E058F8081CAB
:100C1000890703D40120BDE8F08100BFD8F8001097
:100C200021F003010843C8F80000FFF7A3FE0646C1
:100C300041F28837D8F80000616800F00C00B0EB92
:100C4000810F8DD0FFF796FE801BB842F2D90320AA
:100C5000BDE8F08110B543F60404C4F202046068F4
:100C600000F00C0008280BD0042819BF42F2004005
:100C7000C0F2F40047F64000C0F27D1010BD00BF86
:100C8000206821682368490247F64001C0F27D11BF
:100C900000F03F02C3F388105CBF42F20041C0F293
:100CA000F401A1FB00010023FFF7DEFA2168022214
:100CB000C1F3014102EB4101B0FBF1F010BD0000B6
:100CC0002DE9F04182B0002868D00446007843F650
:100CD0000006C007C4F202060BD0B06800F00C009A
:100CE000042840F09F803068800302D560680028A7
:100CF00054D0207880071AD5B06810F00C0F09D0B6
:100D0000B06800F00C00082840F0A680706840022F
:100D100000F1A2803068800702D5E06801283DD14B
:100D20003068216920F0F80040EAC1003060207886
:100D3000000737D4207840074CD4A56955B3B06874
:100D400000F00C00082840F0BB80012D26D0706810
:100D5000E16900F480028A4220D1216A00F03F025A
:100D60008A421BD147F6C071626A0140B1EB821F13
:100D700014D1A16A4FF6FF73C903994300F44032BE
:100D8000A1F580318A4209D1E16A00F07060B0EBD0
:100D9000016F03D1002002B0BDE8F081012002B054
:100DA000BDE8F0816069002840F20000C4F24720ED
:100DB00076D00121C0F8801EFFF7DCFD054600BF9C
:100DC000706F8007B6D4FFF7D5FD401B0228F7D916
:100DD000DDE000BF306C10F080580AD10020019097
:100DE000306C40F080503064306C00F080500190E6
:100DF000019847F20007C4F200073868C00541D4E3
:100E0000386840F480703860FFF7B4FD054600BFD5
:100E10003868C00536D4FFF7ADFD401B0228F7D96E
:100E2000B5E000BFB06800F00C00082803D170687E
:100E300040023FF558AF6068B0F5803F07D0B0F58D
:100E4000A02F40F08D80306840F480203060306802
:100E500040F4803030608DE0E068002852D00020FF
:100E6000C4F2472001210160FFF784FD054600BF61
:100E7000306880073FF554AFFFF77CFD401B022828
:100E8000F6D984E0A068012805D005284ED1306F3E
:100E900040F004003067306F40F0010030674FE0F1
:100EA0000021C0F8801EFFF765FD0546706F8007C2
:100EB0007FF540AFFFF75EFD401B0228F6D966E0E4
:100EC0000027C4F2472700203866FFF753FD022DA4
:100ED00005460BD1306880015ED5FFF74BFD401B06
:100EE00002284FF00300F5D955E700BF30688001B4
:100EF0007FF550AFFFF73EFD401B02284FF0030087
:100F0000F4D948E70020C4F2472000210160FFF730
:100F100031FD0546306880077FF509AFFFF72AFDF0
:100F2000401B02284FF00300F4D934E7316F00284A
:100F300021F001013167316F21F0040131674DD09B
:100F4000FFF718FD054641F2883700BF306F800774
:100F500056D4FFF70FFD401BB842F7D917E000BF8A
:100F60003168002821F480313160316821F480211A
:100F700031604FD0FFF7FEFC054600BF30688003AC
:100F80003FF5B7AEFFF7F6FC401B6428F6D9032007
:100F900002B0BDE8F08100BF04F11C052FCD08436D
:100FA00040EA8210D9034FF6FF729143A1F58031D8
:100FB00040EA05600843706001203866FFF7DAFCFC
:100FC000044600BF306880013FF5E4AEFFF7D2FC75
:100FD000001B02284FF00300F4D9DCE6FFF7CAFC3F
:100FE000054641F2883700BF306F800708D5FFF70C
:100FF000C1FC401BB8424FF00300F5D9CBE600BF5F
:10100000B8F1000F7FF499AE306C20F0805030645E
:1010100093E600BFFFF7AEFC054600BF30688003D3
:101020007FF567AEFFF7A6FC401B64284FF0030076
:10103000F4D9B0E6411E0020B0EB116F1CBF0120B7
:1010400070474EF21002CEF2000251604EF623516C
:10105000CEF20001F0230B70072190601160704701
:1010600010B590F83C20012A4FF0020251D080F8D0
:101070003D200268D2F804E0D2F808C00C682EF0D7
:101080007003234341F2FF74C4F20004A242536090
:101090000EDC40F2FF73C4F200039A4216DCB2F198
:1010A000804F2BD040F20043C4F2000324E000BF85
:1010B00040F2FF33C4F201039A4213DC41F600030D
:1010C000C4F200039A4219D0002313E040F6000353
:1010D000C4F200039A4211D040F60043C4F2000368
:1010E0000AE000BF44F20003C4F201039A4205D0B3
:1010F00040F20043C4F201039A4204D149682CF043
:101100008003194391600121002280F83D1080F88E
:101110003C20104610BD0000002804BF012070478D
:1011200010B5044690F83D0028B9002084F83C0032
:10113000204600F01FF8022084F83D002068211DA1
:1011400000F05AFC012084F8460084F83E0084F840
:101150003F0084F8400084F8410084F8420084F89D
:10116000430084F8440084F8450084F83D000020E2
:1011700010BD000070B586B0044600680026B0F1CE
:10118000804F0596CDE903660296019656D0002160
:10119000C4F20101884240F09D80002643F63000F1
:1011A0000096C4F20200416941F0010141614169C8
:1011B00001F00101009100990096016841F01001D1
:1011C0000160006801A900F01000009000984FF441
:1011D000006001900220CDE9020601200590002068
:1011E000C4F2020000F580500496FFF7E9FA46F2D7
:1011F0008800C4F2020040F2C80500F56E70C2F229
:1012000000054FF040614FF4805385E8430005F13D
:1012100014004FF480624FF4804C4FF4807E80E8DD
:1012200008502846C5E90362C5E90866FFF7C6F914
:10123000002818BFFFF7DEF8A56248E043F630004B
:101240000096C4F20200016941F0010101610169E7
:1012500001F00101009100990096016841F001013F
:1012600001600068022100F0010000900098012058
:101270000190CDE904600020CDE90216C4F202001D
:1012800001A9FFF79DFA40F2281546F28800C2F244
:101290000005C4F202004FF0C0614FF4805385E8AE
:1012A000430005F114004FF480624FF4804C4FF47A
:1012B000807E80E808502846C5E90362C5E90866D3
:1012C000FFF77CF9002818BFFFF794F8656205F175
:1012D0003800046006B070BD80B590F83C20012A4B
:1012E0004FF0020200F0C28080F83D20D0F800C02C
:1012F0004FF67772DCF8083023EA0202CCF80820B7
:101300000B684F2B28DC1F2B44DD202B45D0302BC6
:1013100043D0402B40F0AC80D1F804E0C968DCF841
:101320002030DCF8202022F00102CCF82020DCF86C
:10133000182022F0F00242EA011123F00A0242EAE8
:101340000E02CCF81810CCF82020DCF8081041F080
:10135000470121F0300180E06F2B27DDB3F5005FFE
:1013600048D0B3F5805F7AD0702B40F08180D1E90E
:1013700001E3C968DCF8082043EA0E0322F47F4247
:1013800043EA01211143CCF80810DCF8081041F0C1
:10139000770162E00BB1102B6AD1DCF8081021F064
:1013A0007001194341F0070157E000BF502B35D0C1
:1013B000602B5DD1D1F804E0C968DCF82030DCF89E
:1013C000202022F01002CCF82020DCF8182022F493
:1013D000704242EA013123F0A00242EA0E12CCF838
:1013E0001810CCF82020DCF8081041F0670121F03B
:1013F000100132E0D1E901E3C968DCF8082043EAD2
:101400000E0322F47F4243EA01211143CCF8081075
:10141000DCF8081041F480411FE000BFD1F804E07F
:10142000C968DCF82030DCF8202022F00102CCF87A
:101430002020DCF8182022F0F00242EA011123F00B
:101440000A0242EA0E02CCF81810CCF82020DCF890
:10145000081041F0570121F02001CCF808100022BB
:10146000012180F83D10002180F83C10104680BD1D
:101470000122F5E77047000000680021C4F2010175
:1014800088420BD0B0F1804F18BF704740F28810EF
:10149000C2F20000006800214162704740F2700013
:1014A000C2F2000010300068002141627047000065
:1014B00070470000F0B590F83C30012B04BF0220CB
:1014C000F0BD4FEAB202032A28D8DFE802F0032D6C
:1014D0004B6B00BF0368D1E900C5D1F80CE01C6A72
:1014E0001A6A41F2FF7722F001021A621A4652F894
:1014F000186FC4F20007BB427ADC40F2FF77C4F2F7
:101500000007BB4200F38280B3F1804F00F0968069
:1015100040F20047C4F200078EE000BF0121002224
:1015200080F83C200846F0BD0368D1E900E6D1E927
:1015300002C11C6A1A6A360222F010021A621A46A6
:1015400052F8185F4FF2FF07BE4325F4734561F36D
:101550000F3624F0A0040EF00A0746EA050144EA1B
:1015600007173CE00768D1E900C5D1E902313C6AC0
:101570003A6A61F3071522F480723A623A4652F8E9
:101580001C6F26F0F30645EA060124F420660CF0F1
:101590000A0546EA052611603E62116821F00C0139
:1015A00011605CE00368D1E900E6D1E902C11C6A80
:1015B0001A6A360222F480521A621A4652F81C5FE6
:1015C0004FF2FF07BE4325F4734561F30F3624F451
:1015D00020440EF00A0746EA050144EA0737116085
:1015E0001F6211684FEA0C2321F44061116036E05C
:1015F00040F2FF37C4F20107BB4213DC41F600079B
:10160000C4F20007BB4219D0002713E040F60007E0
:10161000C4F20007BB4211D040F60047C4F20007F5
:101620000AE000BF44F20007C4F20107BB4205D044
:1016300040F20047C4F20107BB4219D126F003066D
:10164000354324F00A070CF00A066EF307153744F9
:101650009D611F629F6927F00C079F618B6811686D
:10166000194311600021002280F83C200846F0BD9B
:1016700046F00105E5E70000002804BF012070479F
:1016800010B5044690F83D0028B9002084F83C00CD
:10169000204600F01FF8022084F83D002068211D3C
:1016A00000F0AAF9012084F8460084F83E0084F88E
:1016B0003F0084F8400084F8410084F8420084F838
:1016C000430084F8440084F8450084F83D0000207D
:1016D00010BD00007047000070B5064641B10829F2
:1016E0000CD0042910D106F13F0006F143040FE0AD
:1016F00006F13E0006F142040AE000BF06F1400098
:1017000006F1440404E000BF06F1410006F145047F
:1017100005782478022D4FF0020018BF022C01D169
:1017200070BD00BF012D4FF0010008BF012CF7D1A3
:10173000002A4FF0010018BF002BF1D0022049B160
:1017400008290DD0042911D186F83F0086F84300FE
:1017500010E000BF86F83E0086F842000AE000BFB5
:1017600086F8400086F8440004E000BF86F8410097
:1017700086F84500D6F800C001F01F050120DCF80E
:10178000204000FA05F5AC43CCF82040DCF82040BE
:101790004FEAB10125430329CCF8205000F27C80A8
:1017A000DFE801F0021E3A56706A41F64531C0F694
:1017B0000001C163706A41F6BD31C0F600010164E9
:1017C000706A41F6F531C0F60001C164706A0CF12F
:1017D0003401FEF7A5FF002852D14FF4007053E00A
:1017E000B06A41F64531C0F60001C163B06A41F606
:1017F000BD31C0F600010164B06A41F6F531C0F6B2
:101800000001C164B06A0CF13801FEF789FFB8BB72
:101810004FF4806038E000BFF06A41F64531C0F611
:101820000001C163F06A41F6BD31C0F600010164F8
:10183000F06A41F6F531C0F60001C164F06A0CF1BE
:101840003C01FEF76DFFD8B94FF400601CE000BF0B
:10185000306B41F64531C0F60001C163306B41F693
:10186000BD31C0F600010164306B41F6F531C0F6C0
:101870000001C164306B0CF14001FEF751FF08B16B
:10188000012070BD4FF48050D6F800C0DCF80C1079
:101890000843CCF80C00002041F2FF71C4F20001B3
:1018A0008C450DDC40F2FF71C4F200018C4515DC63
:1018B000BCF1804F2AD040F20041C4F2000123E085
:1018C00040F2FF31C4F201018C4513DC41F6000106
:1018D000C4F200018C4519D0002113E040F600014C
:1018E000C4F200018C4511D040F60041C4F2000161
:1018F0000AE000BF44F20001C4F201018C4505D0AA
:1019000040F20041C4F201018C4506D1DCF8081018
:1019100001F00701062908BF70BDDCF8001041F096
:101920000101CCF8001070BDFEE70000FEE70000EA
:10193000FEE700007047000070470000FFF720B886
:10194000B0B592B0002443F640000B94CDE90944B1
:10195000CDE907440594CDE90344CDE90144009461
:10196000C4F202000168022541F080510160006864
:1019700000F080500090009847F200000094C4F2FC
:101980000000016841F480410160006800F480407B
:10199000009000980120099010200A9008200E90D5
:1019A0003C20CDE90F050420119006A80695CDE94D
:1019B0000C54FFF785F918B172B600BFFEE700BFFF
:1019C0000F20CDE901058020CDE9030401A8002105
:1019D0000594FFF78FF818B172B600BFFEE700BF9D
:1019E00012B0B0BD4EF68850CEF20000016841F44E
:1019F000700101607047000010B540F6FF3E0368BB
:101A0000C4F2000E40F2004C7045C4F2010C27DC19
:101A1000B0F1804F31D040F20042C4F20002904257
:101A20002BD040F60002C4F20002904225D041F6CD
:101A3000FF72C4F20002904229DC70453CDCB0F138
:101A4000804F5FD040F20042C4F20002904259D071
:101A500040F60002C4F20002904253D056E000BFAC
:101A600040F60042C4F20002904206D0604504D025
:101A70000022C4F201029042D9D14A6823F07003D7
:101A8000134341F6FF72C4F200029042D5DD43F6E3
:101A9000FF72C4F20102904222DC42F20002C4F260
:101AA000000290422ED00022C4F20102904229D0BE
:101AB000604527D02AE000BF40F60042C4F2000291
:101AC00090421FD041F60002C4F20002904219D0A9
:101AD00041F60042C4F20002904213D016E000BF6B
:101AE00044F20002C4F2010290420BD044F600021C
:101AF000C4F20102904205D044F20042C4F2010255
:101B0000904203D1CA6823F44073134323F0800248
:101B10004B69D1F800E08C681A430260C46240F45B
:101B20008062C0F828E0624504BF096901630121B1
:101B300041610169C90708BF10BD016921F00101B8
:101B4000016110BD10B5846B616A814212D0A16A37
:101B5000814219D0E16A814220D0216B814226D195
:101B6000C0690821217710BB012084F8410084F866
:101B700045001CE0C16901202077C1B984F83E000E
:101B800084F8420013E000BFC0690221217770B9D8
:101B9000012084F83F0084F8430008E0C069042174
:101BA000217720B9012084F8400084F844002046C1
:101BB000FFF762FC0020207710BD000010B5846B99
:101BC000616A81420AD0A16A814209D0E16A8142F8
:101BD00008D0216B814207D1082004E0012002E0F7
:101BE000022000E0042020772046FFF761FC00205F
:101BF000207710BD10B5846B616A81420CD0A16A58
:101C000081420FD0E16A814212D0216B814215D00E
:101C1000012084F83D0016E00120207784F83E0082
:101C200011E000BF02202077012084F83F000AE085
:101C300004202077012084F8400004E00820207769
:101C4000012084F841002046FFF714FC0020207793
:101C500010BD0000FEE700008AB00026C4F20106B5
:101C6000FEF79CFEFFF76CFE002443F6300006945E
:101C7000C4F202000168002241F001010160016824
:101C800001F00101069106990694016841F01001E6
:101C90000160016801F0100106910699069401683F
:101CA00041F480010160016801F480010691069908
:101CB0000694016841F4001101600068002100F4FD
:101CC0000010069006981020FEF7D8FE1020FEF7B0
:101CD000C1FE3A2000210022FEF7D0FE3A20FEF796
:101CE000B9FE40F27007C2F20007384640F8106FA4
:101CF00047F22F514FF6E8520994CDE90744CDE958
:101D00000444C0E90114C0E90324C0E90544FFF715
:101D100003FA18B172B600BFFEE700BF4FF480505F
:101D200007F11004069006A92046FFF7D5FA18B16E
:101D300072B600BFFEE700BF2046FFF79DFC18B15A
:101D400072B600BFFEE700BF04A92046FFF788F97E
:101D500010B172B6FEE700BF00250120CDE90105F4
:101D60000F2003906946204604220095FFF7A2FB4E
:101D700010B172B6FEE700BF40F2881048F2A063CF
:101D8000C2F200004FF08041C0F201030995CDE995
:101D90000755CDE9045547F22F5280E82600C0E9E7
:101DA00003358561FFF7B8F910B172B6FEE700BFE1
:101DB0004FF48050069040F28810C2F2000006A94D
:101DC000FFF78AFA10B172B6FEE700BF40F2881042
:101DD000C2F20000FFF750FC10B172B6FEE700BF80
:101DE00040F28810C2F2000004A9FFF739F918B1D7
:101DF00072B600BFFEE700BF40F288150020012147
:101E0000C2F200050090CDE9011003906946284612
:101E10000022FFF74FFB18B172B600BFFEE700BF0C
:101E200007F10802204604210123FFF755FC07F1C2
:101E30000C02284600210123FFF74EFC06F58034F2
:101E400006F5883620460121FEF78EFD30464FF418
:101E50000061FEF789FD3869406A2968496AC7E967
:101E60000001EFE7F1EE100A4FF6FF71C0F2C0314A
:101E700020EA010040F04070E1EE100A70470000D7
:101E80000000000000000102030406070809000624
:101E90001016000610160000B81E000800000020F2
:101EA00010000000C4010008C81E00081000002037
:101EB000C8070000E0010008010000001000000059
:081EC0000024F4000000000002
:040000050800018965
:00000001FF
