:020000040800F2
:100000004013002055020008812B00080D24000831
:100010007D2B0008F50F00080530000800000000E7
:10002000000000000000000000000000892B000814
:10003000F90F000800000000852B0008E52D0008DE
:100040006F0200086F0200086F0200086F020008CC
:100050006F0200086F0200086F0200086F020008BC
:100060006F0200086F0200086F0200086F020008AC
:100070006F0200086F0200086F0200086F0200089C
:100080006F0200086F0200086F0200086F0200088C
:100090006F0200086F0200086F0200086F0200087C
:1000A0006F0200086F0200086F0200086F0200086C
:1000B0006F0200086F0200086F0200086F0200085C
:1000C0006F0200086F0200086F0200086F0200084C
:1000D0006F020008F92F00086F0200086F02000885
:1000E0006F0200086F0200086F0200086F0200082C
:1000F0006F0200086F0200086F0200086F0200081C
:100100006F0200086F0200086F0200086F0200080B
:100110006F0200086F0200086F0200086F020008FB
:100120006F0200086F0200086F0200086F020008EB
:100130006F0200086F0200086F0200086F020008DB
:100140006F0200086F0200086F0200086F020008CB
:100150006F0200086F0200086F0200086F020008BB
:100160006F0200086F0200086F0200086F020008AB
:100170006F0200086F0200086F0200080000000014
:100180006F0200086F02000800F002F800F052F859
:100190000AA090E8000C82448344AAF10107DA45E2
:1001A00001D100F047F8AFF2090EBAE80F0013F0E2
:1001B000010F18BFFB1A43F001031847183A00005B
:1001C000383A0000103A24BF78C878C1FAD85207EC
:1001D00024BF30C830C144BF04680C6070470000C1
:1001E0000023002400250026103A28BF78C1FBD840
:1001F000520728BF30C148BF0B607047662903F023
:100200006084642900F01E81752900F01B81732928
:1002100000F07585002070471FB503F045FC00F025
:1002200073FD04000020002103F028FCE0601FBDE6
:1002300010B510BD00F068FE1146FFF7EDFF02F0AB
:10024000E3FE00F086FE03B4FFF7F2FF03BC00F00C
:10025000C9FE00000948804709480047FEE7FEE75D
:10026000FEE7FEE7FEE7FEE7FEE7FEE7FEE7FEE766
:1002700004480549054A064B70470000E92D00086F
:1002800089010008400D002040130020400F00208D
:10029000400F002053EA020C00F069802DE9F04B7A
:1002A0004FF00006002B1FBFB3FA83F503FA05F4E5
:1002B00024FA05F65E4012BF1643B2FA82F502FA3E
:1002C00005F4C5F120051EBF22FA05FC44EA0C0422
:1002D000203556EA044C4FEA144418BF641C4FF012
:1002E00000084FF00009904271EB030C39D300294C
:1002F00019BFB1FA81F701FA07F6B0FA80F700FAF0
:1003000007F6C7F120071EBF20FA07FC46EA0C06D5
:100310002037B6FBF4FCA7EB0507103F07F01F0BD7
:10032000CBF120062CFA06F60CFA0BFB44BFB346C1
:100330000026202FA4BF5E464FF0000B5BEA060CA0
:1003400008BF4FF0010B19EB0B0948EB0608ABFB9C
:10035000027C06FB02CC0BFB03CCC01B71EB0C0137
:10036000C1E70B46024641464846BDE8F08B13B54F
:10037000084318BF4FF0FF300146AFF30080BDE8DF
:100380001C4070470FB41CB5084B06AA7B44694655
:100390000090059800F081FC04460020694600F0BA
:1003A0008FFC20461CBC5DF814FB000031090000E6
:1003B0000FB41CB50C0007AA009007D04142A1421F
:1003C00002D32044401E01E04FF0FF30074B7B4436
:1003D00069460190069800F060FC0021002C01D0D5
:1003E000009A11701CBC5DF814FB0000F9080000B5
:1003F00070B50C460546012A05D02878800600D540
:10040000EA69002302E0012305E05B1C934202D26B
:10041000E05C0028F9D1A869E618C01AA861286A2A
:10042000184428622846AFF3008004E0D5E9012192
:1004300014F8010B9047B442F8D32846AFF300807C
:1004400070BD00002DE9F0410646002410687529B2
:10045000314616A510D0AFF30080002802DA4042E2
:1004600013A507E031688A0701D512A502E0490704
:1004700004D511A5012401E0AFF3008000210A2278
:1004800006F1240709E0B0FBF2FCB0FBF2F302FB3B
:100490001C00303078541846491C0028F3D12346FC
:1004A0002A463046BDE8F04100F08AB9000000005D
:1004B0002D0000002B000000200000002DE9F04777
:1004C0004FF0000A89460446C0F820A02046E168A3
:1004D0008847002876D0252806D0D4E90121904706
:1004E000206A401C2062F1E7E16820460026884728
:1004F000C4F81CA005460027C4F818A02A2D09D06E
:10050000284603F0B3FA38B304EB8708303DC8F847
:10051000185019E059F8041B204604EB870291613A
:10052000E1688847012F054618D1E069002820DAE4
:1005300026F020061DE0D8F8180000EB800005EB3F
:1005400040003038C8F818002046E1688847054662
:1005500003F08CFA0028EED1012F0AD02E2D08D1FD
:100560002046E16888477F1C0546022F46F020069A
:10057000C4DBA069002803DA404246F00106A0610E
:10058000F00701D026F010066C2D0AD0682D08D097
:100590004C2D39D06A2D35D0742D35D07A2D33D0ED
:1005A00016E0E1682F4620468847B84205460AD142
:1005B0006C2F27D04FF48060E168064320468847BF
:1005C000054605E027E06C2F1AD04FF480700643F3
:1005D0000DB3A5F14100192802D8203546F4006674
:1005E0004A462946204626604E46FFF707FE80B160
:1005F00001280BD0F61D26F0070000F1080965E779
:100600004020E4E78020D7E70020D5E706F1040981
:100610005CE7284661E7206ABDE8F08730B505460B
:100620000B462A4613F8014B12F8010B08B1A04201
:10063000F8D01CB1002802D06D1CF1E7284630BD6F
:1006400010B5431C02E010F8011B71B18107FAD10B
:100650004FF0013202C88C1A8C4314EAC211F9D04F
:10066000C01A0A0603D0C01E10BDC01A10BD0A046D
:1006700001D0801E10BD0902FCD0401E10BD032A0F
:1006800040F2308010F0030C00F0158011F8013BAF
:10069000BCF1020F624498BF11F801CB00F8013B96
:1006A00038BF11F8013BA2F1040298BF00F801CB5A
:1006B00038BF00F8013B11F0030300F02580083A31
:1006C000C0F0088051F8043B083A51F804CBA0E888
:1006D0000810F5E7121D5CBF51F8043B40F8043BDD
:1006E000AFF30080D20724BF11F8013B11F801CB12
:1006F00048BF11F8012B24BF00F8013B00F801CBE3
:1007000048BF00F8012B704710B5203AC0F00B80AD
:10071000B1E81850A0E81850B1E81850A0E81850F7
:10072000203ABFF4F5AF5FEA027C24BFB1E818506D
:10073000A0E8185044BF18C918C0BDE810405FEACF
:10074000827C24BF51F8043B40F8043B08BF70474B
:10075000D20728BF31F8023B48BF11F8012B28BF50
:1007600020F8023B48BF00F8012B70474FF0000211
:1007700000B5134694469646203922BFA0E80C5097
:10078000A0E80C50B1F12001BFF4F7AF090728BF72
:10079000A0E80C5048BF0CC05DF804EB890028BFEE
:1007A00040F8042B08BF704748BF20F8022B11F017
:1007B000804F18BF00F8012B704770477047704793
:1007C0002DE9F0470D4699469246044600F124086B
:1007D0000168880604D5E06921F01001216000E07D
:1007E0000120A84201DD471B00E00027A1697A191A
:1007F00002EB0900081AA0612078C00602D4204646
:10080000AFF30080002608E0D4E901211AF80600C1
:100810009047206A401C761C20624E45F4DB20780D
:10082000C0060AD52046AFF3008006E0D4E90121D6
:1008300030209047206A401C2062381EA7F1010733
:10084000F4DC07E0D4E9012118F805009047206A9C
:10085000401C2062281EA5F10105F3DC2046AFF301
:1008600000802078000602D50220BDE8F087012034
:10087000FBE72DE9FF4F0C461E464FF0FF378BB0CC
:10088000D2E90001DDF860800A908A46C1F30A557A
:1008900005B93D46002108464FF00000BAF1000FAF
:1008A00000F4400005DA00EB80004FF4400101EA5B
:1008B00050004FEA9059B9F1010F00DDB9460A988E
:1008C00050EA4A000ED044F61050A5F2FF354543D9
:1008D0002F14B8F1000F1ED07542291E1EDDC9F17C
:1008E00000021CE0B8F1010F4FF0000001D03021F0
:1008F00003E0F24305E02154401CB042FBDB3046EC
:100900000022002121540B99C1F80880C1E9002080
:100910000FB0BDE8F08FBD1B6D1CDEE74A4600DA64
:10092000694206A800F07AFA06AB93E8070003AB29
:1009300083E8070050460A9902F0B8FC8DE80700EA
:10094000A0F500501F3800900398002D0ADD42F2F8
:100950001F014A460844002303A90390684602F099
:1009600021FF09E0A0F500504A461F38002303A9E3
:100970000390684602F02BFF8DE807000004000C8E
:1009800003D04FF0FF30410800E01046B8F1000FEF
:1009900003D00022009215461EE0751E05D400F01B
:1009A000B7F9303262556D1EF9D5B34601220843BE
:1009B00002D000227F1C04E02078302801D10022E0
:1009C0007F1E002A099784D01DE0112D07DA00F060
:1009D0009FF9303262556D1C50EA0102F5D108438F
:1009E00002D00098C8B10EE00021681E05E0235C2B
:1009F000625C63542254401E491C8142F7DBAB46C3
:100A0000A81B401E0990002004F80B000B98099ABF
:100A1000C0F80880C0E9002B7AE711264FF00008E3
:100A200057E72DE9F04F88460446D21D22F0070112
:100A300091B0D1E90001CDE90A0102F0FFFF0246C1
:100A40000B98C00F01D02D2007E02068810701D549
:100A50002B2002E0202101EAC000032A099001D0E6
:100A6000072A05DB03464146204600F097F90BE1D3
:100A70002078800601D5E06900E00620B8F1650F16
:100A8000814606D0B8F1660F18D0B8F1670F70D163
:100A900031E00020B9F1110F009001DB112301E0DA
:100AA00009F101030AAA01A90CA8FFF7E2FEDDE99A
:100AB0000C70002609F10105834647E001204B46F2
:100AC00000904FF000470AAA01A90CA8FFF7D1FE39
:100AD000DDE90DB00C995D46002610B909F1010061
:100AE0000D18B9EB050003D4C0F1FF3609F101057B
:100AF000A5EB09002BE0B9F1010F01DA4FF0010974
:100B00000020B9F1110F0090484601DD112300E0EB
:100B100003460AAA01A90CA8FFF7ABFEDDE90C7099
:100B20004D4600268346207800070AD4AB4500DAFC
:100B30005D4601A8012D04DD411911F8011C302981
:100B400007D04F4502DA17F1040F04DA012082467C
:100B50000FE06D1EEEE7002F02DCED1B3E4403E0CC
:100B6000781CA84200DD7D1CB81B00F1010A4FF083
:100B700000472078000703D4AA4501DB4FF0FF3A75
:100B80000021B7F1004F0DF143088DF8431024D038
:100B900002202B23002F01DA7F422D230A21021E7F
:100BA000A0F1010000DC5FB197FBF1FC97FBF1F2D3
:100BB00001FB1C7C17460CF1300C08F801CDEEE768
:100BC000A8F1010003702188090501D5452100E045
:100BD0006521A0F1010800F8011C09980FA9A1EBFB
:100BE0000807FF1D00B10120411901EBEA70A1695E
:100BF0003844081A401EA0612078C00602D420465E
:100C0000AFF30080099828B1D4E901219047206A08
:100C1000401C20622078C00622D52046AFF3008019
:100C20001EE0002E04DBB34502DD01A8805D00E07C
:100C30003020D4E901219047206A401C2062761CB4
:100C4000AAF101005FEA000A0AD100F05DF8C0686D
:100C50000168405CD4E901219047206A401C206271
:100C6000281EA5F10105DCDC07E0D4E9012118F814
:100C7000010B9047206A401C2062381EA7F1010733
:100C8000F3DC2046AFF30080032011B041E6000002
:100C900001694A1C02610878704700B58FB0CDE940
:100CA00001310021059105497944CDE90310114630
:100CB0006846FFF703FC0FB000BD0000E5FFFFFF33
:100CC0000A6802F8010B0A607047D1E900239A42D2
:100CD00002D2531C0B601070704710B5436913B1FA
:100CE000AFF3008001E0FFF783FB012010BD127815
:100CF00000F124010A7000224A700122EDE7116818
:100D00004FF0FF32E9E70000004870473000002054
:100D100030B5B0F10A0271F100034FEA900E4EEACD
:100D2000817EB0EB0E0061EB91014FEA101E4EEA9E
:100D3000017E10EB0E0041EB11114FEA102E4EEA2E
:100D4000016E10EB0E0041EB11214FEA104E4EEAFE
:100D5000014E10EB0E0041EB1141401841F1000132
:100D60004FEAD00040EA41704FEAD1014FEA8104D6
:100D700044EA907410EB800544EB01046D1944EBD8
:100D80000404521BA3414FF0000348BF0A3200D5B0
:100D900030BD401C41F1000130BD00002DE9F041A3
:100DA0001F46044603260168072A01F4006004DB9D
:100DB00008B116A505E016A503E008B115A500E0E9
:100DC00015A521F010002060A069C01EA0610FB120
:100DD000401EA0612046AFF300804FB1D4E901214D
:100DE00038469047206A401C2062C01C206206E002
:100DF000206AFAE7D4E9012115F8010B9047761E25
:100E0000F8D22046AFF30080BDE8F0814E414E009D
:100E10006E616E00494E4600696E66002DE9F0472E
:100E2000814616468AB0354878440DC88DE80D00D5
:100E300032487844801C03AC0DC884E80D0041F6AC
:100E40009B300844372190FBF1F290FBF1F5A5F1BE
:100E5000800501FB12041B3C02D56442012000E026
:100E60000020DFF898A080460027FA44AAF1BE0AC5
:100E70000EE0E0070AD03246684607EB470101233F
:100E80000AEB810102F0A3FC8DE8070064107F1CCF
:100E9000002CEED1194F7F44AE3F19E0E80715D082
:100EA00007EB04100DF1180A90E80E008AE80E0016
:100EB000C068F04201D1981908903246012306A972
:100EC00003A802F084FC03AB83E807006D10641CE8
:100ED000002DE3D14FF0010332466946B8F1000F0F
:100EE00003A802D002F05EFC01E002F070FCC9E948
:100EF0000001C9F808200AB0BDE8F087182D0000ED
:100F000000487047100000207546FFF7F9FFAE4615
:100F100005006946534620F00700854618B020B505
:100F2000FFF7A6F9BDE820404FF000064FF000079C
:100F30004FF000084FF0000BAC46ACE8C009ACE83D
:100F4000C009ACE8C009ACE8C00921F007018D4632
:100F5000704710B50446AFF300802046BDE810404E
:100F6000FFF771B90000000030B44FF0013C50F8B9
:100F7000042B51F8043BCCFA52F4D51A20D1FCB919
:100F800050F8042B51F8043BCCFA52F4D51A17D17F
:100F9000B4B950F8042B51F8043BCCFA52F4D51AEA
:100FA0000ED16CB950F8042B51F8043BCCFA52F432
:100FB000D51A05D1002CDAD030BC4FF000007047B4
:100FC00029BAB1FA81F111F01801D1F12000844061
:100FD000F2D1CA40CB4012F0FF0213F0FF0330BC45
:100FE000D01A704701491820ABBEFEE72600020068
:100FF00070470000FEE700007047000072B600BFB7
:10100000FEE7000070B5866D044600F03DF994F8E7
:101010003510022928D105462068216C026822F08B
:1010200016020260426922F08002426109B9A16C95
:1010300019B1016821F008010160016821F0010186
:10104000016000BF20680068C00715D000F01CF9DF
:10105000401B0628F6D320206065032084F8350065
:10106000002184F8341070BD8020606501200021CB
:1010700084F8341070BD00BFE06D3F2101FA00F02C
:10108000B060012084F835000020002184F834107D
:1010900070BD000090F83510022909D1052180F8B3
:1010A00035100068016821F00101016000207047DF
:1010B0008021416501207047B0B5044600F0E4F896
:1010C000054640F20000C2F200000078611C18BF23
:1010D000044400BF00F0D8F8401BA042FAD3B0BDD2
:1010E0002DE9F04F82B000F13E4241F6004502F199
:1010F000FF77C4F20205082243F6004E4FEAB726F6
:10110000A84208BF0722C4F2010E072E38BF4FEADB
:10111000B7220125002600274FF00008009208E0C2
:1011200008F101080437B8F1100F06F1020600F0CB
:10113000A7800C6805FA08F914EA090FF0D0D1F875
:1011400004B003220BF0030CACF10104B240012CFB
:101150006FEA020A10D88268CC6802EA0A02B44038
:10116000224382604268CBF3001422EA090204FAA7
:1011700008F42243426005E0BCF1030F02D14FF0B6
:10118000030C20E0C2688C6802EA0A02B4402243E1
:10119000BCF1020FC26016D16FF0030202EA5802DE
:1011A0000244D2F820C007F01C050F230C69AB40A5
:1011B0002CEA030304FA05F52B431362D1F804B0BB
:1011C00001250BF0030C02680CFA06F302EA0A028E
:1011D0001A431BF4403F0260A2D0002243F64403AE
:1011E0000192C4F202031A684FF6084C42F480429E
:1011F0001A601A68CFF6FF7C02F480420192019ACD
:1012000028F00302724452F80C3007F00C050F244A
:10121000AC40A343009C04FA05F52B4342F80C3084
:10122000DEF808204B6842EA090543F60C4CDC0264
:1012300058BF22EA0905CEF80850C4F2010CDCF8C8
:1012400000209C0242EA090558BF22EA0905CCF8B1
:101250000050DEF804209C0342EA090558BF22EA48
:101260000905CEF80450DEF80020DB0342EA090548
:1012700058BF22EA0905CEF80050012550E700BF0B
:1012800002B0BDE8F08F000040F63C50C2F2000012
:101290000068704770B5B8B3044690F83D0028B9AF
:1012A000002084F83C00204600F0B0F8242084F8A8
:1012B0003D002068016821F001010160016841F4EE
:1012C00000410160016821F40041016000F03EFA34
:1012D00048F28041C0F21E0140F60013D4F804E049
:1012E00088424FF00001C0F23D0348F2A16C4FF07C
:1012F000000238BF01219842C0F2010C38BF012220
:10130000E64538BF0A460AB1012070BD4DF683613B
:10131000C4F21B31A0FB01122168950C4B684FF4FD
:10132000967623F03F0343EA9243754344F6D3563F
:101330004B60C1F262060B6AA5FB0656B50923F0A5
:101340003F03E64538BF950C6A1C1A430A62CA6916
:1013500048F2A0664CF6FF73C0F20106B64522EAD9
:1013600003020BD801384FEA4E03B0FBF3F0013013
:101370006FF31F30042898BF04201EE0A3680138D3
:1013800063B119230EFB03F3B0FBF3F001306FF3ED
:101390001F3078B100F5804008E000BF0EEB4E032F
:1013A000B0FBF3F001306FF31F3028B100F50040BF
:1013B00003E000BF012000E001201043C86108687D
:1013C000D4E9072320F0C000104318430860886860
:1013D00048F2FF3204F10C0690434CCE1843104300
:1013E000A5698860C86820F0FF0030432843C860C2
:1013F000086840F00100086000202021206484F883
:101400003D10206384F83E0070BD0000B0B586B08A
:10141000016845F20040C4F20000814202D006B0EB
:10142000B0BD00BF002443F630050194C4F20205AC
:10143000296800F5D83041F002012960296801F0DF
:10144000020101910199C02101911221CDE90214FB
:10145000032104910421059101A9FFF741FE0094A5
:10146000286940F400102861286900F400100090F9
:10147000009806B0B0BD000040F2000040F63C51BC
:10148000C2F20000C2F2000100780A68104408604D
:101490007047000080B543F60040C4F202000168C6
:1014A00041F400710160016841F4806101600168EC
:1014B00041F480710160032000F088F80F2000F0F3
:1014C00005F800F027F8002080BD000070B540F25C
:1014D0000006C2F2000640F208013278C2F20001B2
:1014E0004FF47A730968B3FBF2F20446B1FBF2F1F0
:1014F000084600F043FB0F2C4FF0010508D838B91F
:101500004FF0FF3021460022002500F033F87460D0
:10151000284670BD82B0002043F640010190C4F21D
:1015200002014A6842F480424A604A6802F48042FA
:101530000192019A0090086840F0805008600868A5
:1015400000F080500090009802B07047002848BF1B
:101550007047C1B200F01F00012202FA00F04EF203
:101560000012CEF2000242EAD10121F0030108602C
:101570007047000010B54EF60C5CCEF2000CDCF8A3
:101580000030C3F3022E8EF00704042C28BF04247D
:10159000BEF103034FF0FF3E0EFA04F438BF002300
:1015A000A14399400EFA03F39A43114300F00F024E
:1015B00000F160430901043A03F5644362440028E2
:1015C00048BF02F10C03197010BD00004EF60C511B
:1015D000CEF200010A684FF6FF031A4060F30A22B8
:1015E00042F0806040F0FD70086070472DE9F041E6
:1015F000002800F08B8043F60808C4F20208044675
:10160000D8F8F8030D4600F00700884207D288F8A2
:10161000F853D8F8F80300F00700A84276D1206804
:10162000810717D5410705D5D8F8001041F4E051DE
:10163000C8F80010010705D5D8F8001041F4604142
:10164000C8F80010D8F80010A26821F0F00111438A
:10165000C8F80010C0073FD1D8F8F80300F0070021
:10166000A84207D988F8F853D8F8F80300F0070023
:10167000A8424BD12068410707D5D8F80010E2688E
:1016800021F4E0511143C8F80010000708D5D8F83C
:101690000000216920F4604040EAC100C8F8000061
:1016A00000F07CF8D8F8001043F6B432C1F303110F
:1016B000C0F60002515C40F2080220FA01F140F24B
:1016C0000400C2F200000068C2F200021160FFF7DD
:1016D000FDFE0020BDE8F0816068811E022907D26E
:1016E00058F8081C89015CBF0120BDE8F08111E0B9
:1016F000012807D158F8081C89035CBF0120BDE808
:10170000F08107E058F8081C890703D40120BDE8E0
:10171000F08100BFD8F8001021F003010843C8F899
:101720000000FFF7B1FD064641F28837D8F8000007
:10173000616800F00C00B0EB810F8DD0FFF7A4FDC5
:10174000801BB842F2D90320BDE8F08140F20800C6
:1017500043F60801C2F20000C4F202010068096801
:1017600043F6C432C1F38221C0F60002515CC84086
:101770007047000040F2080043F60801C2F2000082
:10178000C4F202010068096843F6C432C1F3423171
:10179000C0F60002515CC8407047000010B543F627
:1017A0000404C4F20204606800F00C0008280BD0A6
:1017B000042819BF42F20040C0F2F40047F640008E
:1017C000C0F27D1010BD00BF206821682368490267
:1017D00047F64001C0F27D1100F03F02C3F38810CC
:1017E0005CBF42F20041C0F2F401A1FB0001002302
:1017F000FEF750FD21680222C1F3014102EB4101D5
:10180000B0FBF1F010BD00002DE9F04182B00028DE
:1018100068D00446007843F60006C007C4F202060A
:101820000BD0B06800F00C00042840F09F803068B6
:10183000800302D56068002854D0207880071AD52C
:10184000B06810F00C0F09D0B06800F00C00082848
:1018500040F0A6807068400200F1A28030688007E6
:1018600002D5E06801283DD13068216920F0F800F8
:1018700040EAC10030602078000737D42078400764
:101880004CD4A56955B3B06800F00C00082840F0AE
:10189000BB80012D26D07068E16900F480028A4285
:1018A00020D1216A00F03F028A421BD147F6C07165
:1018B000626A0140B1EB821F14D1A16A4FF6FF7337
:1018C000C903994300F44032A1F580318A4209D11D
:1018D000E16A00F07060B0EB016F03D1002002B04C
:1018E000BDE8F081012002B0BDE8F0816069002808
:1018F00040F20000C4F2472076D00121C0F8801EDB
:10190000FFF7C2FC054600BF706F8007B6D4FFF733
:10191000BBFC401B0228F7D9DDE000BF306C10F0A3
:1019200080580AD100200190306C40F08050306423
:10193000306C00F080500190019847F20007C4F22B
:1019400000073868C00541D4386840F480703860BA
:10195000FFF79AFC054600BF3868C00536D4FFF78C
:1019600093FC401B0228F7D9B5E000BFB06800F037
:101970000C00082803D1706840023FF558AF60683A
:10198000B0F5803F07D0B0F5A02F40F08D803068D3
:1019900040F480203060306840F4803030608DE06A
:1019A000E068002852D00020C4F2472001210160E5
:1019B000FFF76AFC054600BF306880073FF554AF6B
:1019C000FFF762FC401B0228F6D984E0A0680128DA
:1019D00005D005284ED1306F40F004003067306FDD
:1019E00040F0010030674FE00021C0F8801EFFF793
:1019F0004BFC0546706F80077FF540AFFFF744FC56
:101A0000401B0228F6D966E00027C4F247270020D1
:101A10003866FFF739FC022D05460BD1306880018E
:101A20005ED5FFF731FC401B02284FF00300F5D9CB
:101A300055E700BF306880017FF550AFFFF724FC09
:101A4000401B02284FF00300F4D948E70020C4F2FD
:101A5000472000210160FFF717FC0546306880072A
:101A60007FF509AFFFF710FC401B02284FF0030081
:101A7000F4D934E7316F002821F001013167316F6B
:101A800021F0040131674DD0FFF7FEFB054641F21E
:101A9000883700BF306F800756D4FFF7F5FB401B37
:101AA000B842F7D917E000BF3168002821F480312F
:101AB0003160316821F4802131604FD0FFF7E4FBC1
:101AC000054600BF306880033FF5B7AEFFF7DCFB8B
:101AD000401B6428F6D9032002B0BDE8F08100BFA6
:101AE00004F11C052FCD084340EA8210D9034FF6BC
:101AF000FF729143A1F5803140EA056008437060B0
:101B000001203866FFF7C0FB044600BF3068800143
:101B10003FF5E4AEFFF7B8FB001B02284FF00300CF
:101B2000F4D9DCE6FFF7B0FB054641F2883700BF89
:101B3000306F800708D5FFF7A7FB401BB8424FF076
:101B40000300F5D9CBE600BFB8F1000F7FF499AEE2
:101B5000306C20F08050306493E600BFFFF794FBB8
:101B6000054600BF306880037FF567AEFFF78CFB4A
:101B7000401B64284FF00300F4D9B0E6411E00205A
:101B8000B0EB116F1CBF012070474EF21002CEF275
:101B9000000251604EF62351CEF20001F0230B708B
:101BA0000721906011607047704700007047000087
:101BB000B0B582B0044600680168C368426901F0AC
:101BC0002F05202D03F0200506D12DB1204602B0AF
:101BD000BDE8B04001F018B95FEA017C1EBF02F019
:101BE000010E03F4907212EB0E0253D1226B012A04
:101BF00005D111F0100218BF13F0100236D10A06F9
:101C000022D513F080021FD094F8411021293FD132
:101C1000A168B1F5805F03D12169002900F07282CB
:101C2000216A4A1C226209784160E18C01390A0468
:101C3000E1842DD1C16821F08001C160C16841F00B
:101C40004001C16002B0B0BD490621D513F040018A
:101C50001ED0C16821F04001C1602021204684F8D7
:101C6000411002B0BDE8B04000F0CEBB00210191B0
:101C7000016801914168019101994069400613D4BE
:101C8000A08DE18DE28D002A18BF884240F0BC8112
:101C900002B0B0BDCA0718BF13F4807240F0B8801C
:101CA0004A0700F1BB80C0E0E06B016849688AB276
:101CB000002AEDD0A38D9A42EAD2E185C069B0F541
:101CC000807F00F09C80206850E8030F216820F49A
:101CD000807041E80302DAB1206850E8030F216800
:101CE00020F4807041E8030292B1206850E8030FAD
:101CF000216820F4807041E803024AB1206850E86E
:101D0000030F216820F4807041E80302002ADAD131
:101D1000206850E8050F216820F0010041E8050225
:101D2000DAB1206850E8050F216820F0010041E891
:101D3000050292B1206850E8050F216820F00100EB
:101D400041E805024AB1206850E8050F216820F0FB
:101D5000010041E80502002ADAD1206850E8050FA9
:101D6000216820F0400041E80502DAB1206850E81F
:101D7000050F216820F0400041E8050292B120687B
:101D800050E8050F216820F0400041E805024AB103
:101D9000206850E8050F216820F0400041E8050266
:101DA000002ADAD1202084F8420000202063206835
:101DB00050E8030F216820F0100041E80302DAB177
:101DC000206850E8030F216820F0100041E803026A
:101DD00092B1206850E8030F216820F0100041E81C
:101DE00003024AB1206850E8030F216820F0100078
:101DF00041E80302002ADAD1E06BFFF703F9022081
:101E00006063A08DE18D401A81B2204675E100BF6C
:101E1000626C42F0010262644A0706D5BEF1000F0F
:101E200003D0626C42F0020262648A0706D5BEF1FA
:101E3000000F03D0626C42F004026264BCF1000F38
:101E400009D545EA0E02B2FA82F2520903D1626C58
:101E500042F008026264626C002A3FF419AF11F08C
:101E6000200118BF002D03D0204600F0CDFF2068D0
:101E70004069616C00F0400001F00801401800F07A
:101E8000B58000BF206850E8030F216820F49070EF
:101E900041E80302BAB3206850E8030F216820F438
:101EA000907041E8030272B3206850E8030F216884
:101EB00020F4907041E803022AB3206850E8030F31
:101EC000216820F4907041E80302002ADAD11AE078
:101ED000206850E8050F216820F0010041E8050264
:101EE000DAB1206850E8050F216820F0010041E8D0
:101EF000050292B1206850E8050F216820F001002A
:101F000041E805024AB1206850E8050F216820F039
:101F1000010041E80502002ADAD1206B012824D112
:101F2000206850E8030F216820F0100041E8030208
:101F3000DAB1206850E8030F216820F0100041E872
:101F4000030292B1206850E8030F216820F01000CE
:101F500041E803024AB1206850E8030F216820F0ED
:101F6000100041E80302002ADAD1202084F8420060
:101F7000002020632068406940063FD5206850E873
:101F8000050F216820F0400041E80502DAB1206821
:101F900050E8050F216820F0400041E8050292B1A9
:101FA000206850E8050F216820F0400041E8050254
:101FB0004AB1206850E8050F216820F0400041E850
:101FC0000502002ADAD1E06BC0B142F6FD51C0F63D
:101FD00000010165FFF75EF800283FF459AEE06BA1
:101FE000016D02B0BDE8B040084700BF2046FFF7D2
:101FF000DDFD0020606402B0B0BD00BF204602B02D
:10200000BDE8B040FFF7D2BD401A216851E8031F78
:10201000226821F4907142E80313DBB1216851E892
:10202000031F226821F4907142E8031393B12168E1
:1020300051E8031F226821F4907142E803134BB169
:10204000216851E8031F226821F4907142E80313CC
:10205000002BDAD1216851E8051F226821F0010127
:1020600042E80513DBB1216851E8051F226821F021
:10207000010142E8051393B1216851E8051F226868
:1020800021F0010142E805134BB1216851E8051F19
:10209000226821F0010142E80513002BDAD120214A
:1020A00084F8421000212163216851E8031F22684F
:1020B00021F0100142E80313DBB1216851E8031F4E
:1020C000226821F0100142E8031393B1216851E81E
:1020D000031F226821F0100142E803134BB121686D
:1020E00051E8031F226821F0100142E80313002B7E
:1020F000DAD1022281B22046626302B0BDE8B0406C
:10210000FFF752BD216A31F8022B6FF35F22426064
:1021100021628AE5002804BF0120704710B50446FB
:1021200090F8410028B9002084F84000204600F0D3
:1021300021F8242084F841002068C16821F400516E
:10214000C160204600F0E0FE2068016921F4904162
:102150000161416921F02A014161C16841F40051E6
:10216000C16000202021606484F8411084F842108E
:10217000606310BD80B586B0016841F20000C4F212
:102180000100814202D006B080BD00BF002143F6AD
:1021900030020191C4F20202536900F5704043F02D
:1021A00010035361536903F010030193019B0191E4
:1021B000136843F001031360126802F001020192F8
:1021C000019A4FF4C06201920222CDE9022103215B
:1021D00004910721059101A9FEF782FF2520002126
:1021E0000022FFF7C7F92520FFF7B0F906B080BD40
:1021F00090F84230202B1CBF0220704700294FF07E
:10220000010318BF002A01D1184670470023036359
:10221000816222218285C285436480F8421001696F
:10222000006819B1C16841F48071C160416900233F
:1022300041F001014161C16841F02001C1601846CF
:102240007047000040F28811C2F20001884218BFB6
:10225000704700F09BBC00002DE9F041044690F867
:10226000410020281CBF0220BDE8F0810D46002956
:102270004FF0010000F0AA801646002A08BFBDE812
:10228000F081002060642120984684F84100FEF728
:10229000FBFFA684E684A1680646B1F5805F02D103
:1022A0002069002862D02F460025E08C002861D0EC
:1022B00018F1010018D0B8F1000F37D1216808E0FB
:1022C00017F8010B4860E08C0138E084E08C0028AE
:1022D00051D00868000673D5002FF1D135F8020BF4
:1022E00000276FF35F20EDE7216802E00868000631
:1022F00009D40868000606D4086800065CBF0868B0
:102300005FEA0060F2D51FB117F8010B05E000BFCE
:1023100035F8020B00276FF35F204860E08C01382E
:10232000E084E08C0028E4D125E000BF216800BFF4
:102330000868000608D4FEF7A7FF801B404541D877
:102340002168C868F4E700BF17B117F8010B04E073
:1023500035F8020B00276FF35F204860E08C0138EE
:10236000E084E08C0028E3D105E000BF0027E08C8A
:1023700000289DD12168086840061FD4B8F1000FDD
:102380001ED018F101000FD10868400616D4086865
:10239000400613D40868400610D4086840064FF081
:1023A0000000F1D50FE000BFFEF76EFF801B404537
:1023B00008D82068C16800684006F5D5002002E012
:1023C000FEF762FF0320202184F84110BDE8F08170
:1023D000034690F8410020281CBF022070470029C6
:1023E0004FF0010018BF002A00D170471962002089
:1023F00021219A84DA84586483F841101968CA68E4
:1024000042F08002CA60704770470000FEE700009B
:102410002DE9F04383B00D460D990446002602A82D
:10242000984617460291019600F0A6FE00F0F001D2
:1024300030292CD1C0F3C0012170C0F341012960C3
:1024400000F001010298DDF82890397001A900F030
:1024500023F802990646084401990290471802A9F8
:1024600048463A4600F096FE88B10299781A0ED492
:102470002A680C9C0B9D012A06DB02A800F082FE54
:102480000299A8F80000781A0126206029603046D9
:1024900003B0BDE8F083000010B500220A600346D7
:1024A00013F9012B40F2301CC2F2000CCCF80030C2
:1024B00002F07F03B2F1FF3F0B60C4BF012010BDEB
:1024C00090F9014000F1020E04F07F0243EAC213CA
:1024D000B4F1FF3FCCF800E00B60C4BF022010BD98
:1024E00090F90240C21CCCF8002004F07F0243EABD
:1024F0008233B4F1FF3F0B60C4BF032010BD90F9DD
:102500000340021D04F07F0043EA405008600520AC
:10251000CCF80020B4F1FF3FC8BF042010BD00007C
:1025200080B586464FF0000C002000BFCB1701EBB2
:10253000536323F07F03CB1A7F29C8BF43F0800386
:1025400080290EF8003021DBC1F3C612BCEB913FAD
:1025500018BF80320EEB0003B1F5804F5A7017D3CD
:10256000C1F38632BCEB515F18BF8032B1F5001F5A
:102570009A700FD3C1F34652090F00F1040018BF3F
:102580008032DA7008BF80BDD0E700BF013080BD67
:10259000023080BD033080BD7F28BEBF02210844C9
:1025A000704743F6FF7188423EBF032108447047DD
:1025B0004FF6FE72C0F21F020521904238BF04217F
:1025C00008447047F0B581B00446009010461546A7
:1025D0000E4600F091F80746FFF7DEFFB04203DD3C
:1025E0006FF0010001B0F0BD6E463046102100F0E2
:1025F00011FE00983946FFF793FF00992F7A08449F
:10260000009039A03AA1042F08BF0146304600F0DF
:10261000E5FD042F18BF03273046394600F0FAFDC8
:10262000A87EE97E022202EA4000002918BF0121AB
:1026300040EA810709D095F83C0095F83D1020222A
:1026400002EA401061F3C4000744286C30B167F01F
:102650007F07E86C50B147F040070CE0A86C0028F9
:1026600018BF67F07F07E86C0028F4D1686D002878
:1026700018BF47F040076E46F9B2304600F0CAFD79
:10268000298B304600F0CCFD05F10C030ECB304613
:1026900000F0D4FDE87E60B105F124030ECB6E4658
:1026A000304600F0CBFD05F130030ECB304600F094
:1026B000C5FDB7F1FF3F05DD78060BD40098001B80
:1026C00001B0F0BD05F140030ECB684600F0B6FD49
:1026D0007806F3D505F14C030ECB684600F0AEFD4D
:1026E0000098001B01B0F0BD4D5154540000000093
:1026F0004D5149736470000070B50446057AC06896
:10270000D4E9041200F0D8F90221042D08BF0C21ED
:10271000E27E032D08BF0E2101EB000572B104F12A
:10272000240207CA00F0C8F9D4E90C31A26B0646AE
:10273000184600F0C1F9A9190844051D206C08B11C
:10274000A26C01E0A26C22B1616C00F0B5F92844E2
:10275000851CE06C10B1626D02E000BF626D22B1B9
:10276000216D00F0A9F92844851C284670BD0000A1
:1027700070B5D6B040F2780536ACC2F2000500263E
:102780002046802185F82460AE74FDF7EFFF16A87F
:102790008021FDF7EBFFEA682B8A28A12046FDF790
:1027A000F1FD2046FDF74CFF82B240F28810C2F2E4
:1027B00000002146FFF70CFE4FF4FA60FEF77CFCA8
:1027C00040F27000C2F20000468040F28470C2F213
:1027D000000040F2B451FDF7C9FF41F28830FEF726
:1027E0006BFCA87C012826D143F65C316C46C0F610
:1027F000000120465822FDF787FF05F1140207CAA1
:1028000013911090288C16ADADF81800012003929A
:102810008DF81A00284680212246FFF7D3FE82B2A7
:1028200040F28810C2F200002946FFF7D1FD41F2C4
:102830008830FEF741FC56B070BD00BF41542B43B9
:10284000495053544152543D22544350222C222586
:1028500073222C25640D0A002DE9F04F8BB040F255
:10286000780040F2881840F2700BC2F20000002499
:10287000C2F20008C2F2000B84744046594601229D
:10288000CDE90944CDE90744CDE90544CDE9034448
:10289000FFF7AEFC68A140460422FFF799FD4FF414
:1028A000FA60FEF709FC40F2847AC2F2000A504650
:1028B00040F2B451ABF80240FDF758FF60A140462A
:1028C0000622FFF785FD4FF4FA60FEF7F5FB504650
:1028D00040F2B451ABF80240FDF748FF5AA1404620
:1028E0000C22FFF775FD4FF4FA60FEF7E5FB40F2AE
:1028F000D015C2F2000558A12846FDF78FFEB0FAA8
:1029000080F04709504640F2B451ABF80240FDF761
:102910002DFF54A140460C22FFF75AFD4FF4FA60F8
:10292000FEF7CAFB43F6CC39C0F6000928464946F3
:10293000FDF774FE0646504640F2B451ABF8024033
:10294000FDF714FF4BA140460E22002E08BF0137B1
:10295000FFF73EFD4FF4FA60FEF7AEFB284649460E
:10296000FDF75CFE0646504640F2B451ABF802401B
:10297000FDF7FCFE40F27801C2F20001D1E900301F
:10298000002E8D6803AE08BF013700903DA230468F
:1029900020210195FDF70CFD3046FDF751FE82B276
:1029A00040463146FFF714FD4FF4FA60FEF784FB12
:1029B00040F2D015C2F2000528464946FDF72EFE2A
:1029C0000646504640F2B451ABF80240FDF7CEFE49
:1029D00033A140460A22002E08BF0137FFF7F8FC5A
:1029E0004FF4FA60FEF768FB28464946FDF716FEED
:1029F0000646504640F2B451ABF80240FDF7B6FE31
:102A00002AA140460A22002E08BF0137FFF7E0FC4A
:102A10004FF4FA60FEF750FB504640F2B451ABF869
:102A20000240FDF7A3FE002F08BFFFF7A1FE3846C6
:102A30000BB0BDE8F08F00BF41540D0A000000004C
:102A4000415445300D0A000041542B43495053482E
:102A500055540D0A0000000053485554204F4B0DAB
:102A60000A00000041542B43474154543D310D0AA4
:102A70000000000041542B4349504D4F44453D3127
:102A80000D0A000041542B435354543D2225732218
:102A90002C222573222C222573220D0A000000000F
:102AA00041542B43494943520D0A000041542B43E2
:102AB000494653520D0A0000002804BF08467047DB
:102AC000FDF7BEBD82B0002043F630010190C4F294
:102AD00002010A6842F001020A600A6802F001027B
:102AE0000192019A0090086840F0020008600868AE
:102AF00000F002000090009802B0704780B540F2EC
:102B0000341045F20041C2F20000C4F2000148F264
:102B1000A06200234FF4804CC0F2010280E80E0056
:102B2000C0E9033CC0E90533C0E90733FEF7B2FB57
:102B3000002808BF80BDBDE88040FEF75FBA0000F6
:102B400080B540F2881041F20001C2F20000C4F2E8
:102B5000010100234FF00C0C4FF4E13280E80E002D
:102B6000C0E90333C0E905C3C361FFF7D3FA002806
:102B700008BF80BDBDE88040FEF740BAFEE7000018
:102B8000FEE7000070470000704700002DE9F04F9D
:102B900089B040F2700540F2780BC2F20005C2F233
:102BA000000B68889BF812602F7840F28471C2F2A3
:102BB0000001441C0F546C8086BB40F28470C2F24A
:102BC000000079A1FDF72AFD30B1A1B2022903D19D
:102BD00000246C8021E000BF4FF00006F0B140F20D
:102BE000D01840F28474C2F20008C2F200044046D9
:102BF000214640F2B452FDF787FD204640F2B45121
:102C00006E80FDF7B3FD69A14046FDF707FD002882
:102C100000F0BA8000248BF81240002640F2847045
:102C2000C2F2000068A1FDF7F9FC88B940F2847097
:102C3000C2F2000067A1FDF7F1FC48B940F28470D0
:102C4000C2F2000065A1FDF7E9FC002800F09480C5
:102C500000208BF812006878012866D1AA8840F21B
:102C6000D01A511C88B2C2F2000A0228A9800AF8C0
:102C700002705AD34FF0FF329AF8013012FA81F104
:102C8000994243D90BF1740948464021FDF76EFD86
:102C90000BF1300840464021FDF768FD04200BF1A0
:102CA000700105AA06ABCDE90032029104900BF148
:102CB00025000BF128010BF12C020BF12E03CDF8AE
:102CC0000CA0FFF7A5FBDDE9077148463A46FDF782
:102CD000D6FC0599DBF870204046CBF8B470FDF7C0
:102CE000CEFC01208BF8240040F284700024C2F254
:102CF000000040F2B4516C80FDF738FD504640F2C0
:102D0000B4516C70AC80FDF731FD27E040F2B45156
:102D100088420AD300206870A88040F2D010C2F226
:102D2000000040F2B451FDF721FDA0B240F2B451D1
:102D3000884213D340F284700024C2F2000040F2B3
:102D4000B4516C80FDF712FD40F2D010C2F20000C9
:102D500040F2B4516C70AC80FDF708FD40F2881071
:102D600040F27001C2F20000C2F200010122FFF73E
:102D70003FFA09B0BDE8F08F012E08BF302F7FF475
:102D80006AAF0120687069E740F2D010C2F200001B
:102D90000AA1FDF743FC28B1012600248BF812603C
:102DA0003CE700BF002438E70D0A000044592043E7
:102DB0004F4E4E4543540D0A00000000434F4E4E07
:102DC0004543540D0A000000434C4F5345440D0A3F
:102DD000000000004552524F520D0A004445414345
:102DE000540D0A00FEF748BB4EF68850CEF20000A4
:102DF000016841F47001016070470000806B0021A0
:102E0000C185C184FEF7D2BE81B090F8421022295C
:102E100021D183680246B3F5805F09D152F8281F9B
:102E200052F8183C002B63D003685B680AE000BFCF
:102E300052F8281F13B90369002BF5D003685B68AB
:102E400003F07F030B70116801311160C18D0139EE
:102E50000A04C18502D001B0704700BF0168CA688A
:102E600022F02002CA60CA6822F48072CA604A69ED
:102E700022F001024A61202180F8421000214163C2
:102E8000026B012A3CD10163016851E8031F02680B
:102E900021F0100142E80313DBB1016851E8031F80
:102EA000026821F0100142E8031393B1016851E870
:102EB000031F026821F0100142E803134BB10168BF
:102EC00051E8031F026821F0100142E80313002BB0
:102ED000DAD101680A68D20606D5002200920A6893
:102EE0000092496800910099818D01B0FEF75CBEA7
:102EF000026852686FF35F2221F8022B8162A5E716
:102F000001B0FFF79FB9000010B504460068D4E98E
:102F100002C22369016921F44051114301616269D0
:102F200043EA0C01E3691143C268194349F20C6397
:102F30009A431143C1604169A26921F4407141F291
:102F40000043114340F48062C4F201039A4241619C
:102F500002D1FEF70FFC01E0FEF7F8FBE1696368C0
:102F60001922B1F5004FA0FB020123D15A00DB0F5B
:102F7000FDF790F948F21F51C5F2EB11A0FB0123B8
:102F80005A094FF69C73C0F6FF7303F1805302FB9E
:102F90000300322303EBC000A0FB01014FF4F870E3
:102FA00000EA111000EB0210C1F34211084421683D
:102FB000886010BD9A009B0FFDF76CF948F21F5115
:102FC000C5F2EB11A0FB01235A094FF69C73C0F622
:102FD000FF7302FB0300322303EB0010A0FB01018F
:102FE000F02000EA511000EB0210C1F34311084435
:102FF0002168886010BD000040F28810C2F2000015
:10300000FEF7D6BDFEE7000092B0FEF743FA06AC2D
:10301000201D2C21FDF7AAFB002543F64000059555
:10302000CDE90355CDE901550095C4F202000168D0
:1030300041F080510160006800F0805000900098DD
:1030400047F200000095C4F20000016841F480419D
:103050000160006800F48040009000980220069013
:103060000120099010200A9020460C95FEF7CCFB19
:1030700010B172B6FEE700BF0F20CDE9010501A82F
:103080000021CDE903550595FEF7B0FA10B172B6EF
:10309000FEE700BFFFF716FDFFF730FDFFF750FD1D
:1030A00040F2780043F6D032C2F2000016A1C0F61A
:1030B0000002C0E9001240F25B7116A301821BA15D
:1030C00000F1140CC0E902231EA224A38CE80E0018
:1030D0003C210184FFF7C0FB40F2881440F63856CB
:1030E000C2F2000423A5C2F2000600BF2046294612
:1030F00002224FF47A73FFF7AFF830704FF47A7012
:10310000FDF7DAFFF2E700BF696E7465726E6574F1
:10311000000000006D7174742E7468696E677362CC
:103120006F6172642E636C6F756400006E34357568
:10313000317836386B62746A696F626639686B61C0
:10314000000000006B6364317031336E767936773E
:10315000773933776E626C3600000000366638329D
:103160007738746434687266367A63783277617857
:1031700000000000415400000268014612F8010BF3
:103180000A6070470268014632F8020B40BA0A60D2
:103190007047000010B50B688646D01A4FF0000C3F
:1031A00002284FF0000015DB33F8020B04BA03EBE2
:1031B000144440BA94420B60CEF8040004D90020B5
:1031C000CEF800C010BD00BFCEF808300A68104429
:1031D00008600120CEF800C010BD000070B50546A3
:1031E00008460C46FDF72CFA0646C01706EB1060A1
:1031F0002968000A087028683246411C2960467018
:103200002868214601302860FDF739FA28683044E3
:10321000286070BD0268117001680131016070475B
:10322000CA1701EB12620368120A1A700268531C73
:1032300003605170016801310160704770B5012A67
:1032400004460BDB2068110A017020681546411CFA
:10325000216042702068194613E000BF0E46C9B1D4
:103260003046FDF7EDF90546C01705EB1060216803
:10327000000A087020682A46411C216045702068B9
:10328000314601302060FDF7FAF9206828442060BB
:1032900070BD00BF20680021017020680125421C1C
:1032A0002260417020682844206070BD5FEA400CB5
:1032B00008BF91F0000F4FEA8C234FEAC12243EA86
:1032C00051514FEA1C5018BF00F5F0404FEA300052
:1032D00018BF41F000415FEA6C5C00F02980BCF14E
:1032E000FF3F08BF40F080407047130C06BF120438
:1032F0004FF0100C4FF0000C130E04BF12020CF133
:10330000080C130F04BF12010CF1040C930F04BF3F
:1033100092000CF1020CD30F04BF52000CF1010C0F
:1033200011464FF00002A0F11F00A0EB0C00704707
:1033300011F0004F08BF704731F000413FF4D5AFA6
:103340000B0C06BF09044FF0100C4FF0000C0B0ED5
:1033500004BF09020CF1080C0B0F04BF09010CF1AA
:10336000040C8B0F04BF89000CF1020CCB0F04BFBF
:1033700049000CF1010CCCF1200322FA03F341EADD
:10338000030102FA0CF2A0EB0C0000F101007047FF
:1033900023F07F4720F07F4C80EA030000F00040DC
:1033A000ACEB070303F57C5303F1FF032DE98049E0
:1033B00009B44FEA144324EA03484FEA154B25EABF
:1033C0000B4E0FF2042606EB13273E7803FB06672D
:1033D000C7F5000707FB06F64FEAD64606F10206D8
:1033E0004FEA543707FB066CCCF1005C4FEA1C47F0
:1033F0002CEA074C0CFB06F507FB06F404EB15461C
:103400004FEA961649085FEA320234BF00204FF0B7
:1034100000404FEAD13706FB07FC4FEA1C4C0CFB7F
:103420000BF7D21B03FB0CF761EB07010CFB0EF74C
:10343000B0EB074072EB17420CFB08F734BFA2EB6E
:103440000742B2EB074261EB17414FEA0C444FEAE7
:10345000910706FB07FC4FEA1C4C0CFB0BF7B0EB8B
:10346000C74072EB573203FB0CF734BFA2EBC742E5
:10347000B2EBC74261EB57310CFB0EF7B0EBC70064
:1034800072EB57720CFB08F734BFA2EBC702B2EB2A
:10349000C70261EB57714FEA816141EA92114FEA2D
:1034A000826242EA90124FEA806004EBCC04039FF0
:1034B0004FEAD13706FB07FC4FEA1C4C0CFB0BF71D
:1034C000D21B03FB0CF761EB07010CFB0EF7B0EB13
:1034D000074072EB17420CFB08F734BFA2EB074220
:1034E000B2EB074261EB17414FEA8C5504EB9C2489
:1034F0004FEA910706FB07FC4FEA1C4C0CFB0BF74D
:10350000B0EBC74072EB573203FB0CF734BFA2EBB2
:10351000C742B2EBC74261EB57310CFB0EF7B0EB81
:10352000C70072EB57720CFB08F734BFA2EBC7025F
:10353000B2EBC70261EB57714FEA816141EA921128
:103540004FEA826242EA90124FEA806015EB4C2506
:1035500044F100044FEAD13706FB07FC4FEA1C4C4C
:103560000CFB0BF7D21B03FB0CF761EB07010CFB09
:103570000EF7B0EB074072EB17420CFB08F734BFB5
:10358000A2EB0742B2EB074261EB17414FEA8131F0
:1035900041EA92414FEA823242EA90424FEA803059
:1035A0004FEA0C7615EB1C1544F1000448EA03437E
:1035B0004EEA0B484FF0000EB2EB080C71EB03071C
:1035C00024BF624639464EEB0E0E4FF0000B00183A
:1035D000524149414BEB0B0BB2EB080C71EB03076B
:1035E0007BF1000B24BF624639464EEB0E0E4FF0C6
:1035F000000B0018524149414BEB0B0BB2EB080C8E
:1036000071EB03077BF1000B24BF624639464EEB9A
:103610000E0E51EA020718BF46F0010616EB0E76B1
:1036200055F1000254F1000103D5BDE88901BDE860
:103630000088BDE88901BDE80048B619524141EB58
:103640000101A3F10103704780807F7E7D7C7B7A3E
:103650007978777676757473727171706F6E6E6D3E
:103660006C6C6B6A6A6968686766666564646363E4
:1036700062616160605F5F5E5E5D5D5C5C5B5B5A6A
:103680005A595958585757565655555554545353D7
:1036900052525251515050504F4F4F4E4E4D4D4D32
:1036A0004C4C4C4B4B4B4A4A4A494949484848477D
:1036B00047474746464645454544444444434343BB
:1036C00043424242424141419C46002B30D4770064
:1036D0002BD04FEA37071CB503B44FF010004FF062
:1036E0001001BAF1000F06D0BCF1000FDCBF40F0B2
:1036F000080040F008014FF000000FBCBDE810408A
:103700000BF1010BBBF1010F08BF5FEA170722BFE6
:1037100012F1010211F101014FF0004143F10003E8
:1037200000F0004043EA00007047F9D35708D0E7A3
:1037300046EA06464FEA164613F1400F1FDD13F125
:10374000200FDFBF16430A46002120335B42BED064
:10375000C3F1200746EA06464FEA164602FA07F783
:1037600046EA070622FA03F2C3F1200701FA07F737
:1037700042EA070221FA03F14FF00003A7E746EA05
:10378000020646EA06464FEA164646EA0106BCBF6E
:1037900046EA0646360C4FF000034FF000024FF0A9
:1037A000000194E72DE9804C70B49A46934691E865
:1037B000380007C831EA400C48BF34EA430C03D54F
:1037C000FFF7E6FDFFF780FFF0BCBDE8008C2DE9B8
:1037D000804C70B49A46934691E8380007C810F0C0
:1037E000804F08BF13F0804F03D100F005F8FFF7BA
:1037F0006BFFF0BCBDE8008C20F07F4723F07F4CCE
:1038000080EA030000F0004007EB0C03A3F57C53B3
:10381000A3F1FE0392F0000F00F0B38095F0000FCB
:1038200000F077802DE901494FEA114021EA004874
:103830004FEA144624EA064700FB06FC08FB06F69E
:1038400007FB08F818EB06484CEB164C00FB07F793
:1038500018EB07484CEB17404FEA124B22EA0B4E8D
:103860004FEA154625EA06470BFB06FC0EFB06F65B
:1038700007FB0EFE1EEB064E4CEB164C0BFB07F740
:103880001EEB074E4CEB174B18EB0B0840F10000FA
:1038900018EB0E0B58EB000840F100008F1A4FF0A8
:1038A00000014FF000063CBFC943661B14BFB5EBD7
:1038B000040C00213CBFC943F61B4FEA174427EA1A
:1038C00004454FEA1C472CEA074C04FB076205FB42
:1038D00007F70CFB05F616EB074642EB174204FB15
:1038E0000CFC16EB0C4642EB1C421BEB060658EB9D
:1038F000020241414EEA8E0E46EA9E0601D5BDE81F
:103900000189B619524141EB0101A3F10103BDE860
:1039100001894FEA144524EA05464FEA114721EA96
:10392000074C05FB07F406FB07F70CFB06F111EB50
:10393000074144EB174405FB0CFC11EB0C4144EB35
:103940001C444FEA124722EA074C05FB07F206FB2C
:1039500007F70CFB06F616EB074642EB174205FB92
:103960000CFC16EB0C4642EB1C456A1854F10001A6
:1039700048BF7047B619524141EB0101A3F1010361
:10398000704795F0000F37D04FEA114221EA024606
:103990004FEA144724EA074C02FB07F106FB07F73E
:1039A0000CFB06F414EB074441EB174102FB0CFC43
:1039B00014EB0C4441EB1C414FEA154725EA074C38
:1039C00002FB07F506FB07F70CFB06F616EB0746AE
:1039D00045EB174502FB0CFC16EB0C4645EB1C4275
:1039E000121951F1000148BF7047B619524141EB1D
:1039F0000101A3F1010370474FEA144524EA05468B
:103A00004FEA114721EA074C05FB07F106FB07F7D0
:103A10000CFB06F212EB074241EB174105FB0CFCD5
:103A200012EB0C4251EB1C414FF0000648BF7047AF
:103A3000921841EB0101A3F10103704703B401980F
:103A40004100009850EAC12018BF04204A0D18BF59
:103A500040F0010040F2FF72B2EB515F08BF40F04E
:103A60000200012808BF052002B0704730380A283C
:103A700001D20120704700207047000010B50029D6
:103A80000AD00878002807D005487844FDF76CFA7A
:103A9000002801D0002010BD0248784410BD00006D
:103AA0006A01000062010000F1EE100A4FF6FF719A
:103AB000C0F2C03120EA010040F04070E1EE100A8F
:103AC0007047FCF7AEBF000002400000000000A0FD
:103AD0000000000005400000000000C800000000D9
:103AE0000C4000000000409C000000001940000055
:103AF0000020BCBE0000000034400000BFC91B8E87
:103B000000000004B5400000504BCFD06607E2CF64
:103B1000010000006C4100003E8251AADFEEA73494
:103B200001000000D9420000DCB5A0E23A301F9746
:103B3000FFFFFFFFB4450000FD25A0C8E9A3C14F6A
:103B4000FFFFFFFFFF3F00000000008000000000BB
:103B5000FF3F000000000080000000004D51544372
:103B60000000000004000000000000000000000051
:103B7000000000003C0001004D51545700000000BF
:103B80000000000000000000000000000000000035
:103B90000000000000000000000000000000000025
:103BA0000000000000000000000000000000000015
:103BB00000000000000000000000000001020304FB
:103BC0000607080900000000010203044F4B0D0A1C
:103BD00000000000103C0008000000201000000061
:103BE000C4010008203C0008100000203013000031
:103BF000E00100081C00000043000000F8FFFFFF88
:103C00000C0000000E0000000F0000002E0000005D
:103C100001000000100000000024F400000000007B
:040000050800018965
:00000001FF
