:020000040800F2
:100000008007002029020008F11E0008E91E0008F0
:10001000ED1E0008B904000861200008000000007F
:10002000000000000000000000000000F91E0008B1
:10003000C904000800000000F51E0008FD1E0008AD
:10004000430200084302000843020008430200087C
:10005000430200084302000843020008430200086C
:10006000430200084302000843020008430200085C
:10007000430200084302000843020008430200084C
:100080004302000843020008AD04000843020008D0
:10009000430200084302000843020008430200082C
:1000A000430200084302000843020008430200081C
:1000B000430200084302000843020008430200080C
:1000C00043020008430200084302000843020008FC
:1000D00043020008430200084302000843020008EC
:1000E00043020008430200084302000843020008DC
:1000F00043020008430200084302000843020008CC
:1001000043020008430200084302000843020008BB
:1001100043020008430200084302000843020008AB
:10012000BD0400084302000843020008430200081F
:10013000430200084302000843020008430200088B
:10014000430200084302000843020008430200087B
:10015000430200084302000843020008430200086B
:10016000430200084302000843020008430200085B
:100170004302000843020008430200080000000098
:10018000430200084302000800F002F800F03CF8C7
:100190000AA090E8000C82448344AAF10107DA45E2
:1001A00001D100F031F8AFF2090EBAE80F0013F0F8
:1001B000010F18BFFB1A43F0010318471421000078
:1001C00034210000103A24BF78C878C1FAD8520709
:1001D00024BF30C830C144BF04680C6070470000C1
:1001E0000023002400250026103A28BF78C1FBD840
:1001F000520728BF30C148BF0B6070471FB502F0DF
:100200004EF81FBD10B510BD00F0D0F81146FFF735
:10021000F5FF01F027FF00F0EEF803B4FFF7F2FF5F
:1002200003BC00F0F5F80000094880470948004782
:10023000FEE7FEE7FEE7FEE7FEE7FEE7FEE7FEE796
:10024000FEE7FEE704480549054A064B70470000F3
:10025000011F00088901000880010020800700209C
:10026000800300208003002053EA020C00F0698024
:100270002DE9F04B4FF00006002B1FBFB3FA83F5BA
:1002800003FA05F424FA05F65E4012BF1643B2FAEB
:1002900082F502FA05F4C5F120051EBF22FA05FC1D
:1002A00044EA0C04203556EA044C4FEA144418BFC3
:1002B000641C4FF000084FF00009904271EB030CF2
:1002C00039D3002919BFB1FA81F701FA07F6B0FA5C
:1002D00080F700FA07F6C7F120071EBF20FA07FCD7
:1002E00046EA0C062037B6FBF4FCA7EB0507103FE7
:1002F00007F01F0BCBF120062CFA06F60CFA0BFBCD
:1003000044BFB3460026202FA4BF5E464FF0000B2B
:100310005BEA060C08BF4FF0010B19EB0B0948EB29
:100320000608ABFB027C06FB02CC0BFB03CCC01B1C
:1003300071EB0C01C1E70B46024641464846BDE859
:10034000F08B13B5084318BF4FF0FF300146AFF3F1
:100350000080BDE81C4070474FF0000200B5134616
:1003600094469646203922BFA0E80C50A0E80C50D5
:10037000B1F12001BFF4F7AF090728BFA0E80C5086
:1003800048BF0CC05DF804EB890028BF40F8042B7F
:1003900008BF704748BF20F8022B11F0804F18BFEC
:1003A00000F8012B7047704770477047754600F0A2
:1003B0002BF8AE4605006946534620F007008546F7
:1003C00018B020B5FFF73EFFBDE820404FF0000613
:1003D0004FF000074FF000084FF0000BAC46ACE8C0
:1003E000C009ACE8C009ACE8C009ACE8C00921F01C
:1003F00007018D46704710B50446AFF300802046D4
:10040000BDE81040FFF709BF00487047100000200A
:1004100001491820ABBEFEE726000200704700002D
:100420000146806B036C026C13F0500F08D0D206AB
:1004300048BF00F043B9806BC26C0846104700BF4C
:1004400042F40071016401688A6812F0405F01D0D3
:1004500000F0E6B8027E002AFAD1CA6A12F4700FE0
:1004600002D08A685205F3D44A6822F020024A601A
:10047000016C21F480710164016CC90448BF00F073
:10048000CFB8016C41F00101016400F0C9B800006F
:10049000806B40210164416C41F00401416400F033
:1004A0000DB90000806B00F007B9000040F2D400E5
:1004B000C2F2000000F004B9FEE7000040F21C1098
:1004C000C2F2000000F07ABB7047000072B600BFB5
:1004D000FEE700007047000070B581B00022009276
:1004E00090F83C20012A03D10221084601B070BDDA
:1004F0000E6801220A2E80F83C2009D3B2B25200C5
:10050000D0F800E012FA86F21E3A0EF10C0305E074
:10051000D0F800E006EB46020EF110034FF0070C96
:100520001D680CFA02F4A5431D608D681C6805FA6D
:1005300002F222431A60496806290FD801EB8101B3
:100540004A1F71461F2351F8345F934025EA030385
:100550000B60B3B203FA02F214E000BF01EB8103B7
:100560000C29B2B204D8714651F8304F233B03E056
:10057000714651F82C4F413B1F259D4024EA05054B
:100580009A400D600B6842F2043CC4F2010C1A431D
:10059000ACF541739E450A603BD1122E06D1DCF8C2
:1005A000001041F48001CCF8001032E026F0010187
:1005B00010292ED1DCF80010102E41F40001CCF8E7
:1005C000001026D140F20801C2F2000109684DF680
:1005D0008362C4F21B32A1FB0212910C01EB810178
:1005E000490000910099A1B1009901390091009949
:1005F00079B1009901390091009951B100990139FF
:100600000091009929B100990139009100990029C0
:10061000EAD1002180F83C10084601B070BD00000E
:1006200047F62A20C1F6FF7000889FED1F1A00EEE2
:10063000100A40F27000C2F20000818AB8EE400A4F
:1006400020EE010A01EE101AC18AB8EE411A20EE1E
:10065000010A01EE101AB8EE411A9FED142A20EE9D
:10066000011A81EE021AC26980ED010A018080ED53
:10067000021A1164018B01EE101AB8EE411A20EE35
:10068000010A80EE020A9FED0A1A9FED0A2A30EE57
:10069000011A81EE021A80ED030AB3EE090A31EE67
:1006A000000A80ED040A70473333534000F07F4561
:1006B0005C8F42BF0AD7233B7047000070470000A1
:1006C00070B50446006806684568B10717D515F08F
:1006D000200114D0216CC90603D4216C41F40071AF
:1006E0002164816811F0405F02D1217E002969D028
:1006F0002046FFF795FF20686FF012010160710737
:1007000014D515F0800111D0216CC90603D4216CD9
:1007100041F400512164816811F4401F22D0204629
:10072000FFF7D8FE20686FF00C010160F10706D0DA
:1007300015F040011CBF01685FEAC17134D1B106F8
:100740000FD515F0806108BF70BD616C6FF020059A
:1007500041F00201616405602046FFF7AFFF2068A9
:10076000056070BD816B11F4401F02D0816849059E
:10077000D5D441684905D2D4816811F0405FCED10B
:10078000217E0029CBD1416821F080014160206C9D
:1007900020F480502064206CC005C0D4206C40F050
:1007A00001002064BBE700BF206C40F4803020646F
:1007B000204600F0D1F820686FF001010160B10619
:1007C000BFD4CEE7C16A11F4700F03D08168490528
:1007D0003FF58EAF416821F020014160206C20F48C
:1007E00080702064206CC0043FF582AF206C40F024
:1007F000010020647CE70000002804BF012070474E
:1008000010B50446006C00283ED0206CC00645D4CC
:10081000206C41F202118843023042F2043120641C
:10082000C4F20101086820F4403008600A6894E8C6
:1008300009101A43D4F810E00A604168012321F43A
:10084000807141604168C0F6007341EA0E21416049
:10085000416821F040714160416841EA0C0141600A
:10086000816821F400618160E168826811438160E0
:10087000A16A8268994222F070628260826813D114
:1008800022F0405119E000BF204600F067F8002038
:10089000606484F83C00206CC006B9D501200021BA
:1008A00084F83C1010BD00BF11438160816821F0C5
:1008B00040518160E16A826811438160816821F062
:1008C000020181608168227E94F8203041EA420171
:1008D0008160416883B141F40061416041684EF23A
:1008E000000221F460414160616ACFF6FF72436803
:1008F00002EB4131194301E021F400614160C16A1A
:1009000040F2000C21F47001C162E2696169CFF626
:10091000F07CC36A0CEB02521A43C262826822F472
:100920000072826094F83020836843EA4222826039
:10093000826822F480628260826842EA812181605A
:1009400000206064216C012262F301012164002116
:1009500084F83C1010BD00007047000070B586B0F0
:10096000044642F200002168C4F2010000268142E0
:100970000596049602D006B070BD00BF43F6300164
:100980000096C4F202014A6900F5604042F48072A8
:100990004A614A6902F480720092009A00960A68DD
:1009A00042F001020A60096801F00101009100991A
:1009B000042101910321CDE9021601A900F0E0FA1A
:1009C00040F21C1546F21040C2F20005C4F20200CB
:1009D0004FF48061C5E9000605F110004FF4006294
:1009E0004FF400534FF4807C80E80E102846C5E990
:1009F0000266C5E9086600F0C1F9002818BFFFF7D4
:100A000065FD122000210022A563AC6300F010FCFC
:100A1000122000F0F9FB06B070BD0000B0B582B046
:100A200004460020019094F83C00012802D10220E5
:100A300002B0B0BD94460A460120216884F83C000B
:100A40008868C00729D188684DF6836540F00100A9
:100A5000886040F20800C2F200000068C4F21B3552
:100A6000A0FB0505A80C00EB400001900198A0B187
:100A7000019801380190019878B1019801380190EE
:100A8000019850B1019801380190019828B101985E
:100A90000138019001980028EAD18868C00503D583
:100AA000886820F4807088608D68206CED0709D11B
:100AB00040F010002064606C40F001006064002091
:100AC00002B0B0BD40F20175A84300F5807020640B
:100AD0004868400504D5206C012565F30D3020647D
:100AE000256C0020ED044FF0000544BF656C25F037
:100AF0000605656484F83C00A06B40F2214540F295
:100B0000A543C0F60005C0F60003C0E90F5340F24C
:100B10009143C0F60003C3646FF022030B604B687F
:100B200042F2080543F080634B608B68C4F2010514
:100B300043F480738B604C31634600F0D1F9D5F8F3
:100B4000FC122068C9060FD0A5F108018842B6D171
:100B5000286810F0405FB2D1286840F080402860DB
:100B6000002002B0B0BD00BF42F20001C4F201019A
:100B7000884217D042F20021C4F2010188420DD010
:100B800042F20011C4F20101884298D1D5F8FC125A
:100B9000C90607D005F5FC71884290D1D5F8FC1242
:100BA000C9068CD4816811F0405F7FF488AF8168FA
:100BB00041F080418160002002B0B0BDF0B581B04D
:100BC00004460020009040F20800C2F200000268D3
:100BD000D4E9166048F2B51337680821C1F64E33E0
:100BE00081403942A2FB03250CD0226813685B07C1
:100BF00008D5136823F004031360B160616D41F000
:100C00000101616501218140394208D022685269A1
:100C1000120604D5B160616D41F0020161650421E5
:100C20008140394208D022681268920704D5B16029
:100C3000616D41F00401616510218140394217D096
:100C400020680268120713D5B16002680168520378
:100C500008D4C90508D4016821F008010160216C9D
:100C600021B905E008033FD4216C09B1204688472B
:100C7000E16D202000FA01F23A4241D02068036879
:100C8000DB063DD5B26094F835300268052B1BD1E8
:100C900022F016020260426922F080024261226C58
:100CA0000AB9A26C1AB1026822F0080202603F2061
:100CB0008840B060012084F83500216D00200029B3
:100CC00084F8340052D157E00168520310D4C905AA
:100CD00012D4016821F010010160012084F8350070
:100CE000002084F8340007E0A16C0029BED1BFE7E2
:100CF000080301D4616C00E0E16B09B1204688472C
:100D0000606DC8B3606DC0072ED0052084F8350033
:100D10002068A90A026822F001020260009A0132EA
:100D20008A4200921AD80268D20717D0009A01327C
:100D30008A42009212D80268D2070FD0009A01327C
:100D40008A4200920AD80268D20707D0009A01327C
:100D50008A42009202D80268D207DFD1012084F8CB
:100D60003500002084F83400E16C29B1204601B040
:100D7000BDE8F040084700BF01B0F0BD2DE9F041EB
:100D8000044600F0D1F9ECB10546022084F83500A4
:100D90000020216884F83400086820F00100086011
:100DA00021680868C00711D000F0BEF9401B052873
:100DB000F6D9032520230320636584F83550BDE868
:100DC000F08100BF0120BDE8F08100BF086848F253
:100DD0003F02CFF21002D4E9013500EA020C04F11F
:100DE0000C0898E8C10143EA0C032B431843D4E9EB
:100DF000072E304338431043626A40EA0E00042A4B
:100E000040EA08031CD1206BD4E90A2E40EA0E0008
:100E1000184308604869BEF1000F20F0030040EA63
:100E2000020040F0040C11D0B8F5005F36D0B8F1E4
:100E3000000F45D1022A46D0012A3BD032B942E008
:100E40000B60486920F0070040EA020C01F0F8004E
:100E50004AF6AB221038CAF6AA22A0FB02231A09CE
:100E600042F2C823C0F600039A5C40F2FF335F28C9
:100E70004FF03F00C1F814C021EA030100FA02F06C
:100E800088BF0431C4E916128860002301250020C0
:100E9000636584F83550BDE8F08100BF032AD5D8DA
:100EA000012540230120DFE802F0030E030500BF07
:100EB00082E700BFAEF1C070B0FA80F0400904E0F4
:100EC000032A04D3C2D1CEF300600028BED001258E
:100ED00040230120636584F83550BDE8F0810000AF
:100EE00070B590F834C0BCF1010F46D04FF0010C42
:100EF00080F834C0D0F858E090F835C0BCF1010F4C
:100F000038D14FF0020C80F835C04FF0000CC0F81B
:100F100054C0D0F800C08468056CC06DDCF8006077
:100F2000402C26F48026CCF80060CCF804300B4628
:100F300004BF13460A463F2101FA00F0CCF80830FE
:100F4000CCF80C20CEF80800DCF8000040F01600C9
:100F5000CCF800002DB1DCF8000040F00800CCF81F
:100F60000000DCF8000040F00100CCF80000002098
:100F700070BD00BF002180F83410022070BD000059
:100F80002DE9F04F82B000F13E4241F6004502F1FA
:100F9000FF77C4F20205082243F6004E4FEAB72657
:100FA000A84208BF0722C4F2010E072E38BF4FEA3D
:100FB000B7220125002600274FF00008009208E024
:100FC00008F101080437B8F1100F06F1020600F02D
:100FD000A7800C6805FA08F914EA090FF0D0D1F8D7
:100FE00004B003220BF0030CACF10104B240012C5D
:100FF0006FEA020A10D88268CC6802EA0A02B4409A
:10100000224382604268CBF3001422EA090204FA08
:1010100008F42243426005E0BCF1030F02D14FF017
:10102000030C20E0C2688C6802EA0A02B440224342
:10103000BCF1020FC26016D16FF0030202EA58023F
:101040000244D2F820C007F01C050F230C69AB4006
:101050002CEA030304FA05F52B431362D1F804B01C
:1010600001250BF0030C02680CFA06F302EA0A02EF
:101070001A431BF4403F0260A2D0002243F644030F
:101080000192C4F202031A684FF6084C42F48042FF
:101090001A601A68CFF6FF7C02F480420192019A2E
:1010A00028F00302724452F80C3007F00C050F24AC
:1010B000AC40A343009C04FA05F52B4342F80C30E6
:1010C000DEF808204B6842EA090543F60C4CDC02C6
:1010D00058BF22EA0905CEF80850C4F2010CDCF82A
:1010E00000209C0242EA090558BF22EA0905CCF813
:1010F0000050DEF804209C0342EA090558BF22EAAA
:101100000905CEF80450DEF80020DB0342EA0905A9
:1011100058BF22EA0905CEF80050012550E700BF6C
:1011200002B0BDE8F08F000040F27C10C2F2000077
:101130000068704740F2000040F27C11C2F20000EB
:10114000C2F2000100780A6810440860704700008D
:1011500080B543F60040C4F20200016841F400711A
:101160000160016841F480610160016841F48071AF
:101170000160032000F088F80F2000F005F800F06F
:1011800027F8002080BD000070B540F20006C2F2D2
:10119000000640F208013278C2F200014FF47A737F
:1011A0000968B3FBF2F20446B1FBF2F1084600F025
:1011B0001BFB0F2C4FF0010508D838B94FF0FF305A
:1011C00021460022002500F033F87460284670BDE7
:1011D00082B0002043F640010190C4F202014A6847
:1011E00042F480424A604A6802F480420192019AC5
:1011F0000090086840F080500860086800F0805057
:101200000090009802B07047002848BF7047C1B2F4
:1012100000F01F00012202FA00F04EF20012CEF29E
:10122000000242EAD10121F003010860704700008A
:1012300010B54EF60C5CCEF2000CDCF80030C3F3B7
:10124000022E8EF00704042C28BF0424BEF10303F1
:101250004FF0FF3E0EFA04F438BF0023A14399403B
:101260000EFA03F39A43114300F00F0200F16043BA
:101270000901043A03F564436244002848BF02F1BF
:101280000C03197010BD00004EF60C51CEF2000197
:101290000A684FF6FF031A4060F30A2242F08060AA
:1012A00040F0FD70086070472DE9F041002800F023
:1012B0008B8043F60808C4F202080446D8F8F80305
:1012C0000D4600F00700884207D288F8F853D8F896
:1012D000F80300F00700A84276D12068810717D5EF
:1012E000410705D5D8F8001041F4E051C8F80010C6
:1012F000010705D5D8F8001041F46041C8F8001086
:10130000D8F80010A26821F0F0011143C8F80010CD
:10131000C0073FD1D8F8F80300F00700A84207D96A
:1013200088F8F853D8F8F80300F00700A8424BD12A
:101330002068410707D5D8F80010E26821F4E05191
:101340001143C8F80010000708D5D8F8000021693B
:1013500020F4604040EAC100C8F8000000F054F8F2
:10136000D8F8001042F2B822C1F30311C0F600020F
:10137000515C40F2080220FA01F140F20400C2F28E
:1013800000000068C2F200021160FFF7FDFE0020BD
:10139000BDE8F0816068811E022907D258F8081C58
:1013A00089015CBF0120BDE8F08111E0012807D16F
:1013B00058F8081C89035CBF0120BDE8F08107E0F4
:1013C00058F8081C890703D40120BDE8F08100BF4C
:1013D000D8F8001021F003010843C8F80000FFF717
:1013E000A3FE064641F28837D8F80000616800F095
:1013F0000C00B0EB810F8DD0FFF796FE801BB8423A
:10140000F2D90320BDE8F08110B543F60404C4F21C
:101410000204606800F00C0008280BD0042819BFF3
:1014200042F20040C0F2F40047F64000C0F27D10E6
:1014300010BD00BF206821682368490247F64001BB
:10144000C0F27D1100F03F02C3F388105CBF42F28E
:101450000041C0F2F401A1FB00010023FEF704FFEC
:1014600021680222C1F3014102EB4101B0FBF1F01E
:1014700010BD00002DE9F04182B0002868D004467C
:10148000007843F60006C007C4F202060BD0B0682D
:1014900000F00C00042840F09F803068800302D5E3
:1014A0006068002854D0207880071AD5B06810F002
:1014B0000C0F09D0B06800F00C00082840F0A6809E
:1014C0007068400200F1A2803068800702D5E068B1
:1014D00001283DD13068216920F0F80040EAC100C0
:1014E00030602078000737D4207840074CD4A569B5
:1014F00055B3B06800F00C00082840F0BB80012D07
:1015000026D07068E16900F480028A4220D1216A05
:1015100000F03F028A421BD147F6C071626A014067
:10152000B1EB821F14D1A16A4FF6FF73C90399432F
:1015300000F44032A1F580318A4209D1E16A00F01D
:101540007060B0EB016F03D1002002B0BDE8F08104
:10155000012002B0BDE8F0816069002840F200007F
:10156000C4F2472076D00121C0F8801EFFF7DCFDD1
:10157000054600BF706F8007B6D4FFF7D5FD401B4E
:101580000228F7D9DDE000BF306C10F080580AD196
:1015900000200190306C40F080503064306C00F0DE
:1015A00080500190019847F20007C4F200073868A4
:1015B000C00541D4386840F480703860FFF7B4FD4E
:1015C000054600BF3868C00536D4FFF7ADFD401BA7
:1015D0000228F7D9B5E000BFB06800F00C00082879
:1015E00003D1706840023FF558AF6068B0F5803FA6
:1015F00007D0B0F5A02F40F08D80306840F48020F7
:101600003060306840F4803030608DE0E068002861
:1016100052D00020C4F2472001210160FFF784FD71
:10162000054600BF306880073FF554AFFFF77CFDEB
:10163000401B0228F6D984E0A068012805D00528BF
:101640004ED1306F40F004003067306F40F0010041
:1016500030674FE00021C0F8801EFFF765FD0546AA
:10166000706F80077FF540AFFFF75EFD401B0228DB
:10167000F6D966E00027C4F2472700203866FFF756
:1016800053FD022D05460BD1306880015ED5FFF772
:101690004BFD401B02284FF00300F5D955E700BF72
:1016A000306880017FF550AFFFF73EFD401B0228F8
:1016B0004FF00300F4D948E70020C4F2472000218E
:1016C0000160FFF731FD0546306880077FF509AFFF
:1016D000FFF72AFD401B02284FF00300F4D934E73E
:1016E000316F002821F001013167316F21F00401D1
:1016F00031674DD0FFF718FD054641F2883700BF2E
:10170000306F800756D4FFF70FFD401BB842F7D962
:1017100017E000BF3168002821F480313160316862
:1017200021F4802131604FD0FFF7FEFC054600BF59
:10173000306880033FF5B7AEFFF7F6FC401B642826
:10174000F6D9032002B0BDE8F08100BF04F11C050A
:101750002FCD084340EA8210D9034FF6FF72914320
:10176000A1F5803140EA05600843706001203866C9
:10177000FFF7DAFC044600BF306880013FF5E4AEB5
:10178000FFF7D2FC001B02284FF00300F4D9DCE67F
:10179000FFF7CAFC054641F2883700BF306F80076B
:1017A00008D5FFF7C1FC401BB8424FF00300F5D944
:1017B000CBE600BFB8F1000F7FF499AE306C20F09B
:1017C0008050306493E600BFFFF7AEFC054600BFD3
:1017D000306880037FF567AEFFF7A6FC401B6428E6
:1017E0004FF00300F4D9B0E6411E0020B0EB116FBA
:1017F0001CBF012070474EF21002CEF20002516071
:101800004EF62351CEF20001F0230B7007219060B9
:101810001160704710B590F83C20012A4FF0020289
:1018200051D080F83D200268D2F804E0D2F808C018
:101830000C682EF07003234341F2FF74C4F20004DD
:10184000A24253600EDC40F2FF73C4F200039A42DE
:1018500016DCB2F1804F2BD040F20043C4F20003FB
:1018600024E000BF40F2FF33C4F201039A4213DCCC
:1018700041F60003C4F200039A4219D0002313E09A
:1018800040F60003C4F200039A4211D040F6004330
:10189000C4F200030AE000BF44F20003C4F20103F3
:1018A0009A4205D040F20043C4F201039A4204D1A7
:1018B00049682CF08003194391600121002280F8CF
:1018C0003D1080F83C20104610BD0000002804BFE9
:1018D0000120704710B5044690F83D0028B900205B
:1018E00084F83C00204600F01FF8022084F83D00F8
:1018F0002068211D00F00EFB012084F8460084F8CA
:101900003E0084F83F0084F8400084F8410084F8E9
:10191000420084F8430084F8440084F8450084F8C9
:101920003D00002010BD000081B0006840F60001BD
:10193000C4F20001884201D001B07047002000903D
:1019400043F64000C4F20200016841F00401016066
:10195000006800F004000090009801B0704700009B
:1019600080B590F83C20012A4FF0020200F0C280BE
:1019700080F83D20D0F800C04FF67772DCF80830D0
:1019800023EA0202CCF808200B684F2B28DC1F2B1F
:1019900044DD202B45D0302B43D0402B40F0AC8091
:1019A000D1F804E0C968DCF82030DCF8202022F00F
:1019B0000102CCF82020DCF8182022F0F00242EAE4
:1019C000011123F00A0242EA0E02CCF81810CCF8FA
:1019D0002020DCF8081041F0470121F0300180E0C0
:1019E0006F2B27DDB3F5005F48D0B3F5805F7AD069
:1019F000702B40F08180D1E901E3C968DCF8082050
:101A000043EA0E0322F47F4243EA01211143CCF85A
:101A10000810DCF8081041F0770162E00BB1102BE0
:101A20006AD1DCF8081021F07001194341F0070178
:101A300057E000BF502B35D0602B5DD1D1F804E0CA
:101A4000C968DCF82030DCF8202022F01002CCF845
:101A50002020DCF8182022F4704242EA013123F001
:101A6000A00242EA0E12CCF81810CCF82020DCF8C4
:101A7000081041F0670121F0100132E0D1E901E3E3
:101A8000C968DCF8082043EA0E0322F47F4243EAE7
:101A900001211143CCF80810DCF8081041F4804112
:101AA0001FE000BFD1F804E0C968DCF82030DCF8A2
:101AB000202022F00102CCF82020DCF8182022F0AF
:101AC000F00242EA011123F00A0242EA0E02CCF8C7
:101AD0001810CCF82020DCF8081041F0570121F054
:101AE0002001CCF808100022012180F83D100021CF
:101AF00080F83C10104680BD0122F5E780B586B025
:101B0000016840F60000C4F20000814202D006B035
:101B100080BD00BF002143F630020191C4F20202F1
:101B2000136800F5013043F008031360126802F0F7
:101B300008020192019A4FF4004201920222CDE97B
:101B40000221CDE9041201A9FFF71AFA06B080BDFF
:101B50002DE9F04390F83C30012B04BF0220BDE892
:101B6000F0834FEAB202032A00F2FC80DFE802F0C1
:101B7000023E7EBE036840F200471C6A1A6A24F0E7
:101B8000020422F001021A621A46D3F804E052F865
:101B900018CF8E6843F48065C4F20107BD4244EA61
:101BA000060405D1CE6824F00C0426F00406344364
:101BB0000E68BD4207D1D1E905572EF4407E45EAB3
:101BC0000E0545EA070E2CF073073743C3F804E00F
:101BD0009F614F6809695F631C629F6947F008074E
:101BE0009F619F6927F004079F61B1E0036840F29D
:101BF00000481C6A1A6A24F0200422F010021A62BB
:101C00001A46D3F804C052F818EF8F6843F4806581
:101C1000C4F20108454544EA071407D1CF686FF0C4
:101C2000400624F0C00406EA07163443D1F80090B9
:101C3000454506D1D1E905562CF440672E4347EAC5
:101C4000860C2EF4E64747EA0927C3F804C09F61D3
:101C50004F6809699F631C629F6947F400679F6131
:101C60009F6927F480679F6171E000BF036840F2BD
:101C700000481C6A1A6A24F4007422F480721A6202
:101C80001A46D3F804C052F81CEF8F6843F48065FD
:101C9000C4F20108454544EA072408D1CF6840F260
:101CA000FF463F0224F4406427EA06063443D1F895
:101CB0000090454506D1D1E905562CF440572E43F6
:101CC00047EA061C2EF0730747EA0907C3F804C069
:101CD000DF614F680969DF631C62DF6947F008074D
:101CE000DF61DF6927F00407DF6131E0036840F25C
:101CF0000045D3F820C01A6A43F4806722F480526A
:101D00001A621A465C6852F81CEFD1F800808E689F
:101D1000C4F20105AF4204D14D6924F4804444EA81
:101D200085142CF4005747EA06372EF4E64646EAB7
:101D300008265C60DE614E6809691E641F62DF6907
:101D400047F40067DF61DF6927F48067DF6109021C
:101D50001368194311600021002280F83C200846D6
:101D6000BDE8F0830121002280F83C200846BDE850
:101D7000F0830000002804BF0120704710B504461E
:101D800090F83D0028B9002084F83C00204600F07F
:101D90001FF8022084F83D002068211D00F0BAF8E9
:101DA000012084F8460084F83E0084F83F0084F85F
:101DB000400084F8410084F8420084F8430084F82D
:101DC000440084F8450084F83D00002010BD000068
:101DD0007047000041B1082910D0042914BF00F158
:101DE000410200F13F020BE090F83E20012A1CBFA7
:101DF00001207047022280F83E2013E000F14002EB
:101E00001278012A1CBF012070470222082907D03E
:101E1000042914BF80F8412080F83F2002E000BF71
:101E200080F84020006801F01F010122036A02FAD5
:101E300001F123EA01020262026A114341F2FF72D8
:101E4000C4F20002904201620CDC40F2FF71C4F265
:101E50000001884214DCB0F1804F37D040F20041DD
:101E600016E000BF40F2FF31C4F20101884215DCE8
:101E700041F60001C4F20001884227D0002115E09C
:101E800040F60001C4F2000188421FD040F6004134
:101E9000C4F20001884219D01FE000BF44F20001E3
:101EA000C4F20101884211D040F20041C4F20101A4
:101EB000884212D1416C40F2004340F48062C4F287
:101EC000010341F400419A42416406D1816801F066
:101ED0000701062904BF00207047016841F0010195
:101EE0000160002070470000FEE70000FEE70000F0
:101EF000FEE700007047000070470000FFF71AB9C6
:101F00004EF68850CEF20000016841F47001016085
:101F10007047000010B540F6FF3E0368C4F2000EA3
:101F200040F2004C7045C4F2010C27DCB0F1804F48
:101F300031D040F20042C4F2000290422BD040F671
:101F40000002C4F20002904225D041F6FF72C4F2B2
:101F50000002904229DC70453CDCB0F1804F5FD03C
:101F600040F20042C4F20002904259D040F6000212
:101F7000C4F20002904253D056E000BF40F6004247
:101F8000C4F20002904206D0604504D00022C4F2A0
:101F900001029042D9D14A6823F07003134341F6FD
:101FA000FF72C4F200029042D5DD43F6FF72C4F224
:101FB0000102904222DC42F20002C4F2000290428E
:101FC0002ED00022C4F20102904229D0604527D0D1
:101FD0002AE000BF40F60042C4F2000290421FD047
:101FE00041F60002C4F20002904219D041F60042CC
:101FF000C4F20002904213D016E000BF44F2000287
:10200000C4F2010290420BD044F60002C4F2010275
:10201000904205D044F20042C4F20102904203D142
:10202000CA6823F44073134323F080024B69D1F84C
:1020300000E08C681A430260C46240F48062C0F819
:1020400028E0624504BF096901630121416101691A
:10205000C90708BF10BD016921F00101016110BD70
:10206000FEE7000094B043F6300647F20005C4F2E4
:102070000206C4F20005FFF76BF806AC201D2C2108
:10208000FEF76AF900270597CDE90377CDE90177D7
:102090001297306940F080503061306900F0805014
:1020A000129012981297286840F48040286028689F
:1020B00000F48040129012980220069001200990AE
:1020C00010200A9020460C97FFF7D4F910B172B691
:1020D000FEE700BF0F20CDE9010701A80021CDE9EF
:1020E00003770597FFF7E0F810B172B6FEE700BF7F
:1020F000002406943068002140F001003060306810
:10210000002200F00100069006980694306840F026
:1021100008003060306800F00800069006980694C9
:10212000306840F480003060306800F48000069031
:1021300006983820FFF77CF83820FFF765F840F262
:10214000D4000122C2F20000C0F6007205F5304151
:102150000125C0E90A2403220994057680F820406D
:10216000C26180F83050C0E90014C0E90244C0E9FF
:102170000455FEF741FB18B172B600BFFEE700BF81
:102180001120CDE906050720089040F2D400C2F2E4
:10219000000006A9FEF7A0F910B172B6FEE700BF75
:1021A0000220CDE9060040F2D400C2F2000006A9E8
:1021B000FEF792F910B172B6FEE700BF102006904C
:1021C0000320079040F2D400C2F2000006A9FEF7F7
:1021D00083F918B172B600BFFEE700BF40F2700588
:1021E000C2F2000540F60002C4F2000228460021B7
:1021F00040F81C2F182240F6FF730491CDE902111C
:10220000CDE91211CDE90B11CDE90911C0E9012188
:10221000C0E903318161FFF759FB18B172B600BF05
:10222000FEE700BF4FF4805005F11C04019001A9A6
:102230002046FFF795FB18B172B600BFFEE700BF5E
:102240002046FFF797FD18B172B600BFFEE700BF4A
:1022500012A92046FFF7DEFA10B172B6FEE700BF02
:10226000602006900020CDE907000A9006A92046CC
:102270000C22FFF76DFC08B172B6FEE72046FFF7AF
:102280003DFC40F2D40005F11401C2F2000003222B
:10229000FEF7C4FB20460C21FFF79CFDFEE7F1EEA4
:1022A000100A4FF6FF71C0F2C03120EA010040F081
:1022B0004070E1EE100A70470000000000000000CE
:1022C000010203040607080900061016000610168E
:1022D000F02200080000002010000000C4010008E7
:1022E000002300081000002070070000E001000833
:1022F00001000000100000000024F40000000000B5
:040000050800018965
:00000001FF
