:020000040800F2
:1000000010070020290200084912000841120008C8
:1000100045120008D503000875150008000000000F
:100020000000000000000000000000005112000865
:10003000D9030008000000004D1200085512000806
:10004000430200084302000843020008430200087C
:10005000430200084302000843020008430200086C
:10006000430200084302000843020008430200085C
:10007000430200084302000843020008430200084C
:10008000430200084302000843020008430200083C
:10009000430200084302000843020008430200082C
:1000A000430200084302000843020008430200081C
:1000B0001513000843020008430200084302000829
:1000C00043020008430200084302000843020008FC
:1000D00043020008430200084302000843020008EC
:1000E00043020008430200084302000843020008DC
:1000F00043020008430200084302000843020008CC
:1001000043020008430200082113000843020008CC
:1001100043020008430200084302000843020008AB
:10012000430200084302000843020008430200089B
:10013000430200084302000843020008430200088B
:10014000430200084302000843020008430200087B
:10015000430200084302000843020008430200086B
:10016000430200084302000843020008430200085B
:100170004302000843020008430200080000000098
:10018000430200084302000800F002F800F03CF8C7
:100190000AA090E8000C82448344AAF10107DA45E2
:1001A00001D100F031F8AFF2090EBAE80F0013F0F8
:1001B000010F18BFFB1A43F0010318479C150000FC
:1001C000BC150000103A24BF78C878C1FAD852078D
:1001D00024BF30C830C144BF04680C6070470000C1
:1001E0000023002400250026103A28BF78C1FBD840
:1001F000520728BF30C148BF0B6070471FB501F0E0
:1002000096FA1FBD10B510BD00F0A9F81146FFF712
:10021000F5FF01F0B1F900F0C7F803B4FFF7F2FF02
:1002200003BC00F0CFF800000948804709480047A8
:10023000FEE7FEE7FEE7FEE7FEE7FEE7FEE7FEE796
:10024000FEE7FEE704480549054A064B70470000F3
:100250000113000889010008100100201007002088
:10026000100300201003002053EA020C00F0698004
:100270002DE9F04B4FF00006002B1FBFB3FA83F5BA
:1002800003FA05F424FA05F65E4012BF1643B2FAEB
:1002900082F502FA05F4C5F120051EBF22FA05FC1D
:1002A00044EA0C04203556EA044C4FEA144418BFC3
:1002B000641C4FF000084FF00009904271EB030CF2
:1002C00039D3002919BFB1FA81F701FA07F6B0FA5C
:1002D00080F700FA07F6C7F120071EBF20FA07FCD7
:1002E00046EA0C062037B6FBF4FCA7EB0507103FE7
:1002F00007F01F0BCBF120062CFA06F60CFA0BFBCD
:1003000044BFB3460026202FA4BF5E464FF0000B2B
:100310005BEA060C08BF4FF0010B19EB0B0948EB29
:100320000608ABFB027C06FB02CC0BFB03CCC01B1C
:1003300071EB0C01C1E70B46024641464846BDE859
:10034000F08B13B5084318BF4FF0FF300146AFF3F1
:100350000080BDE81C407047704770477047754685
:1003600000F02CF8AE4605006946534620F0070021
:10037000854618B020B5FFF765FFBDE820404FF077
:1003800000064FF000074FF000084FF0000BAC469E
:10039000ACE8C009ACE8C009ACE8C009ACE8C009E9
:1003A00021F007018D46704710B50446AFF3008079
:1003B0002046BDE81040FFF730BF000000487047FE
:1003C0001000002001491820ABBEFEE72600020005
:1003D00070470000FEE70000704700002DE9F04F75
:1003E00082B000F13E4241F6004502F1FF77C4F2CF
:1003F0000205082243F6004E4FEAB726A84208BF7E
:100400000722C4F2010E072E38BF4FEAB72201259A
:10041000002600274FF00008009208E008F10108CC
:100420000437B8F1100F06F1020600F0A7800C683F
:1004300005FA08F914EA090FF0D0D1F804B0032244
:100440000BF0030CACF10104B240012C6FEA020A7C
:1004500010D88268CC6802EA0A02B4402243826063
:100460004268CBF3001422EA090204FA08F422439A
:10047000426005E0BCF1030F02D14FF0030C20E015
:10048000C2688C6802EA0A02B4402243BCF1020F3F
:10049000C26016D16FF0030202EA58020244D2F899
:1004A00020C007F01C050F230C69AB402CEA0303A6
:1004B00004FA05F52B431362D1F804B001250BF0C3
:1004C000030C02680CFA06F302EA0A021A431BF450
:1004D000403F0260A2D0002243F644030192C4F2DE
:1004E00002031A684FF6084C42F480421A601A68F8
:1004F000CFF6FF7C02F480420192019A28F00302B9
:10050000724452F80C3007F00C050F24AC40A343A2
:10051000009C04FA05F52B4342F80C30DEF8082065
:100520004B6842EA090543F60C4CDC0258BF22EA4C
:100530000905CEF80850C4F2010CDCF800209C023A
:1005400042EA090558BF22EA0905CCF80050DEF856
:1005500004209C0342EA090558BF22EA0905CEF8A7
:100560000450DEF80020DB0342EA090558BF22EA06
:100570000905CEF80050012550E700BF02B0BDE8E4
:10058000F08F00000069084018BF0120704700008C
:10059000426902EA0103914341EA034181617047E4
:1005A000002A08BF090481617047000040F20C1066
:1005B000C2F200000068704740F2000040F20C11E7
:1005C000C2F20000C2F2000100780A68104408601C
:1005D0007047000080B543F60040C4F20200016895
:1005E00041F400710160016841F4806101600168BB
:1005F00041F480710160032000F088F80F2000F0C2
:1006000005F800F027F8002080BD000070B540F22A
:100610000006C2F2000640F208013278C2F2000180
:100620004FF47A730968B3FBF2F20446B1FBF2F1BE
:10063000084600F01BFB0F2C4FF0010508D838B915
:100640004FF0FF3021460022002500F033F874609F
:10065000284670BD82B0002043F640010190C4F2EC
:1006600002014A6842F480424A604A6802F48042C9
:100670000192019A0090086840F080500860086874
:1006800000F080500090009802B07047002848BFEA
:100690007047C1B200F01F00012202FA00F04EF2D2
:1006A0000012CEF2000242EAD10121F003010860FB
:1006B0007047000010B54EF60C5CCEF2000CDCF872
:1006C0000030C3F3022E8EF00704042C28BF04244C
:1006D000BEF103034FF0FF3E0EFA04F438BF0023CF
:1006E000A14399400EFA03F39A43114300F00F021D
:1006F00000F160430901043A03F5644362440028B1
:1007000048BF02F10C03197010BD00004EF60C51E9
:10071000CEF200010A684FF6FF031A4060F30A2286
:1007200042F0806040F0FD70086070472DE9F041B4
:10073000002800F08B8043F60808C4F20208044643
:10074000D8F8F8030D4600F00700884207D288F871
:10075000F853D8F8F80300F00700A84276D12068D3
:10076000810717D5410705D5D8F8001041F4E051AD
:10077000C8F80010010705D5D8F8001041F4604111
:10078000C8F80010D8F80010A26821F0F001114359
:10079000C8F80010C0073FD1D8F8F80300F00700F0
:1007A000A84207D988F8F853D8F8F80300F00700F2
:1007B000A8424BD12068410707D5D8F80010E2685D
:1007C00021F4E0511143C8F80010000708D5D8F80B
:1007D0000000216920F4604040EAC100C8F8000030
:1007E00000F054F8D8F8001041F24872C1F3031138
:1007F000C0F60002515C40F2080220FA01F140F21A
:100800000400C2F200000068C2F200021160FFF7AB
:10081000FDFE0020BDE8F0816068811E022907D23C
:1008200058F8081C89015CBF0120BDE8F08111E087
:10083000012807D158F8081C89035CBF0120BDE8D6
:10084000F08107E058F8081C890703D40120BDE8AF
:10085000F08100BFD8F8001021F003010843C8F868
:100860000000FFF7A3FE064641F28837D8F80000E3
:10087000616800F00C00B0EB810F8DD0FFF796FEA1
:10088000801BB842F2D90320BDE8F08110B543F6D1
:100890000404C4F20204606800F00C0008280BD0C5
:1008A000042819BF42F20040C0F2F40047F64000AD
:1008B000C0F27D1010BD00BF206821682368490286
:1008C00047F64001C0F27D1100F03F02C3F38810EB
:1008D0005CBF42F20041C0F2F401A1FB0001002321
:1008E000FFF7C2FC21680222C1F3014102EB410182
:1008F000B0FBF1F010BD00002DE9F04182B00028FE
:1009000068D00446007843F60006C007C4F2020629
:100910000BD0B06800F00C00042840F09F803068D5
:10092000800302D56068002854D0207880071AD54B
:10093000B06810F00C0F09D0B06800F00C00082867
:1009400040F0A6807068400200F1A2803068800705
:1009500002D5E06801283DD13068216920F0F80017
:1009600040EAC10030602078000737D42078400783
:100970004CD4A56955B3B06800F00C00082840F0CD
:10098000BB80012D26D07068E16900F480028A42A4
:1009900020D1216A00F03F028A421BD147F6C07184
:1009A000626A0140B1EB821F14D1A16A4FF6FF7356
:1009B000C903994300F44032A1F580318A4209D13C
:1009C000E16A00F07060B0EB016F03D1002002B06B
:1009D000BDE8F081012002B0BDE8F0816069002827
:1009E00040F20000C4F2472076D00121C0F8801EFA
:1009F000FFF7DCFD054600BF706F8007B6D4FFF738
:100A0000D5FD401B0228F7D9DDE000BF306C10F0A7
:100A100080580AD100200190306C40F08050306442
:100A2000306C00F080500190019847F20007C4F24A
:100A300000073868C00541D4386840F480703860D9
:100A4000FFF7B4FD054600BF3868C00536D4FFF790
:100A5000ADFD401B0228F7D9B5E000BFB06800F03B
:100A60000C00082803D1706840023FF558AF606859
:100A7000B0F5803F07D0B0F5A02F40F08D803068F2
:100A800040F480203060306840F4803030608DE089
:100A9000E068002852D00020C4F247200121016004
:100AA000FFF784FD054600BF306880073FF554AF6F
:100AB000FFF77CFD401B0228F6D984E0A0680128DE
:100AC00005D005284ED1306F40F004003067306FFC
:100AD00040F0010030674FE00021C0F8801EFFF7B2
:100AE00065FD0546706F80077FF540AFFFF75EFD3F
:100AF000401B0228F6D966E00027C4F247270020F1
:100B00003866FFF753FD022D05460BD13068800192
:100B10005ED5FFF74BFD401B02284FF00300F5D9CF
:100B200055E700BF306880017FF550AFFFF73EFD0D
:100B3000401B02284FF00300F4D948E70020C4F21C
:100B4000472000210160FFF731FD0546306880072E
:100B50007FF509AFFFF72AFD401B02284FF0030085
:100B6000F4D934E7316F002821F001013167316F8A
:100B700021F0040131674DD0FFF718FD054641F221
:100B8000883700BF306F800756D4FFF70FFD401B3A
:100B9000B842F7D917E000BF3168002821F480314E
:100BA0003160316821F4802131604FD0FFF7FEFCC5
:100BB000054600BF306880033FF5B7AEFFF7F6FC8F
:100BC000401B6428F6D9032002B0BDE8F08100BFC5
:100BD00004F11C052FCD084340EA8210D9034FF6DB
:100BE000FF729143A1F5803140EA056008437060CF
:100BF00001203866FFF7DAFC044600BF3068800148
:100C00003FF5E4AEFFF7D2FC001B02284FF00300D3
:100C1000F4D9DCE6FFF7CAFC054641F2883700BF8D
:100C2000306F800708D5FFF7C1FC401BB8424FF07A
:100C30000300F5D9CBE600BFB8F1000F7FF499AE01
:100C4000306C20F08050306493E600BFFFF7AEFCBC
:100C5000054600BF306880037FF567AEFFF7A6FC4E
:100C6000401B64284FF00300F4D9B0E6411E002079
:100C7000B0EB116F1CBF012070474EF21002CEF294
:100C8000000251604EF62351CEF20001F0230B70AA
:100C900007219060116070477047000070470000A6
:100CA00010B590F83C20012A4FF0020251D080F894
:100CB0003D200268D2F804E0D2F808C00C682EF09B
:100CC0007003234341F2FF74C4F20004A242536054
:100CD0000EDC40F2FF73C4F200039A4216DCB2F15C
:100CE000804F2BD040F20043C4F2000324E000BF49
:100CF00040F2FF33C4F201039A4213DC41F60003D1
:100D0000C4F200039A4219D0002313E040F6000316
:100D1000C4F200039A4211D040F60043C4F200032B
:100D20000AE000BF44F20003C4F201039A4205D076
:100D300040F20043C4F201039A4204D149682CF006
:100D40008003194391600121002280F83D1080F852
:100D50003C20104610BD0000002804BF0120704751
:100D600010B5044690F83D0028B9002084F83C00F6
:100D7000204600F01FF8022084F83D002068211D65
:100D800000F0D4FA012084F8460084F83E0084F88C
:100D90003F0084F8400084F8410084F8420084F861
:100DA000430084F8440084F8450084F83D000020A6
:100DB00010BD000010B582B0006840F60041C4F2DA
:100DC0000001884214D0B0F1804F2DD10020019055
:100DD00043F64000C4F2020001681C2441F0010106
:100DE0000160006800F001000190019810E000BF70
:100DF0000020009043F64000C4F202000168322453
:100E000041F008010160006800F0080000900098BF
:100E1000204600210022FFF74DFC204602B0BDE82D
:100E20001040FFF733BC00BF02B010BD90F83D107A
:100E300001291CBF01207047022180F83D10006885
:100E400041F2FF71C4F2000188420DDC40F2FF71F3
:100E5000C4F20001884215DCB0F1804F2AD040F284
:100E60000041C4F2000123E040F2FF31C4F201016D
:100E7000884213DC41F60001C4F20001884219D017
:100E8000002113E040F60001C4F20001884211D0B5
:100E900040F60041C4F200010AE000BF44F2000144
:100EA000C4F20101884205D040F20041C4F20101C0
:100EB000884206D1816801F00701062904BF00209D
:100EC0007047016841F00101016000207047000097
:100ED00080B590F83C20012A4FF0020200F0C28059
:100EE00080F83D20D0F800C04FF67772DCF808306B
:100EF00023EA0202CCF808200B684F2B28DC1F2BBA
:100F000044DD202B45D0302B43D0402B40F0AC802B
:100F1000D1F804E0C968DCF82030DCF8202022F0A9
:100F20000102CCF82020DCF8182022F0F00242EA7E
:100F3000011123F00A0242EA0E02CCF81810CCF894
:100F40002020DCF8081041F0470121F0300180E05A
:100F50006F2B27DDB3F5005F48D0B3F5805F7AD003
:100F6000702B40F08180D1E901E3C968DCF80820EA
:100F700043EA0E0322F47F4243EA01211143CCF8F5
:100F80000810DCF8081041F0770162E00BB1102B7B
:100F90006AD1DCF8081021F07001194341F0070113
:100FA00057E000BF502B35D0602B5DD1D1F804E065
:100FB000C968DCF82030DCF8202022F01002CCF8E0
:100FC0002020DCF8182022F4704242EA013123F09C
:100FD000A00242EA0E12CCF81810CCF82020DCF85F
:100FE000081041F0670121F0100132E0D1E901E37E
:100FF000C968DCF8082043EA0E0322F47F4243EA82
:1010000001211143CCF80810DCF8081041F48041AC
:101010001FE000BFD1F804E0C968DCF82030DCF83C
:10102000202022F00102CCF82020DCF8182022F049
:10103000F00242EA011123F00A0242EA0E02CCF861
:101040001810CCF82020DCF8081041F0570121F0EE
:101050002001CCF808100022012180F83D10002169
:1010600080F83C10104680BD0122F5E77047000073
:1010700070B504460068C5680669B10716D515F055
:10108000020113D06FF00201016101212177806913
:10109000800703D02046FFF7E9FF05E0204600F077
:1010A0008FF8204600F08EF800202077700719D5C1
:1010B00015F0040016D020686FF0040101610221D0
:1010C0002177806910F4407F04D02046FFF7CEFFDF
:1010D00006E000BF204600F073F8204600F072F8EA
:1010E00000202077300717D515F0080014D02068AD
:1010F0006FF00801016104212177C069800703D0E6
:101100002046FFF7B3FF05E0204600F059F82046DF
:1011100000F058F800202077F00619D515F01000DF
:1011200016D020686FF01001016108212177C06995
:1011300010F4407F04D02046FFF798FF06E000BF80
:10114000204600F03DF8204600F03CF800202077D3
:10115000F00718BF15F0010002D1300609D412E0E3
:1011600020686FF001010161204600F02DF8300683
:1011700009D515F0800006D020686FF0800101616C
:101180002046FFF789FD700609D515F0400006D00E
:1011900020686FF040010161204600F04FF8B00672
:1011A00058BF70BD15F0200008D021686FF02002F4
:1011B00020460A61BDE87040FFF770BD70BD0000B9
:1011C0007047000070470000016840F60040C4F21C
:1011D0000000814218BF704700F500304FF4005105
:1011E000FFF7D6B9B0B5044690F83C0001284FF09F
:1011F000020008BFB0BD012584F83C5084F83D00D2
:10120000204600F039F900284FF0010006D00021F7
:1012100084F83D5084F83C10B0BD00BF2068C16820
:1012200021F04001C160C16821F48041C16000200B
:10123000002184F83D5084F83C10B0BD7047000098
:10124000FEE70000FEE70000FEE700007047000038
:1012500070470000FFF7B0B9B0B592B0002443F674
:1012600040000B94CDE90944CDE907440594CDE94C
:101270000344CDE901440094C4F202000168022550
:1012800041F080510160006800F0805000900098AB
:1012900047F200000094C4F20000016841F480416C
:1012A0000160006800F480400090009801200990DF
:1012B00010200A9008200E906020CDE90F05042030
:1012C000119006A80695CDE90C54FFF715FB18B14F
:1012D00072B600BFFEE700BF0F20CDE901058020F8
:1012E00003904FF48050CDE9040401A80121FFF7D9
:1012F0001DFA18B172B600BFFEE700BF12B0B0BD54
:101300004EF68850CEF20000016841F47001016091
:101310007047000040F27C00C2F20000FFF7A8BE58
:1013200040F2C400C2F20000FFF7A2BE10B540F6C2
:10133000FF3E0368C4F2000E40F2004C7045C4F258
:10134000010C27DCB0F1804F31D040F20042C4F2F2
:10135000000290422BD040F60002C4F200029042FC
:1013600025D041F6FF72C4F20002904229DC70459C
:101370003CDCB0F1804F5FD040F20042C4F200028A
:10138000904259D040F60002C4F20002904253D07D
:1013900056E000BF40F60042C4F20002904206D080
:1013A000604504D00022C4F201029042D9D14A68BB
:1013B00023F07003134341F6FF72C4F2000290421F
:1013C000D5DD43F6FF72C4F20102904222DC42F204
:1013D0000002C4F2000290422ED00022C4F20102A8
:1013E000904229D0604527D02AE000BF40F6004255
:1013F000C4F2000290421FD041F60002C4F2000283
:10140000904219D041F60042C4F20002904213D03B
:1014100016E000BF44F20002C4F2010290420BD079
:1014200044F60002C4F20102904205D044F20042A8
:10143000C4F20102904203D1CA6823F440731343FB
:1014400023F080024B69D1F800E08C681A430260F7
:10145000C46240F48062C0F828E0624504BF0969B4
:101460000163012141610169C90708BF10BD01691C
:1014700021F00101016110BD80B5D0F800E0DEF877
:101480000800D1E900C320F0770023F007021043E1
:101490004FEA331340EA0C00072BCEF8080009D8B6
:1014A0000020DFE803F00505050509233D5700BFCF
:1014B00080BD00BF012080BDBCF1050F04BF01202D
:1014C00080BDDEF82000DEF8202022F00102CEF8F8
:1014D0002020DEF81820096922F0F00242EA01110A
:1014E000CEF81810CEF82000002080BD8868096969
:1014F000DEF82020DEF8203022F00A0223F001037B
:10150000CEF82030DEF81830104323F0F00343EA21
:101510000111CEF81810CEF82000002080BD00BFC9
:1015200088680969DEF82020DEF8203022F0A00269
:1015300023F01003CEF82030DEF8183042EA001015
:1015400023F4704343EA0131CEF81810CEF820009E
:10155000002080BDD1E902020969DEF8083010439D
:1015600023F47F4340EA01201843CEF8080000200E
:1015700080BD0000FEE700008CB040F60044C4F2DD
:101580000204FFF727F8FFF767FE002543F6300057
:1015900007950895C4F202000168002241F0080195
:1015A000016001684FF4704601F008010891089944
:1015B0000895016841F00101016000684FF4704135
:1015C00000F00100089008982046FEF7E9FF01208E
:1015D000CDE9040503A9204603960695FEF7FEFE15
:1015E00040F2C400A4F50031C2F2000063230B9561
:1015F000CDE909550795CDE90555CDE900554BF6DF
:101600007F3280E82600C0E903358561FFF7A4FB3F
:1016100010B172B6FEE700BF4FF48050089040F260
:10162000C400C2F2000008A9FFF752FC10B172B664
:10163000FEE700BF062003900020049040F2C400A3
:10164000C2F2000003A9FFF7CDFD18B172B600BFCA
:10165000FEE700BF40F2C405C2F200056946284615
:10166000FFF71EFB10B172B6FEE700BF802040F20C
:10167000700709902020C2F2000708904FF08042C6
:101680003846002140F80C2F4BF67F3241F2873369
:101690000691CDE90411C0E90121C0E9033181615E
:1016A000FFF75AFB10B172B6FEE700BF4FF480504F
:1016B00007F10C06039003A93046FFF709FC18B1A7
:1016C00072B600BFFEE700BF08A93046FFF7E8FA90
:1016D00010B172B6FEE700BF3046FFF7A7FB2868DF
:1016E0006FF001016FF04006A4F5406801610661EA
:1016F00005E000BF486AF968496AC7E9001040463A
:101700000121FEF73FFF2968B86008694006F1D55E
:1017100020464FF40051FEF73BFF2968C86840F0AF
:101720000100C8600E6108694006F1D4E2E7F1EEFD
:10173000100A4FF6FF71C0F2C03120EA010040F0FC
:101740004070E1EE100A7047000000000000000049
:1017500001020304060708097817000800000020AA
:1017600010000000C40100088817000810000020C5
:1017700000070000E0010008010000001000000068
:081780000024F4000000000049
:040000050800018965
:00000001FF
